:020000040800F2
:1000000000000220A9210008591B00085B1B000802
:100010005D1B00085F1B0008611B0008000000005A
:10002000000000000000000000000000631B00084A
:10003000651B000800000000671B0008691B000822
:10004000F9210008F9210008F9210008F921000828
:10005000F9210008F9210008F9210008F921000818
:10006000F9210008F9210008F9210008F921000808
:10007000F9210008F9210008F9210008F9210008F8
:10008000F9210008F9210008F9210008000000000A
:10009000000000000000000000000000F92100083E
:1000A000711B0008F9210008F9210008F921000856
:1000B000F9210008F9210008F9210008F9210008B8
:1000C000F9210008F9210008F9210008F9210008A8
:1000D000F9210008F9210008F921000800000000BA
:1000E000F9210008F9210008F921000800000000AA
:1000F000000000000000000000000000F9210008DE
:1001000000000000F9210008F9210008F921000889
:1001100000000000000000000000000000000000DF
:10012000F9210008F9210008F9210008F921000847
:10013000F92100080000000000000000000000009D
:10014000000000000000000000000000F92100088D
:10015000F9210008F9210008F9210008F921000817
:10016000F9210008F921000800000000000000004B
:10017000000000000000000000000000000000007F
:1001800000000000F921000800000000000000004D
:08019000F9210008F921000823
:1001980010B5054C237833B9044B13B10448AFF3B9
:1001A80000800123237010BD7408002000000000A7
:1001B8003459000808B5034B1BB103490348AFF392
:1001C800008008BD000000007808002034590008AD
:1001D80081F0004102E000BF83F0004330B54FEAF0
:1001E80041044FEA430594EA050F08BF90EA020F5D
:1001F8001FBF54EA000C55EA020C7FEA645C7FEAF0
:10020800655C00F0E2804FEA5454D4EB5555B8BF12
:100218006D420CDD2C4480EA020281EA030382EA83
:10022800000083EA010180EA020281EA0303362D15
:1002380088BF30BD11F0004F4FEA01314FF4801CE8
:100248004CEA113102D0404261EB410113F0004FFA
:100258004FEA03334CEA133302D0524263EB4303B1
:1002680094EA050F00F0A780A4F10104D5F1200E4F
:100278000DDB02FA0EFC22FA05F2801841F10001AA
:1002880003FA0EF2801843FA05F359410EE0A5F17E
:1002980020050EF1200E012A03FA0EFC28BF4CF0AF
:1002A800020C43FA05F3C01851EBE37101F0004565
:1002B80007D54FF0000EDCF1000C7EEB00006EEB72
:1002C8000101B1F5801F1BD3B1F5001F0CD34908FC
:1002D8005FEA30004FEA3C0C04F101044FEA445253
:1002E80012F5800F80F09A80BCF1004F08BF5FEADA
:1002F800500C50F1000041EB045141EA050130BDBA
:100308005FEA4C0C404141EB0101013C28BFB1F5CB
:10031800801FE9D291F0000F04BF01460020B1FA16
:1003280081F308BF2033A3F10B03B3F120020CDAE9
:100338000C3208DD02F1140CC2F10C0201FA0CF0C7
:1003480021FA02F10CE002F11402D8BFC2F1200C2C
:1003580001FA02F120FA0CFCDCBF41EA0C019040E2
:10036800E41AA2BF01EB0451294330BD6FEA04042B
:100378001F3C1CDA0C340EDC04F11404C4F1200216
:1003880020FA04F001FA02F340EA030021FA04F328
:1003980045EA030130BDC4F10C04C4F1200220FA7F
:1003A80002F001FA04F340EA0300294630BD21FABD
:1003B80004F0294630BD94F0000F83F4801306BF83
:1003C80081F480110134013D4EE77FEA645C18BF77
:1003D8007FEA655C29D094EA050F08BF90EA020F0E
:1003E80005D054EA000C04BF1946104630BD91EA06
:1003F800030F1EBF0021002030BD5FEA545C05D109
:100408004000494128BF41F0004130BD14F5800447
:100418003CBF01F5801130BD01F0004545F0FE41BB
:1004280041F470014FF0000030BD7FEA645C1ABFF0
:10043800194610467FEA655C1CBF0B46024650EA27
:10044800013406BF52EA033591EA030F41F4002153
:1004580030BD00BF90F0000F04BF0021704730B5D9
:100468004FF4806404F132044FF000054FF00001AE
:1004780050E700BF90F0000F04BF0021704730B56F
:100488004FF4806404F1320410F0004548BF404244
:100498004FF000013EE700BF42004FEAE2014FEA99
:1004A80031014FEA02701FBF12F07F4393F07F4F74
:1004B80081F06051704732F07F4208BF704793F077
:1004C8007F4F04BF41F40021704730B54FF460748A
:1004D80001F0004521F000411CE700BF50EA01028D
:1004E80008BF704730B54FF000050AE050EA010236
:1004F80008BF704730B511F0004502D5404261EBA6
:1005080041014FF4806404F132045FEA915C3FF4E6
:10051800D8AE4FF003025FEADC0C18BF03325FEA83
:10052800DC0C18BF033202EBDC02C2F1200300FA34
:1005380003FC20FA02F001FA03FE40EA0E0021FA59
:1005480002F11444BDE600BF70B54FF0FF0C4CF447
:10055800E06C1CEA11541DBF1CEA135594EA0C0FF9
:1005680095EA0C0F00F0DEF82C4481EA030621EA34
:100578004C5123EA4C5350EA013518BF52EA03356F
:1005880041F4801143F4801338D0A0FB02CE4FF021
:100598000005E1FB02E506F00042E0FB03E54FF051
:1005A8000006E1FB03569CF0000F18BF4EF0010E49
:1005B800A4F1FF04B6F5007F64F5407404D25FEA45
:1005C8004E0E6D4146EB060642EAC62141EA5551F8
:1005D8004FEAC52040EA5E504FEACE2EB4F1FD0C3A
:1005E80088BFBCF5E06F1ED8BEF1004F08BF5FEAB8
:1005F800500E50F1000041EB045170BD06F000466A
:1006080046EA010140EA020081EA0301B4EB5C0416
:10061800C2BFD4EB0C0541EA045170BD41F480110E
:100628004FF0000E013C00F3AB8014F1360FDEBF33
:10063800002001F0004170BDC4F10004203C35DA0F
:100648000C341BDC04F11404C4F1200500FA05F392
:1006580020FA04F001FA05F240EA020001F0004233
:1006680021F0004110EBD37021FA04F642EB0601A9
:100678005EEA430E08BF20EAD37070BDC4F10C04D3
:10068800C4F1200500FA04F320FA05F001FA04F297
:1006980040EA020001F0004110EBD37041F1000183
:1006A8005EEA430E08BF20EAD37070BDC4F120058E
:1006B80000FA05F24EEA020E20FA04F301FA05F2F6
:1006C80043EA020321FA04F001F0004121FA04F29E
:1006D80020EA020000EBD3705EEA430E08BF20EA6E
:1006E800D37070BD94F0000F0FD101F000464000A8
:1006F80041EB010111F4801F08BF013CF7D041EA2A
:10070800060195F0000F18BF704703F0004652002D
:1007180043EB030313F4801F08BF013DF7D043EAFE
:100728000603704794EA0C0F0CEA135518BF95EAB4
:100738000C0F0CD050EA410618BF52EA4306D1D13B
:1007480081EA030101F000414FF0000070BD50EA5A
:10075800410606BF1046194652EA430619D094EAE4
:100768000C0F02D150EA013613D195EA0C0F05D1CE
:1007780052EA03361CBF104619460AD181EA030122
:1007880001F0004141F0FE4141F470014FF00000DA
:1007980070BD41F0FE4141F4780170BD70B54FF075
:1007A800FF0C4CF4E06C1CEA11541DBF1CEA1355F5
:1007B80094EA0C0F95EA0C0F00F0A7F8A4EB0504D7
:1007C80081EA030E52EA03354FEA013100F08880CE
:1007D8004FEA03334FF0805545EA131343EA126397
:1007E8004FEA022245EA111545EA10654FEA00264C
:1007F8000EF000419D4208BF964244F1FD0404F505
:10080800407402D25B084FEA3202B61A65EB030560
:100818005B084FEA32024FF480104FF4002CB6EB1D
:10082800020E75EB030E22BFB61A754640EA0C009D
:100838005B084FEA3202B6EB020E75EB030E22BFDD
:10084800B61A754640EA5C005B084FEA3202B6EB1E
:10085800020E75EB030E22BFB61A754640EA9C00DD
:100868005B084FEA3202B6EB020E75EB030E22BFAD
:10087800B61A754640EADC0055EA060E18D04FEA6B
:10088800051545EA16754FEA06164FEAC30343EA0B
:1008980052734FEAC2025FEA1C1CC0D111F4801FD8
:1008A8000BD141EA00014FF000004FF0004CB6E7D1
:1008B80011F4801F04BF01430020B4F1FD0C88BF70
:1008C800BCF5E06F3FF6AFAEB5EB030C04BFB6EB7B
:1008D800020C5FEA500C50F1000041EB045170BD6E
:1008E8000EF0004E4EEA113114EB5C04C2BFD4EB9B
:1008F8000C0541EA045170BD41F480114FF0000E1F
:10090800013C90E645EA060E8DE60CEA135594EA9A
:100918000C0F08BF95EA0C0F3FF43BAF94EA0C0F9D
:100928000AD150EA01347FF434AF95EA0C0F7FF412
:1009380025AF104619462CE795EA0C0F06D152EA66
:1009480003353FF4FDAE1046194622E750EA41064A
:1009580018BF52EA43067FF4C5AE50EA41047FF45B
:100968000DAF52EA43057FF4EBAE12E74FF0FF3CC0
:1009780006E000BF4FF0010C02E000BF4FF0010C91
:100988004DF804CD4FEA410C7FEA6C5C4FEA430C0A
:1009980018BF7FEA6C5C1BD001B050EA410C0CBF59
:1009A80052EA430C91EA030F02BF90EA020F0020BB
:1009B800704710F1000F91EA030F58BF994208BF22
:1009C80090422CBFD8176FEAE37040F001007047DF
:1009D8004FEA410C7FEA6C5C02D150EA013C07D136
:1009E8004FEA430C7FEA6C5CD6D152EA033CD3D081
:1009F8005DF8040B704700BF8446104662468C467B
:100A08001946634600E000BF01B5FFF7B7FF0028AD
:100A180048BF10F1000F01BD4DF808EDFFF7F4FFD6
:100A28000CBF012000205DF808FB00BF4DF808ED61
:100A3800FFF7EAFF34BF012000205DF808FB00BF84
:100A48004DF808EDFFF7E0FF94BF012000205DF8A6
:100A580008FB00BF4DF808EDFFF7CEFF94BF01205B
:100A680000205DF808FB00BF4DF808EDFFF7C4FF54
:100A780034BF012000205DF808FB00BF4FEA4102A7
:100A8800B2F1E04324BFB3F5001CDCF1FE5C0DD9E4
:100A980001F0004C4FEAC0024CEA5070B2F1004F2E
:100AA80040EB830008BF20F00100704711F0804F31
:100AB80021D113F13872BCBF01F00040704741F4F6
:100AC80080114FEA5252C2F11802C2F1200C10FAFA
:100AD8000CF320FA02F018BF40F001004FEAC123DE
:100AE8004FEAD32303FA0CFC40EA0C0023FA02F382
:100AF8004FEA4303CCE77FEA625307D150EA013358
:100B08001EBF4FF0FE4040F44000704701F0004027
:100B180040F0FE4040F40000704700BF80F0004005
:100B280002E000BF81F0004142001FBF5FEA4103BD
:100B380092EA030F7FEA226C7FEA236C6AD04FEABD
:100B48001262D2EB1363C1BFD21841404840414002
:100B5800B8BF5B42192B88BF704710F0004F40F4B4
:100B6800000020F07F4018BF404211F0004F41F4D0
:100B7800000121F07F4118BF494292EA030F3FD09C
:100B8800A2F1010241FA03FC10EB0C00C3F12003AF
:100B980001FA03F100F0004302D5494260EB40003E
:100BA800B0F5000F13D3B0F1807F06D340084FEAA9
:100BB800310102F10102FE2A51D2B1F1004F40EB9E
:100BC800C25008BF20F0010040EA03007047490006
:100BD80040EB0000013A28BFB0F5000FEDD2B0FAA3
:100BE80080FCACF1080CB2EB0C0200FA0CF0AABFC6
:100BF80000EBC25052421843BCBFD0401843704764
:100C080092F0000F81F4000106BF80F40000013269
:100C1800013BB5E74FEA41037FEA226C18BF7FEA40
:100C2800236C21D092EA030F04D092F0000F08BF82
:100C38000846704790EA010F1CBF0020704712F069
:100C48007F4F04D1400028BF40F00040704712F1A8
:100C580000723CBF00F50000704700F0004343F00D
:100C6800FE4040F4000070477FEA226216BF084643
:100C78007FEA23630146420206BF5FEA412390EA06
:100C8800010F40F4800070474FF0000304E000BFFC
:100C980010F0004348BF40425FEA000C08BF7047AD
:100CA80043F0964301464FF000001CE050EA010271
:100CB80008BF70474FF000030AE000BF50EA010286
:100CC80008BF704711F0004302D5404261EB410173
:100CD8005FEA010C02BF84460146002043F0B64398
:100CE80008BFA3F18053A3F50003BCFA8CF2083ABD
:100CF800A3EBC25310DB01FA02FC634400FA02FCC6
:100D0800C2F12002BCF1004F20FA02F243EB0200CC
:100D180008BF20F00100704702F1200201FA02FC2E
:100D2800C2F1200250EA4C0021FA02F243EB020021
:100D380008BF20EADC7070474FF0FF0C1CEAD05265
:100D48001EBF1CEAD15392EA0C0F93EA0C0F6FD026
:100D58001A4480EA010C400218BF5FEA41211ED004
:100D68004FF0006343EA501043EA5111A0FB0131F0
:100D78000CF00040B1F5000F3EBF490041EAD371C5
:100D88005B0040EA010062F17F02FD2A1DD8B3F141
:100D9800004F40EBC25008BF20F00100704790F0B0
:100DA800000F0CF0004C08BF49024CEA502040EA02
:100DB80051207F3AC2BFD2F1FF0340EAC2507047C8
:100DC80040F400004FF00003013A5DDC12F1190F06
:100DD800DCBF00F000407047C2F10002410021FA78
:100DE80002F1C2F1200200FA02FC5FEA310040F190
:100DF800000053EA4C0308BF20EADC70704792F009
:100E0800000F00F0004C02BF400010F4000F013A40
:100E1800F9D040EA0C0093F0000F01F0004C02BF3B
:100E2800490011F4000F013BF9D041EA0C018FE7AA
:100E38000CEAD15392EA0C0F18BF93EA0C0F0AD0B0
:100E480030F0004C18BF31F0004CD8D180EA0100D6
:100E580000F00040704790F0000F17BF90F0004F6F
:100E6800084691F0000F91F0004F14D092EA0C0F51
:100E780001D142020FD193EA0C0F03D14B0218BFE4
:100E8800084608D180EA010000F0004040F0FE402A
:100E980040F40000704740F0FE4040F440007047C6
:100EA8004FF0FF0C1CEAD0521EBF1CEAD15392EA45
:100EB8000C0F93EA0C0F69D0A2EB030280EA010C35
:100EC80049024FEA402037D04FF0805343EA1111CE
:100ED80043EA10130CF000408B4238BF5B0042F12C
:100EE8007D024FF4000C8B4224BF5B1A40EA0C00D1
:100EF800B3EB510F24BFA3EB510340EA5C00B3EB03
:100F0800910F24BFA3EB910340EA9C00B3EBD10FF0
:100F180024BFA3EBD10340EADC001B0118BF5FEA42
:100F28001C1CE0D1FD2A3FF650AF8B4240EBC2506B
:100F380008BF20F0010070470CF0004C4CEA50202C
:100F48007F32C2BFD2F1FF0340EAC250704740F47B
:100F580000004FF00003013A37E792F0000F00F06D
:100F6800004C02BF400010F4000F013AF9D040EAEB
:100F78000C0093F0000F01F0004C02BF490011F47F
:100F8800000F013BF9D041EA0C0195E70CEAD15377
:100F980092EA0C0F08D142027FF47DAF93EA0C0F5E
:100FA8007FF470AF084676E793EA0C0F04D14B0242
:100FB8003FF44CAF08466EE730F0004C18BF31F0F4
:100FC800004CCAD130F000427FF45CAF31F00043EE
:100FD8007FF43CAF5FE700BF4FF0FF3C06E000BF87
:100FE8004FF0010C02E000BF4FF0010C4DF804CDAA
:100FF8004FEA40024FEA41037FEA226C18BF7FEABA
:10100800236C11D001B052EA530C18BF90EA010FBB
:1010180058BFB2EB030088BFC81738BF6FEAE1704A
:1010280018BF40F0010070477FEA226C02D15FEAE6
:10103800402C05D17FEA236CE4D15FEA412CE1D052
:101048005DF8040B704700BF844608466146FFE719
:101058000FB5FFF7C9FF002848BF10F1000F0FBDFB
:101068004DF808EDFFF7F4FF0CBF012000205DF8F4
:1010780008FB00BF4DF808EDFFF7EAFF34BF012079
:1010880000205DF808FB00BF4DF808EDFFF7E0FF12
:1010980094BF012000205DF808FB00BF4DF808ED63
:1010A800FFF7D2FF94BF012000205DF808FB00BFC6
:1010B8004DF808EDFFF7C8FF34BF012000205DF8A8
:1010C80008FB00BF4FEA4002B2F1FE4F0FD34FF0CA
:1010D8009E03B3EB12620DD94FEA002343F000439D
:1010E80010F0004F23FA02F018BF404270474FF04B
:1010F8000000704712F1610F01D1420205D110F0D2
:10110800004008BF6FF0004070474FF00000704784
:1011180053B94AB9002908BF00281CBF4FF0FF3156
:101128004FF0FF3000F074B9ADF1080C6DE904CE52
:1011380000F006F8DDF804E0DDE9022304B07047AA
:101148002DE9F047089E0D4604468846002B4DD1F0
:101158008A42944668D9B2FA82F252B101FA02F38D
:10116800C2F1200120FA01F10CFA02FC41EA03085D
:1011780094404FEA1C45210CB8FBF5FE1FFA8CF78A
:1011880005FB1E8341EA03430EFB07F199420BD985
:101198001CEB03030EF1FF3080F01E81994240F2F0
:1011A8001B81AEF1020E63445B1AA4B2B3FBF5F0E7
:1011B80005FB103344EA034400FB07F7A7420AD9AA
:1011C8001CEB040400F1FF3380F00881A74240F2D1
:1011D800058164440238E41B40EA0E4000211EB138
:1011E800D4400023C6E90043BDE8F0878B4208D904
:1011F800002E00F0EE800021C6E900050846BDE893
:10120800F087B3FA83F100294AD1AB4202D3824274
:1012180000F2F980841A65EB030301209846002E3A
:10122800E2D0C6E90048DFE702B9FFDEB2FA82F28F
:10123800002A40F09180A1EB0C054FEA1C471FFAE9
:101248008CFE0121B5FBF7F307FB1350250C45EA8B
:1012580000450EFB03F0A84208D91CEB050503F175
:10126800FF3802D2A84200F2CB8043462D1AA4B21E
:10127800B5FBF7F007FB105544EA05440EFB00FEEA
:10128800A64508D91CEB040400F1FF3502D2A64597
:1012980000F2BB802846A4EB0E0440EA03409EE718
:1012A800C1F120078B4022FA07FC4CEA030C20FA14
:1012B80007F405FA01F31C43FD404FEA1C4900FA04
:1012C80001F3B5FBF9F8200C1FFA8CFE09FB185541
:1012D80040EA054508FB0EF0A84202FA01F20BD9D4
:1012E8001CEB050508F1FF3A80F08880A84240F21F
:1012F8008580A8F1020865442D1AA4B2B5FBF9F05F
:1013080009FB105544EA054500FB0EFEAE4508D919
:101318001CEB050500F1FF346CD2AE456AD90238E2
:10132800654440EA0840A0FB0294A5EB0E05A542DF
:10133800C846A64656D353D05EB1B3EB080265EB58
:101348000E0505FA07F722FA01F3CD401F43C6E957
:1013580000750021BDE8F087C2F1200320FA03F1EF
:101368000CFA02FC25FA03F395400D434FEA1C479B
:101378001FFA8CFEB3FBF7F107FB11302B0C43EA85
:10138800004301FB0EF0984204FA02F408D91CEB62
:10139800030301F1FF382FD298422DD90239634453
:1013A8001B1AADB2B3FBF7F007FB103345EA034550
:1013B80000FB0EF3AB4208D91CEB050500F1FF3822
:1013C80016D2AB4214D902386544ED1A40EA0141FD
:1013D80038E73146304607E78646E5E61846FAE636
:1013E8004B45A9D2B9EB020864EB0C0E0138A3E710
:1013F8004046EAE7204694E74146D1E7D0467BE7F6
:10140800023B654432E7084609E76444023842E78C
:10141800704700BF00B585B0002300930193029385
:1014280003931548154A02604FF480324260836086
:101438000361037680F82030C362114A8262C36078
:101448000122C26180F83030426101F043FC68B982
:10145800042300930123019300230293694606485D
:1014680001F064FC28B905B05DF804FB00F04CFA03
:10147800EEE700F049FAF6E7900800200020014066
:101488000100000F00B589B000230393049305936E
:1014980006930793026803F1804303F590339A4259
:1014A80002D009B05DF804FB0021019103F58C33EB
:1014B8005A6C42F480725A645A6C02F48072019237
:1014C800019A02911A6B42F001021A631B6B03F036
:1014D80001030293029B102303930323049303A99C
:1014E800014801F065FDDCE7000002402DE9F0410C
:1014F80088B00024039404940594069407940094F7
:10150800304B1A6B42F080021A631A6B02F08002A9
:101518000092009A01941A6B42F001021A631A6B46
:1015280002F001020192019A02941A6B42F002023F
:101538001A631B6B03F002030293029B224D22469F
:101548004FF20441284601F01AFE204E22464FF47D
:10155800C051304601F013FEC02303930494059450
:1015680003A9304601F024FD032303930494059452
:1015780003A9284601F01CFD44F204430393012704
:1015880004970594069403A9284601F011FD4FF429
:1015980030430393049705944FF00208CDF8188060
:1015A80003A9284601F004FD4FF4C05303930497A0
:1015B8000594CDF8188003A9304601F0F9FC08B06D
:1015C800BDE8F081003802400004024000000240FB
:1015D80008B50B480B4B03600B4B4360002383603B
:1015E800C3604FF48042026143618361C361036257
:1015F80001F0CCFD00B908BD00F086F9FBE700BF9B
:10160800D808002000540040A086010030B589B0F9
:101618000023039304930593069307930268144BDE
:101628009A4201D009B030BD00250195114C236BB9
:1016380043F002032363236B03F002030193019B2E
:101648004FF4407303931223049303230693042354
:10165800079303A9084801F0ABFC0295236C43F4F7
:1016680000132364236C03F400130293029BD9E74D
:10167800005400400038024000040240000000000E
:1016880008B5FEF7F7FE06A3D3E90023FFF786F8AF
:101698000022054BFEF758FFFFF7F0F908BD00BF21
:1016A80000000000004CFA4000807640764B8342F0
:1016B80000D070472DE9F04F85B0744B1A68506A16
:1016C80000B2734B1880734B1B685E6A36B272495E
:1016D8000E8072490F687D6A2DB271490D8071497B
:1016E800D1F800C0DCF8244024B26F490C80DFF840
:1016F800BCB1DBF8041041180091CBF80410DFF8F6
:10170800B0A1DAF8041071180191CAF80410DFF8D2
:10171800A491D9F8041069180291C9F80410DFF8E7
:101728009881D8F8041061180391C8F804100021B2
:10173800516259627962CCF82410FFF7A9FA5F491F
:10174800FFF7AEFB5E49FFF7F7FA5E49FFF7F4FAD9
:101758000746CBF80C003046FFF79AFA5749FFF7CF
:101768009FFB5749FFF7E8FA5649FFF7E5FACAF829
:101778000C002846FFF78CFA5049FFF791FB5049B7
:10178800FFF7DAFA4F49FFF7D7FAC9F80C002046F5
:10179800FFF77EFA4949FFF783FB4949FFF7CCFA7F
:1017A8004849FFF7C9FAC8F80C000098FFF768FF26
:1017B800454B18600198FFF763FF444B1860029887
:1017C800FFF75EFF424B18600398FFF759FF414B44
:1017D8001860414A13780133DBB213700A2B02D028
:1017E80005B0BDE8F08F134600221A703B4B1C6809
:1017F8003B492046FFF75CFC00283BD0374B394A71
:101808001A60DFF8E4803A46384B1968404600F021
:101818005FFE374E264BDA68364B1968304600F0C3
:1018280057FE354D234BDA68344B1968284600F0CB
:101838004FFE334C204BDA68324B1968204600F0D3
:1018480047FED8F81C00FFF73DFC00F013FDF069D7
:10185800FFF738FC00B200F037FDE869FFF732FC0B
:1018680000B200F05BFDE069FFF72CFC00B200F06D
:101878007FFDB5E71B492046FFF7FCFB0028C0D0D9
:10188800164B174A1A60BCE7B00B0020480A002024
:101898005E090020D80A002060090020200B0020E3
:1018A80062090020900A0020640900203C0C0020F6
:1018B800500C0020640C0020780C002000008244AA
:1018C80000007A44000070424C09002050090020B2
:1018D8005409002058090020400A0020340900203B
:1018E80000003443000034C3B00900203C09002044
:1018F800D409002040090020F809002044090020EC
:101908001C0A00204809002072B6FEE700B595B011
:101918003022002108A802F07FFF002303930493DC
:1019280005930693079301931F4A116C41F0805168
:101938001164126C02F080520192019A02931B4BBF
:101948001A6842F440421A601B6803F44043029349
:10195800029B012308934FF48033099302230E93CB
:101968004FF480020F920C2210926022119212936F
:101978000423139308A801F0E7FC88B90F23039305
:1019880002230493002305934FF480520692079391
:10199800032103A801F026FF20B915B05DF804FB68
:1019A800FFF7B2FFFFF7B0FF0038024000700040B9
:1019B80000B583B001F0B4F8FFF7A8FFFFF796FD74
:1019C80000F004F900F036F900F066F900F096F935
:1019D80000F01CFB00F0C4F900F08EFBFFF71AFDC5
:1019E800FFF7F6FD3A4C204601F010F800F002FC33
:1019F800384B0193384B0093384B394A39493A48A8
:101A080000F0DEFC01223949204602F0BFFE3848CA
:101A180002F070F83C21374802F0A6FB00F0E6FF20
:101A280007E0354B05221A7000F0D8FE642001F05B
:101A3800A3F800F065FE00F0DDFE304B18700538A5
:101A48000B28F1D801A353F820F000BF2B1A000887
:101A5800851A00088D1A0008951A0008AB1A0008A4
:101A68009D1A0008311A0008311A0008B91A00082E
:101A7800C11A0008C91A0008D11A00081E4B06220C
:101A88001A70D1E71C4B07221A70CDE71A4B0822AF
:101A98001A70C9E71A4C1B492068FFF743F8206001
:101AA800C2E7174C17492068FFF73EF82060BBE7EC
:101AB800154B00221A60B7E7134B144A1A60B3E7B4
:101AC800114B134A1A60AFE70F4B124A1A60ABE783
:101AD800F80B0020680900208C0900201C0A00204F
:101AE800F8090020D4090020B0090020300900209E
:101AF800B00B0020680B00205C0900202C09002096
:101B0800340900200000A040380900200000F041FE
:101B1800000070420000164382B0002100910B4B78
:101B28005A6C42F480425A645A6C02F48042009221
:101B3800009A01911A6C42F080521A641B6C03F0EF
:101B480080530193019B02B0704700BF00380240E8
:101B5800FEE7FEE7FEE7FEE7FEE7704770477047DF
:101B680008B500F0F7FF08BD08B5034802F003F810
:101B7800024802F000F808BD480A0020B00B002017
:101B880010B503460C4A0D490D48006840B10C4891
:101B980000680344521A934206D8094A136010BDDC
:101BA8000748084C0460F2E702F00CFE0C230360BF
:101BB8004FF0FF30F3E700BF0000022000040000F0
:101BC800440A0020E80C00207047000000B58DB0E2
:101BD8002422002103A802F01FFE00230193029390
:101BE8001248134A0260436083604FF6FF72C26076
:101BF80003614361836103230393012305930993DD
:101C080003A902F01BF950B900230193029301A91B
:101C1800064802F087FB28B90DB05DF804FBFFF712
:101C280073FEF1E7FFF770FEF6E700BF480A0020F1
:101C38000000014000B58DB02422002103A802F065
:101C4800EBFD00230193029312484FF0804202609B
:101C5800436083604FF6FF72C260036183610323B0
:101C6800039301230593099303A902F0E7F850B9F8
:101C780000230193029301A9064802F053FB28B9F7
:101C88000DB05DF804FBFFF73FFEF1E7FFF73CFE00
:101C9800F6E700BF900A002000B58DB0242200218D
:101CA80003A802F0B9FD0023019302931148124AD8
:101CB8000260436083604FF6FF72C2600361836114
:101CC8000323039301230593099303A902F0B6F8AC
:101CD80050B900230193029301A9064802F022FBA0
:101CE80028B90DB05DF804FBFFF70EFEF1E7FFF72A
:101CF8000BFEF6E7D80A00200004004000B58DB0BE
:101D08002422002103A802F087FD002301930293F7
:101D18001148124A0260436083604FF6FF72C26046
:101D280003618361012303930593099303A902F0D7
:101D380085F850B900230193029301A9064802F0DF
:101D4800F1FA28B90DB05DF804FBFFF7DDFDF1E706
:101D5800FFF7DAFDF6E700BF200B0020000800407F
:101D680000B585B0002300930193029303931048B4
:101D7800104A026063224260836040F2E732C26028
:101D880003618023836102F001F850B94FF4805356
:101D980000936946064802F059F928B905B05DF87C
:101DA80004FBFFF7B1FDF1E7FFF7AEFDF6E700BF73
:101DB800B00B00200040014070B58EB0002309939D
:101DC8000A930B930C930D9303685A4A93420BD0D2
:101DD800B3F1804F33D0584A934266D0574A934262
:101DE80000F085800EB070BD00250095544B5A6CEC
:101DF80042F001025A645A6C02F001020092009A01
:101E080001951A6B42F001021A631B6B03F0010380
:101E18000193019B4FF44073099302230A93012411
:101E28000B940D9409A9474801F0C2F82A462146A7
:101E3800182001F063F8182001F098F8D2E7002480
:101E4800029403F50E331A6C42F001021A641A6CFC
:101E580002F001020292029A03941A6B42F0010204
:101E68001A631A6B02F001020392039A04941A6B24
:101E780042F002021A631B6B03F002030493049BF3
:101E88002023099302260A9601250D9509A92D48B4
:101E980001F08EF8082309930A960B940C940D957B
:101EA80009A9294801F084F89CE700210591244BF1
:101EB8001A6C42F002021A641A6C02F002020592CD
:101EC800059A06911A6B42F002021A631B6B03F023
:101ED80002030693069B3023099302230A930122E7
:101EE8000B920D9309A9184801F062F87AE70021CE
:101EF8000791134B1A6C42F004021A641A6C02F030
:101F080004020792079A08911A6B42F002021A63B8
:101F18001B6B03F002030893089BC0230993022359
:101F28000A9301220B920D9309A9074801F040F882
:101F380058E700BF000001400004004000080040CE
:101F480000380240000002400004024000B583B09F
:101F58000368154A934205D0144A93420FD003B040
:101F68005DF804FB00230093114B1A6C42F0080241
:101F78001A641B6C03F008030093009BEFE7002230
:101F880001920B4B596C41F4803159645B6C03F43A
:101F980080330193019B0121182000F0AFFF182026
:101FA80000F0E4FFDBE700BF000C00400040014008
:101FB8000038024000B587B00023019302930393D1
:101FC8000493059302680E4B9A4202D007B05DF85D
:101FD80004FB002300930B4B1A6B42F001021A63B7
:101FE8001B6B03F001030093009B0F230193022353
:101FF8000293059301A9044800F0DAFFE6E700BF61
:10200800000C0040003802400000024000B58FB0CC
:1020180000230A930B930C930D9308930993019350
:102028000293039304930593069307933048314A28
:10203800026009224260836040F2E732C2600361B5
:102048008023836101F0A2FE002839D14FF4805328
:102058000A930AA9264801F0F9FF002833D1244839
:1020680001F0C0FE002831D100230893099308A984
:102078001F4802F057F960BB6023019300220292C7
:102088000392059201A91A4801F066FF20BB0422B9
:102098000DEB0201164801F05FFF00BB082201A901
:1020A800134801F059FFE8B90C2201A9104801F0C2
:1020B80053FFD0B90E48FFF77DFF0FB05DF804FB62
:1020C800FFF722FCC2E7FFF71FFCC8E7FFF71CFC7D
:1020D800CAE7FFF719FCCFE7FFF716FCD7E7FFF7CA
:1020E80013FCDBE7FFF710FCDEE7FFF70DFCE1E789
:1020F800680B0020000C004008B50A480A4B036032
:102108004FF4E133436000238360C36003610C2212
:1021180042618361C36102F011FA00B908BDFFF79B
:10212800F3FBFBE7F80B00200010014000B589B075
:10213800002303930493059306930793026803F11E
:10214800804303F588339A4202D009B05DF804FB56
:102158000021019103F594335A6C42F010025A643D
:102168005A6C02F010020192019A02911A6B42F025
:1021780001021A631B6B03F001030293029B4FF4E5
:10218800044303930223049303230693072307932B
:1021980003A9024800F00CFFD7E700BF0000024087
:1021A800DFF834D00D480E490E4A002302E0D45817
:1021B800C4500433C4188C42F9D30B4A0B4C002387
:1021C80001E013600432A242FBD3FFF7FDFC02F0EA
:1021D800FFFAFFF7EDFB7047000002200000002027
:1021E800740800207C59000874080020E80C0020BE
:1021F800FEE7000070B5194E3C21304602F02CF87D
:10220800174D3C21284602F027F8164C3C21204661
:1022180002F022F83268D36843F00103D3602A68D9
:10222800D36843F00103D3602268D36843F0010305
:10223800D3600D4A00231360536013810021D160DD
:1022480013740A4A136053601381D1601374084AE7
:10225800136053601381D160137470BD480A002065
:10226800D80A0020200B00203C0C0020500C002035
:10227800640C002038B5041E10DB114D00224FF409
:102288000041284600F07BFF01224FF48041284698
:1022980000F075FF0B4B1B681C6438BD084D01220C
:1022A8004FF40041284600F06AFF00224FF48041B5
:1022B800284600F064FF034B1B6864421C64ECE78B
:1022C80000040240680B002038B5041E10DB114DD5
:1022D80000224FF40051284600F051FF01224FF42C
:1022E8008051284600F04BFF0B4B1B689C6338BDA0
:1022F800084D01224FF40051284600F040FF00220B
:102308004FF48051284600F03AFF034B1B686442A3
:102318009C63ECE700040240680B002038B5041EFB
:1023280010DB114D01224FF48051284600F027FFA1
:1023380000224FF40061284600F021FF0B4B1B6878
:10234800DC6338BD084D00224FF48051284600F068
:1023580016FF01224FF40061284600F010FF034BDE
:102368001B686442DC63ECE700000240680B002055
:1023780038B5041E0FDB104D01220421284600F059
:10238800FEFE00224FF48061284600F0F8FE0B4B59
:102398001B685C6338BD084D00220421284600F004
:1023A800EEFE01224FF48061284600F0E8FE034B60
:1023B8001B6864425C63EDE700040240680B002080
:1023C8002DE9F041069D079C4FF0000CC0F80CC0A9
:1023D800C0F814C0DFF8D080C0F81880DFF8CCE06F
:1023E800C0F820E0C0F810C0C0F81CC0304F07602B
:1023F800C0F804C02F4E8660C1F80CC0C1F814C0E4
:102408002D488861C1F820E0C1F810C0C1F81CC08F
:102418002A480860C1F804C08E60C2F80CC0C2F82F
:1024280014C0C2F81880C2F820E0C2F810C0C2F880
:102438001CC01760C2F804C09660C3F80CC0C3F88B
:1024480014C0C3F81880C3F820E0C3F810C0C3F85C
:102458001CC01F60C3F804C09E60C5F80CC0C5F856
:1024680014C0174BAB61C5F820E0C5F810C0C5F81B
:102478001CC0C5F800C0C5F804C0C5F808C0C4F839
:102488000CC0C4F814C00F4BA3610F4B2362C4F8EF
:1024980010C0C4F81CC00D4B2360C4F804C0C4F8B5
:1024A80008C0BDE8F08100BF00409C4500401C46C4
:1024B80085EB3140068135410000FA4385EB114038
:1024C8000000484400004842000002431F858B3F3B
:1024D8002DE9F04704460D4611462846FEF722FB33
:1024E800E060FDF7D9FF06460F464DA3D3E9002368
:1024F800FEF79CFA48B14CA3D3E90023304639468D
:10250800FEF7B2FA08B10023E360E768616938466C
:10251800FEF70AFB6061D4F804804146FEF70CFC24
:102528000646D4F818A00AF100494946FEF7A2FD6C
:10253800002840D041464846FEF7B2FC60610021C1
:102548002846FEF78DFD08B10023636121683846EF
:10255800FEF7F2FB064661694046FEF7EDFB0146D1
:102568003046FEF7E1FA0646D4F808802169384675
:10257800FEF7D8FA01464046FEF7DEFB0146304634
:10258800FEF7D2FAE169FEF7CFFA0646E0610021CC
:102598002846FEF783FD38B300213046FEF76AFD72
:1025A800A8B9D4F8208041463046FEF781FD80B1B5
:1025B800C4F81C800DE051463046FEF779FD00282E
:1025C800BDD041465046FEF76BFC6061B7E700237B
:1025D800E361276100212846FEF742FD08B1002388
:1025E800E361E069BDE8F08700212846FEF742FD77
:1025F8000028EED0D4F8208008F100484146304643
:10260800FEF738FD10B1C4F81C80E2E7002130461F
:10261800FEF74EFD0028DCD00023E361D9E700BFB8
:102628007B14AE47E17A843F7B14AE47E17A84BFDE
:1026380010B5044601F086F9054BA3FB00231B0DDA
:1026480004FB03F003460138002BFBD110BD00BF8B
:1026580083DE1B4330B583B005460123ADF8063051
:10266800244A00215170ADF806300CE00022802188
:10267800214800F084FD14E0BDF806309BB25B00F1
:102688009BB2ADF80630BDF806309BB2FF2B2CD8B4
:10269800BDF806301D42E9D001228021164800F01D
:1026A8006EFD164C01220221204600F068FD05202F
:1026B800FFF7BEFF00220221204600F060FD052042
:1026C800FFF7B6FF01220221204600F058FD402105
:1026D800094800F04DFD0028CED0BDF806309AB26A
:1026E80004494B7813434B70C6E71020FFF7A0FF4F
:1026F80003B030BD8C0C00200000024000040240F2
:1027080010B582B000228DF807200121ADF8041021
:102718002E4800F034FD2E4C2078FFF79BFF6078A0
:10272800FFF798FF02238DF807303EE0BDF804302C
:102738009BB25B009BB2ADF80430BDF804309BB28D
:10274800FF2B29D8214C01220221204600F017FD39
:102758000520FFF76DFF00220221204600F00FFD43
:102768000520FFF765FF01220221204600F007FD42
:102778004021184800F0FCFC0028D7D0BDF8042000
:1027880091B29DF80730DBB21348C25C9DF8073060
:10279800DBB20A43C254C9E71020FFF749FF9DF88E
:1027A80007300133DBB28DF807309DF80730DBB214
:1027B800082B03D80123ADF80430BEE701221146E7
:1027C800024800F0DCFC02B010BD00BF000402406B
:1027D80004000020000002408C0C0020002304E0CC
:1027E800034A0021D1540133DBB2082BF8D97047D2
:1027F8008C0C002008B5FFF7F1FFFFF781FF0D4BA8
:102808001A79D97841EA02210B4B198000230F2B42
:102818000ED80A4A32F81320013A41FA02F212F0AD
:10282800010F02D00133DBB2F1E70133D8B200E087
:10283800002008BD8C0C0020960C00200800002009
:1028480010B5104C00220121204600F098FC102001
:10285800FFF7EEFE0120FFF7FDFE4220FFF7FAFE2C
:102868000020FFF7F7FE0020FFF7F4FE0020FFF737
:10287800F1FE01221146204600F081FC1020FFF7EE
:10288800D7FE10BD0004024010B5164C00220121ED
:10289800204600F074FC1020FFF7CAFE0120FFF765
:1028A800D9FE4320FFF7D6FE0020FFF7D3FE012014
:1028B800FFF7D0FE0020FFF7CDFE0020FFF7CAFE8D
:1028C8000020FFF7C7FE0020FFF7C4FE0020FFF737
:1028D800C1FE01221146204600F051FC1020FFF7EE
:1028E800A7FE10BD0004024010B5154C00220121BE
:1028F800204600F044FC0120FFF7ACFE4420FFF71F
:10290800A9FE0020FFF7A6FE0120FFF7A3FEEE2098
:10291800FFF7A0FE0020FFF79DFE0020FFF79AFEBC
:102928000020FFF797FE0020FFF794FE01221146D2
:10293800204600F024FC1020FFF77AFE10BD00BFEF
:102948000004024010B5104C00220121204600F07E
:1029580016FC1020FFF76CFE0120FFF77BFE4D20D0
:10296800FFF778FE0020FFF775FE0020FFF772FEE4
:102978000120FFF76FFE01221146204600F0FFFB01
:102988001020FFF755FE10BD0004024010B5164C8C
:1029980000220121204600F0F2FB1020FFF748FE3C
:1029A8000120FFF757FE4320FFF754FE0020FFF7F2
:1029B80051FE0020FFF74EFE5A20FFF74BFE5A202B
:1029C800FFF748FE5A20FFF745FE5A20FFF742FE60
:1029D8005A20FFF73FFE01221146204600F0CFFBA8
:1029E8001020FFF725FE10BD0004024008B5FFF7D0
:1029F80027FFFFF725FFFFF723FFFFF745FFFFF747
:102A080073FFFFF79FFFFFF7C1FF08BD08B5054B30
:102A18001860054B1868002302221946806801F0E7
:102A28004DFF08BD980C00203000002010B501387B
:102A380001280AD814464FF0FF3392B207480068BD
:102A480001F0ABFD40B9204610BD01F0BBFE0923E3
:102A580003604FF0FF30F7E70520F5E7980C0020FA
:102A6800022801D80020704708B501F0ABFE092301
:102A780003604FF0FF3008BD08B501F0A3FE09233D
:102A880003604FF0FF3008BD08B548B94FF0FF3379
:102A980001220848006801F0ECFD40B9012008BD9A
:102AA80001F090FE092303604FF0FF30F7E705209F
:102AB800F5E700BF980C002008B5022804D84FF4A9
:102AC80000534B60002008BD01F07CFE0923036021
:102AD800F8E7000010B504460E4B18784FF47A73E7
:102AE800B3FBF0F30C4A1068B0FBF3F000F04CFABB
:102AF80068B90F2C01D901200AE0002221464FF0C5
:102B0800FF3000F0FBF9054B1C60002000E00120BD
:102B180010BD00BF28000020000000202C0000206D
:102B280008B50B4B1A6842F400721A601A6842F42E
:102B380080621A601A6842F480721A60032000F0FA
:102B4800CBF90F20FFF7C6FFFEF7E6FF002008BD10
:102B5800003C0240034A1168034B1B780B44136086
:102B6800704700BF9C0C002028000020014B18680B
:102B7800704700BF9C0C002038B50446FFF7F6FFED
:102B88000546B4F1FF3F02D0044B1B781C44FFF705
:102B9800EDFF401BA042FAD338BD00BF280000203B
:102BA8004A4B5A6822F440325A605A6841680A43CC
:102BB8005A600268536823F480735360026853684C
:102BC800016943EA012353600268536823F04073A4
:102BD80053600268536881680B43536002689368C6
:102BE80023F40063936002689368C1680B439360A1
:102BF800826A374B9A4257D00268936823F0706311
:102C0800936002689368816A0B43936002689368D3
:102C180023F04053936002689368C16A0B43936042
:102C28000268936823F00203936002689368017E48
:102C380043EA4103936090F82030002B3FD00268AC
:102C4800536843F4006353600268536823F4604395
:102C5800536001684B68426A013A43EA42334B6069
:102C68000268D36A23F47003D3620168CB6AC2692D
:102C7800013A43EA0253CB620268936823F4007373
:102C880093600268936890F8301043EA4123936098
:102C98000268936823F480639360026893684169CB
:102CA80043EA8123936070470268936823F0706356
:102CB80093600268936823F040539360B0E702681A
:102CC800536823F400635360CAE700BF0023014040
:102CD8000100000F38B310B50446036C43B1236CF0
:102CE80013F0100F0BD00120002384F83C3010BDE6
:102CF800FEF7C8FB0023636484F83C30EFE7236CDD
:102D080023F4885323F0020343F00203236420468C
:102D1800FFF746FF00206064236C23F0030343F0B1
:102D280001032364E0E701207047000030B482B05B
:102D38000023019390F83C30012B00F0C080012360
:102D480080F83C300B68092B41D90468E2689BB2D3
:102D580003EB43031E3B4FF0070C0CFA03F322EA84
:102D68000303E3600468E2680B8803EB43031E3B3C
:102D78008D6805FA03F31343E3604B68062B3DD8CF
:102D88000468626B03EB8303053B4FF01F0C0CFADE
:102D980003F322EA030363630468626B4B6803EB83
:102DA8008303053BB1F800C00CFA03F313436363D4
:102DB8000268444B9A4251D00268424B9A425AD018
:102DC800002380F83C30184602B030BC70470468D5
:102DD80022699BB203EB43034FF0070C0CFA03F391
:102DE80022EA03032361046822690B8803EB430387
:102DF8008D6805FA03F313432361BEE70C2B16D83D
:102E080005682A6B03EB8303233B1F2404FA03F3AF
:102E180022EA03032B6305682A6B4B6803EB8303E1
:102E2800233B0C8804FA03F313432B63C0E70568BC
:102E3800EA6A03EB8303413B1F2404FA03F322EA03
:102E48000303EB620568EA6A4B6803EB8303413BC3
:102E58000C8804FA03F31343EB62A9E70B68122BFF
:102E6800AAD1194B5A6822F400025A605A6842F4EF
:102E780080025A60A0E70B68144A934201D0112BD4
:102E88009ED1114B5A6822F480025A605A6842F463
:102E980000025A600A680D4B9A4291D10C4B1B688C
:102EA8000C4AA2FB03239B0C03EB83035B000193F7
:102EB800019B002B84D0019B013B0193F8E7022082
:102EC80082E700BF002001400023014012000010EB
:102ED8000000002083DE1B43074AD36823F4E06325
:102EE8001B041B0C000200F4E060034343F0BF63C3
:102EF80043F40033D360704700ED00E000B5194B90
:102F0800DB68C3F30223C3F1070CBCF1040F28BF2D
:102F18004FF0040C03F1040EBEF1060F18D9033B61
:102F28004FF0FF3E0EFA0CFC21EA0C0199400EFA14
:102F380003F322EA0303194300280BDB0901C9B292
:102F480000F1604000F5614080F800135DF804FB73
:102F58000023E5E700F00F000901C9B2024B19543C
:102F6800F4E700BF00ED00E014ED00E0002807DB07
:102F780000F01F02400901239340024A42F8203022
:102F8800704700BF00E100E00138B0F1807F0BD24C
:102F98004FF0E0235861054AF02182F82310002001
:102FA800986107221A6170470120704700ED00E020
:102FB80000230F2B00F2D28070B582B060E08568E4
:102FC8005E000324B44025EA0405CC68B4402C43D1
:102FD8008460456825EA02054C68C4F300129A40EB
:102FE8002A4342605AE0DC08083450F8246003F0B1
:102FF800070295000F22AA4026EA020E0A69AA4093
:1030080042EA0E0240F824205CE0042200E000229C
:1030180002FA0EF22A430234514D45F82420514A4F
:1030280014686FEA0C0224EA0C054E6816F4803F17
:1030380001D04CEA04054B4C2560646802EA04059B
:103048004E6816F4003F01D04CEA0405454C656013
:10305800A46802EA04054E6816F4801F01D04CEA01
:103068000405404CA560E46822404D6815F4001F33
:1030780001D04CEA04023B4CE26001330F2B6BD8C1
:1030880001229A400C6804EA020C32EA0404F4D1E2
:103098004C6804F00304013C012C90D94A6802F002
:1030A8000302032A09D0C4685D000322AA4024EA67
:1030B80002048A68AA402243C2604A6802F00302F6
:1030C800022A90D004684FEA430E032202FA0EF255
:1030D80024EA02044A6802F0030202FA0EF22243CA
:1030E80002604A6812F4403FC7D0002201921E4A8B
:1030F800546C44F480445464526C02F4804201924B
:10310800019A9C08A51C164A52F8255003F00302A0
:103118004FEA820E0F2202FA0EF225EA0205134A3E
:1031280090423FF474AF02F5806290420ED002F5EF
:10313800806290420CD002F5806290420AD002F57B
:10314800806290423FF461AF072261E701225FE7A6
:1031580002225DE703225BE702B070BD704700BF43
:1031680000380140003C01400038024000000240A5
:103178000369194201D001207047002070470AB145
:10318800816170470904816170470000002800F0E0
:10319800CC8070B5044690F83D30002B77D02423BE
:1031A80084F83D302268136823F001031360226815
:1031B800136843F4004313602268136823F4004340
:1031C800136000F0C5FB62685A4B9A4264D85A4BA8
:1031D80098428CBF00230123002B40F0A880574958
:1031E800A1FB00318B0C25686A6822F03F0242EA95
:1031F80091426A6021680A6A22F03F0266684D4D72
:10320800AE424FD8013313430B622168CA6922F4D6
:103218004F4222F0FF026668464B9E424CD8431E3E
:103228007600B3FBF6F3013340F6FC70034278D026
:10323800C3F30B031343CB6121680B6823F0C0036E
:10324800E269206A024313430B6021688B6823F408
:10325800034323F0FF032269E068024313438B60B2
:103268002168CB6823F0FF036269A0690243134316
:10327800CB602268136843F00103136000202064C8
:10328800202384F83D30206384F83E0070BD80F828
:103298003C30FEF7BBF982E7294B98428CBF0023EC
:1032A800012399E74FF4967505FB03F3254DA5FB1C
:1032B80003539B090133A6E7A368BBB9451E06EB78
:1032C800460CB5FBFCF50135C5F30B05B5FA85F5DC
:1032D8006D0945BBC3B9013806EB4603B0FBF3F3F0
:1032E8000133C3F30B0343F40043A3E7451E06EB86
:1032F800860C0CEB8C0CB5FBFCF50135C5F30B0506
:10330800B5FA85F56D09E4E7013806EB860303EBAA
:103318008303B0FBF3F30133C3F30B0343F44043DC
:1033280088E7042386E7012384E70120704701200A
:10333800ACE700BFA08601007F841E0083DE1B432C
:10334800FF083D00D34D6210002800F0E08170B501
:1033580082B00446036813F0010F3BD09F4B9B6873
:1033680003F00C03042B2CD09C4B9B6803F00C033C
:10337800082B21D06368B3F5803F4FD0B3F5A02F59
:1033880052D0964B1A6822F480321A601A6822F4D6
:1033980080221A606368002B50D0FFF7E7FB0546D0
:1033A8008E4B1B6813F4003F14D1FFF7DFFB401B63
:1033B8006428F5D90320B1E1884B5B6813F4800FCA
:1033C800D8D0864B1B6813F4003F03D06368002BEA
:1033D80000F09F81236813F0020F54D07F4B9B6845
:1033E80013F00C0F3ED07D4B9B6803F00C03082BA9
:1033F80033D0E368002B68D0794B01221A60FFF7BD
:10340800B5FB0546754B1B6813F0020F54D1FFF747
:10341800ADFB401B0228F5D903207FE16F4A1368F2
:1034280043F480331360B5E76C4B1A6842F480228A
:103438001A601A6842F480321A60ABE7FFF796FB0D
:103448000546664B1B6813F4003FC3D0FFF78EFB9D
:10345800401B6428F5D9032060E1604B5B6813F4D6
:10346800800FC6D15D4B1B6813F0020F03D0E368D1
:10347800012B40F05081594A136823F0F803216961
:1034880043EAC1031360236813F0080F42D063694D
:103498006BB3534B0122C3F8802EFFF767FB054639
:1034A8004E4B5B6F13F0020F34D1FFF75FFB401BED
:1034B8000228F5D9032031E1484A136823F0F803BC
:1034C800216943EAC1031360DDE7454B00221A6016
:1034D800FFF74CFB0546414B1B6813F0020FD2D097
:1034E800FFF744FB401B0228F5D9032016E13C4BAB
:1034F8000022C3F8802EFFF739FB0546374B5B6F78
:1035080013F0020F06D0FFF731FB401B0228F5D954
:10351800032003E1236813F0040F77D02F4B1B6CB3
:1035280013F0805F33D1002301932C4B1A6C42F0C7
:1035380080521A641B6C03F080530193019B012590
:10354800284B1B6813F4807F23D0A368012B34D049
:10355800052B38D0214B1A6F22F001021A671A6F17
:1035680022F004021A67A368002B3DD0FFF7FEFA89
:1035780006461A4B1B6F13F0020F46D1FFF7F6FAF7
:10358800801B41F288339842F3D90320C6E0002516
:10359800D6E7144A136843F480731360FFF7E6FA1A
:1035A8000646104B1B6813F4807FCED1FFF7DEFA76
:1035B800801B0228F5D90320B0E0084A136F43F0B6
:1035C80001031367CFE7054B1A6F42F004021A672D
:1035D8001A6F42F001021A67C5E700BF00380240BF
:1035E8000000474200700040FFF7C0FA0646524B01
:1035F8001B6F13F0020F08D0FFF7B8FA801B41F2D7
:1036080088339842F3D9032088E0EDB9A369002BE9
:1036180000F08380484A926802F00C02082A51D0D0
:10362800022B17D0454B00221A66FFF79FFA044673
:10363800414B1B6813F0007F42D0FFF797FA001B3D
:103648000228F5D9032069E03B4A136C23F0805324
:103658001364DBE7394B00221A66FFF787FA054641
:10366800354B1B6813F0007F06D0FFF77FFA401B2D
:103678000228F5D9032051E0E369226A1343626AFC
:1036880043EA8213A26A5208013A43EA0243E26A11
:1036980043EA0263284A5360284B01221A66FFF75F
:1036A80065FA0446244B1B6813F0007F06D1FFF728
:1036B8005DFA001B0228F5D903202FE000202DE039
:1036C80000202BE0012B2BD01B4B5B6803F48001FF
:1036D800E269914226D103F03F02216A8A4223D14E
:1036E800616A47F6C0721A40B2EB811F1ED103F41B
:1036F8004031A26A5208013AB1EB024F18D103F0E7
:103708007063E26AB3EB026F14D1002006E0012077
:103718007047012002E0012000E0002002B070BDE7
:103728000120FBE70120F9E70120F7E70120F5E791
:103738000120F3E70120F1E700380240000047428A
:1037480008B5254B9B6803F00C03042B3FD0082BCE
:103758003FD1214B5A6802F03F025B6813F4800F97
:1037680012D01D4B5968C1F388111C480023A1FBD6
:103778000001FDF7CDFC184B5B68C3F3014301332F
:103788005B00B0FBF3F025E0134B5968C1F3881CCC
:103798004FEA4C11B1EB0C006EEB0E0E4FEA8E1394
:1037A80043EA90638101091A63EB0E03DB0043EAE5
:1037B8005173C90011EB0C0C43F10003990200236B
:1037C8004FEA8C2041EA9C51FDF7A2FCD3E703485D
:1037D80000E0034808BD00BF0038024040787D0182
:1037E8000024F400002800F09B8070B50D460446C4
:1037F8004F4B1B6803F007038B4208D2CBB24C4AED
:103808001370136803F007038B4240F08B80236822
:1038180013F0020F17D013F0040F04D0454A936831
:1038280043F4E0539360236813F0080F04D0414A2F
:10383800936843F4604393603E4A936823F0F0032F
:10384800A1680B439360236813F0010F32D06368BB
:10385800012B21D09A1E012A25D9364A126812F066
:10386800020F61D033498A6822F0030213438B6048
:10387800FFF77CF906462F4B9B6803F00C03626840
:10388800B3EB820F16D0FFF771F9801B41F2883332
:103898009842F0D9032042E0264A126812F4003F09
:1038A800E0D101203BE0234A126812F0007FD9D111
:1038B800012034E01E4B1B6803F00703AB4207D915
:1038C800EAB21B4B1A701B6803F00703AB422DD1F9
:1038D800236813F0040F06D0164A936823F4E053C4
:1038E800E1680B439360236813F0080F07D0114A6F
:1038F800936823F46043216943EAC1039360FFF7A7
:103908001FFF0C4B9B68C3F303130B4AD35CD840CF
:103918000A4B18600A4B1868FFF7DCF8002070BDE6
:10392800012070470120FAE70120F8E70120F6E7B7
:10393800003C0240003802404C59000800000020BA
:103948002C000020014B1868704700BF00000020C1
:1039580008B5FFF7F7FF044B9B68C3F38223034ABC
:10396800D35CD84008BD00BF003802405C5900084D
:1039780008B5FFF7E7FF044B9B68C3F34233034ADC
:10398800D35CD84008BD00BF003802405C5900082D
:1039980070B4036A23F001030362036A466882690C
:1039A80022F073020C6844EA020523F002028B68D5
:1039B80013430D4CA04209D00B4CA0420DD04660D9
:1039C80085614A684263036270BC704723F008034C
:1039D800CA68134323F00403EEE726F440764A69E5
:1039E80032438E691643EAE70000014030B4036AA7
:1039F80023F480730362036A4568C26922F0730284
:103A08000C68224323F400738C6843EA04230F4CA8
:103A1800A04209D00D4CA0420ED04560C2614A6850
:103A2800C263036230BC704723F40063CC6843EA86
:103A3800042323F48063EDE725F440554C6945EAF7
:103A480004158C6945EA0415E7E700BF000001404A
:103A580030B4036A23F480530362036A4468C2697A
:103A680022F4E6420D6842EA052223F400538D68E9
:103A780043EA0533074DA84206D04460C2614A684C
:103A88000264036230BC704724F480444D6944EA00
:103A98008514F2E70000014010B4036A046A24F0B8
:103AA80001040462846924F0F00C4CEA021223F049
:103AB8000A030B438261036210BC704710B4046AA6
:103AC80024F0100404628469036A24F4704C4CEAFC
:103AD800023223F0A00343EA01138261036210BC9F
:103AE8007047836823F070030B4343F00703836038
:103AF8007047000090F83D30DBB2012B2FD1022334
:103B080080F83D300268D36843F00103D36003684E
:103B1800154A934218D0B3F1804F15D0A2F57C42D4
:103B2800934211D002F5806293420DD002F5806273
:103B3800934209D002F59A32934205D01A6842F0AE
:103B480001021A60002070479A6802F00702062AEC
:103B580007D01A6842F001021A600020704701205D
:103B680070470020704700BF000001407047704751
:103B780070477047704710B5044603681A6912F019
:103B8800020F11D0DA6812F0020F0DD06FF00202A6
:103B98001A610123037703689B6913F0030F70D040
:103BA800FFF7E6FF0023237723681A6912F0040F52
:103BB80012D0DA6812F0040F0ED06FF004021A6106
:103BC8000223237723689B6913F4407F5FD0204644
:103BD800FFF7CEFF0023237723681A6912F0080F36
:103BE80012D0DA6812F0080F0ED06FF008021A61CE
:103BF800042323772368DB6913F0030F4ED0204694
:103C0800FFF7B6FF0023237723681A6912F0100F15
:103C180012D0DA6812F0100F0ED06FF010021A618D
:103C2800082323772368DB6913F4407F3DD02046BF
:103C3800FFF79EFF0023237723681A6912F0010F0C
:103C480003D0DA6812F0010F36D123681A6912F02E
:103C5800800F03D0DA6812F0800F34D123681A6914
:103C680012F0400F03D0DA6812F0400F32D1236807
:103C78001A6912F0200F03D0DA6812F0200F30D141
:103C880010BDFFF774FF2046FFF773FF8AE7204651
:103C9800FFF76DFF2046FFF76CFF9BE72046FFF715
:103CA80066FF2046FFF765FFACE72046FFF75FFF9A
:103CB8002046FFF75EFFBDE76FF001021A6120465C
:103CC800FDF7F4FCC1E76FF080021A61204600F0AE
:103CD80068FBC3E76FF040021A612046FFF74AFF0E
:103CE800C5E76FF020021A61204600F059FBC7E7CC
:103CF8000368254A90420ED0B0F1804F0BD0A2F550
:103D08007C42904207D002F58062904203D002F5CF
:103D18008062904203D123F070034A6813431A4A21
:103D280090421AD0B0F1804F17D0A2F57C42904251
:103D380013D002F5806290420FD002F58062904263
:103D48000BD002F59A32904207D002F58062904279
:103D580003D002F58062904203D123F44073CA680D
:103D6800134323F080034A69134303608B68C362DB
:103D78000B688362044B984202D001234361704769
:103D88000B690363F9E700BF0000014040B310B5B9
:103D9800044690F83D30F3B1022384F83D302146C3
:103DA80051F8040BFFF7A4FF012384F8463084F888
:103DB8003E3084F83F3084F8403084F8413084F84D
:103DC800423084F8433084F8443084F8453084F82D
:103DD8003D30002010BD80F83C30FEF7B7F8DBE737
:103DE8000120704740B310B5044690F83D30F3B158
:103DF800022384F83D30214651F8040BFFF778FF81
:103E0800012384F8463084F83E3084F83F3084F843
:103E1800403084F8413084F8423084F8433084F8E4
:103E2800443084F8453084F83D30002010BD80F8D7
:103E38003C30FFF79BFEDBE701207047002857D096
:103E480070B50D46044690F83D30002B4BD0022348
:103E580084F83D302268936823F4804323F00703F5
:103E68009360214651F8040BFFF742FF21688A68E6
:103E78008B690E6A2868104323F4407C2CF0030CED
:103E8800AA68AB6942EA032343EA0C0323F47C43A0
:103E980023F0FC03EA69D5F80CC04CEA022C4CEA82
:103EA800030C2A6A13032A6943EA021343EA0C0340
:103EB80026F0AA066A686D6942EA051232438860EC
:103EC80021688B6123681A62012384F8463084F8DC
:103ED8003E3084F83F3084F8423084F8433084F828
:103EE8003D30002070BD80F83C30FDF765FFAEE73F
:103EF8000120704730B4036A23F010030362036A99
:103F08004468826922F4E6420D6842EA052223F0F9
:103F180020038D6843EA05130E4DA84209D00D4DC4
:103F2800A8420ED0446082614A688263036230BC52
:103F3800704723F08003CD6843EA051323F040035C
:103F4800EDE724F440644D6944EA85048D6944EA48
:103F58008504E7E70000014038B590F83C30012BB4
:103F680066D004460D46012380F83C300C2A5AD806
:103F7800DFE802F0075959591B595959305959590D
:103F880044000068FFF704FD2268936943F00803C2
:103F980093612268936923F004039361226893690B
:103FA80029690B43936100203EE00068FFF7A2FFF8
:103FB8002268936943F4006393612268936923F448
:103FC8008063936122689369296943EA01239361B5
:103FD800002029E00068FFF709FD2268D36943F053
:103FE8000803D3612268D36923F00403D3612268EC
:103FF800D36929690B43D361002015E00068FFF7F6
:1040080027FD2268D36943F40063D3612268D3692A
:1040180023F48063D3612268D369296943EA0123C1
:10402800D361002000E00120002384F83C3038BD33
:104038000220FCE710B4846824F47F4C42EA03228F
:104048000A4342EA0C02826010BC704790F83C3088
:10405800012B78D010B50446012380F83C300223A8
:1040680080F83D300268936823F47F4323F0770398
:1040780093600B68602B4CD029D8402B54D00CD9B6
:10408800502B22D1CA6849680068FFF705FD502106
:104098002068FFF726FD002005E0202B0DD009D968
:1040A800302B0AD00120012384F83D30002384F806
:1040B8003C3010BD0BB1102B05D119462068FFF715
:1040C80010FD0020EFE70120EDE70120EBE7B3F555
:1040D800805F34D0B3F5005F0CD1CB684A6889683B
:1040E8000068FFF7A7FF2268936843F48043936052
:1040F8000020D8E7702B24D1CB684A68896800680B
:10410800FFF798FF2268936843F0770393600020D5
:10411800C9E7CA6849680068FFF7D0FC60212068D1
:10412800FFF7DFFC0020BEE7CA6849680068FFF7B0
:10413800B3FC40212068FFF7D4FC0020B3E700203F
:10414800B1E70120AFE70220704701F01F0101230A
:1041580003FA01FC036A23EA0C030362036A02FA06
:1041680001F10B430362704710B504460846002965
:1041780032D194F83E30DBB2013B18BF0123002B4B
:1041880063D1002841D1022384F83E300122014640
:104198002068FFF7DAFF23682E4A934245D0236848
:1041A8002C4A934246D0B3F1804F43D0A2F57C42CB
:1041B80093423FD002F5806293423BD002F5806281
:1041C800934237D002F59A32934233D01A6842F0BC
:1041D80001021A60002037E0042908D008290DD010
:1041E80094F84130DBB2013B18BF0123C7E794F8CC
:1041F8003F30DBB2013B18BF0123C0E794F84030E1
:10420800DBB2013B18BF0123B9E7042805D0082811
:1042180007D0022384F84130B8E7022384F83F30FE
:10422800B4E7022384F84030B0E75A6C42F4004205
:104238005A64B4E79A6802F00702062A07D01A6897
:1042480042F001021A60002010BD0120FCE70020A6
:10425800FAE700BF0000014038B5044690F83E0078
:10426800C0B294F83F3094F84220D2B294F843C0D8
:104278000D46B1B9012849D1012A48D1022384F851
:104288003E3084F842307DB3042D39D0012200211C
:104298002068FFF75AFF012204212068FFF755FF25
:1042A80027E0DBB25FFA8CFC042912D0012833D155
:1042B800012B2CD1012A31D1BCF1010F30D10223BD
:1042C80084F83E3084F83F3084F8423084F8433034
:1042D800D9E7012B1CD1BCF1010F1BD1022384F8B3
:1042E8003F3084F84330CEE7012200212068FFF7F1
:1042F8002CFF2268136843F001031360002006E0D6
:10430800012204212068FFF720FFF2E7012038BDD1
:104318000120FCE71846FAE70120F8E71846F6E717
:104328001046F4E790F83C30012B34D010B4012348
:1043380080F83C30022380F83D3003685A689C6856
:1043480022F0700C0A6842EA0C025A600368134AA9
:10435800934212D0B3F1804F0FD0A2F57C42934222
:104368000BD002F58062934207D002F58062934237
:1043780003D002F59A32934204D124F080044A68AB
:1043880014439C60012380F83D30002380F83C30C2
:10439800184610BC70470220704700BF000001405B
:1043A8007047704738B504460268136923F44053D0
:1043B800C1680B431361836802691343426913435D
:1043C800C2691A430168CB6823F4164323F00C032F
:1043D8001343CB600268536923F4407381690B432C
:1043E80053610368314A934206D002F580629342D2
:1043F80002D0FFF7ADFA01E0FFF7BAFAE369B3F5C7
:10440800004F29D00021031849411B1841F1000130
:10441800C90041EA5371DB00181863684FEA830248
:104428004FEA937341F10001FCF772FE204DA5FBA2
:1044380000325109642303FB11031B013233A5FB2E
:1044480003235B0903F0F00202EB011203F00F03F0
:10445800216813448B6038BD0023021843EB030125
:10446800121841F10001C90041EA5271D200101836
:1044780041F10001626892185B41FCF749FE0C4D5E
:10448800A5FB00325109642303FB1103DB0032331F
:10449800A5FB03235B095A0002F4F87202EB011230
:1044A80003F00703216813448B60D4E70010014030
:1044B8001F85EB512DE9F84305460F4616469946E8
:1044C800DDF820802C68246837EA04030CBF4FF01D
:1044D800010C4FF0000CB4452DD1B8F1FF3FF1D0DD
:1044E800B8F1000F05D0FEF741FBA0EB09004045ED
:1044F800E8D92A6802F10C0353E8003F23F4D0738B
:104508000C3242E800310029F3D12A6802F1140381
:1045180053E8003F23F00103143242E80031002938
:10452800F3D1202385F83D3085F83E30002385F807
:104538003C30032000E00020BDE8F88358B310B5F4
:10454800044690F83D300BB3242384F83D302268AC
:10455800D36823F40053D3602046FFF723FF226873
:10456800136923F4904313612268536923F02A03E3
:1045780053612268D36843F40053D3600020206459
:10458800202384F83D3084F83E3010BD80F83C305C
:10459800FDF7CCFDD8E7012070472DE9F04182B046
:1045A8001E4690F83D30DBB2202B54D104460D4610
:1045B8009046002953D0002A53D090F83C30012B64
:1045C80051D0012380F83C3000230364212380F874
:1045D8003D30FEF7CBFA0746A4F82480A4F82680DD
:1045E800A368B3F5805F05D04FF00008002384F876
:1045F8003C3012E0236913B14FF00008F6E7A846F3
:104608000025F3E738F8023B2268C3F30803536038
:10461800E28C92B2013A92B2E284E38C9BB273B11B
:1046280000963B46002280212046FFF743FFE0B971
:10463800002DE7D015F8012B23685A60E8E70096AB
:104648003B46002240212046FFF734FF78B920235B
:1046580084F83D3000E0022002B0BDE8F08101207E
:10466800FAE70120F8E70220F6E70320F4E7032041
:10467800F2E72DE9F04182B01E4690F83E30DBB2F9
:10468800202B5CD104460D46904600295BD0002AB9
:104698005BD090F83C30012B59D0012380F83C3096
:1046A80000230364222280F83E200363FEF75EFAAB
:1046B8000746A4F82C80A4F82E80A368B3F5805F81
:1046C80005D04FF00008002384F83C3017E0236938
:1046D80013B14FF00008F6E7A8460025F3E7236872
:1046E8005B68C3F3080328F8023B03E023685B68B0
:1046F8002B700135E28D92B2013A92B2E285E38DD8
:104708009BB2BBB100963B46002220212046FFF712
:10471800D1FEF0B9002DE2D0A368B3F5805FE5D0F3
:1047280013B92369002BE1D023685B6803F07F038A
:104738002B70DEE7202384F83E30002000E00220C2
:1047480002B0BDE8F0810120FAE70120F8E7022075
:10475800F6E70320F4E7034681628285C2850020DC
:104768001864222283F83E2083F83C001968CA683E
:1047780042F48072CA6019684A6942F001024A61CB
:104788001A68D36843F02003D360704708B590F8DF
:104798003E30DBB2202B0DD171B17AB190F83C30AC
:1047A800012B0DD0012380F83C3000230363FFF771
:1047B800D2FF00E0022008BD0120FCE70120FAE753
:1047C8000220F8E7014B1868704700BF300000204E
:1047D80070B50D4E0D4D761BB61006D0002455F859
:1047E800043B01349847A642F9D1094E094D761B7E
:1047F80001F09CF8B61006D0002455F8043B0134AB
:104808009847A642F9D170BD705900087059000840
:104818007859000870590008830730B548D0541EED
:10482800002A3FD0CAB2034601E0013C3AD303F85C
:10483800012B9D07F9D1032C2DD9CDB245EA0525C9
:104848000F2C45EA054536D9A4F1100222F00F0CC9
:1048580003F1200EE6444FEA121C03F1100242E96C
:10486800045542E9025510327245F8D10CF10102A3
:1048780014F00C0F03EB021204F00F0C13D0ACF180
:10488800040323F003030433134442F8045B934204
:10489800FBD10CF003042CB1CAB21C4403F8012B61
:1048A8009C42FBD130BD64461346002CF4D1F9E795
:1048B80003461446BFE71A46A446E0E72DE9F0434D
:1048C800694CD4F8008083B004460E4617461D464E
:1048D800B8F1000F03D0D8F83830002B77D0022F6A
:1048E80005D0012F00F2AC80002DC0F2A980636EC4
:1048F800DA0752D52146404600F058F9216B41B1FC
:1049080004F14003994202D0404600F07BFA0023AC
:104918002363B4F90CC000231CF0800FA36163600B
:1049280064D12CF44A6C2CF0030C022FA4F80CC0B0
:104938006AD001AB6A462146404600F095FBA38940
:104948001843A081002D2FD0002E2ED0D8F8383053
:10495800002B38D0009B2660AB42B4F90C301CBF4A
:1049680043F40063A381012F04BF43F00103A38133
:104978009AB213F00803C4E904652CD0D1075DD5B9
:104988006D42A561656E002315F00105A36027D06F
:104998000025284603B0BDE8F083A3899B05A9D468
:1049A800A06D00F05DFBA5E7009D284600F08CFB9C
:1049B8000646002847D0A38943F08003A381D8F88E
:1049C8003830002BC6D1404600F024F9C2E74046F3
:1049D80000F020F983E7A360656E15F00105D7D1D3
:1049E800930524D5284603B0BDE8F08321694046E5
:1049F80000F008FAB4F90CC02CF44A6C2CF0030C43
:104A0800022FA4F80CC094D10025002204F143031E
:104A1800A2600122C4E904322360636E4CF0020CE8
:104A2800D807A4F80CC0DDD41CF4007FDAD1A06D3F
:104A380000F018FB284603B0BDE8F083A560CBE77B
:104A48004FF0FF35CEE7DDF80090A94504D0484681
:104A580000F03AFB064620B9B4F90CC04FF0FF3518
:104A6800D3E74D46A7E700BF30000020024B13B143
:104A7800024800F005B8704700000000414D0008EA
:104A8800002301461A46184600F050BEB1F90C2022
:104A9800F8B50C461107074642D4636842F4006231
:104AA800002BA28159DDA56A002D54D000233E6851
:104AB8003B6093B212F4805253D1E1690123384626
:104AC800A847421C63D0A389A56A5B0705D563681C
:104AD800C01A236B0BB1E36BC01AE16902460023CD
:104AE8003846A847411C3ED13B68002B3BD01D2BC4
:104AF80001D0162B52D1A3892269226023F40063C6
:104B080000216160A381216B3E6021B304F1400361
:104B1800994202D0384600F075F900202063F8BDAC
:104B28002669C6B193B2256826609A070CBF6369E7
:104B38000023AD1BA3600CE0D4F824C0E1692B4628
:104B480032463846E047B0F1000CA5EB0C05664448
:104B580016DD002DF0DC0020F8BDE36B002BA2DC95
:104B6800F9E7206DB1E7B4F90C302269226023F42B
:104B78000063A3810022DB046260C4D52065C2E71C
:104B8800A38943F040034FF0FF30A381F8BD3B6891
:104B9800002B98D01D2B06D0162B04D0A38943F0E8
:104BA8004003A381F8BD3E60D5E700BF38B50C4689
:104BB800054608B1836BA3B1B4F90C00B8B1636EB4
:104BC800DB0701D4810515D528462146FFF75EFF8E
:104BD800636EDA07054602D4A3899B050ED52846DD
:104BE80038BD00F017F8B4F90C000028E7D10546E5
:104BF800284638BDA06D00F033FAE5E7A06D00F057
:104C080031FA284638BD00BF014900F001BA00BF9B
:104C1800E55700082DE9F0478246394800F020FAA8
:104C2800DAF83840002C66D1DAF80450354ACAF868
:104C38003C200323CAE9B843DFF8CC90DFF8CC80E6
:104C4800334F344E04230AF53B72CAF8E822214652
:104C5800C5E90243C5E90044C5E904446C66082275
:104C6800AC6105F15C00FFF7D7FDC5E90759C5E957
:104C78000987EE6205F1580000F0EEF9DAF80850FD
:104C8800254BEB602146C5E90044C5E904446C6640
:104C9800AC60AC61082205F15C00FFF7BDFDC5E919
:104CA8000759C5E90987EE6205F1580000F0D4F903
:104CB800DAF80C50194BEB602146C5E90044C5E908
:104CC80004446C66AC60AC61082205F15C00FFF737
:104CD800A3FD05F15800C5E90759C5E90A76C5F8E5
:104CE800248000F0B9F90123CAF838300448BDE837
:104CF800F04700F0B7B9BDE8F047014800F0B2B995
:104D0800AC0C0020114C00087D560008A156000884
:104D1800E1560008015700080900010012000200CE
:104D2800014800F09DB900BFA80C0020014800F020
:104D380099B900BFA80C002038B5084B084D5B1B7B
:104D48009C1007D0043B1D44013C55F80439984792
:104D5800002CF9D1BDE8384000F0EEBD7C590008C0
:104D680078590008F8B5244F0C46064600F064FC54
:104D7800BA685568C4F57E630F3325F003052B44E4
:104D880023F47F6323F00F03A3F58054B4F5805F09
:104D980007DB0021304600F05BFCBB682B449842DF
:104DA80004D0304600F04EFC0020F8BD6142304689
:104DB80000F04EFC01300DD0104ABB682D1B45F0A9
:104DC80001055D60136830461B1B136000F03AFC58
:104DD8000120F8BD0021304600F03AFCBA68831A79
:104DE8000F2BDEDD43F001035360054B03491B68BD
:104DF800C01A0860D5E700BF64040020B00C00208A
:104E08006C080020002961D0F8B50C46064600F071
:104E180013FC54F8042C7B4FA4F1080522F001017F
:104E280005EB010CB868DCF80430604523F0030397
:104E380000F08B80D207CCF8043032D454F8082C18
:104E4800AD1A1144AA6807F1080082426AD00CEB37
:104E58000304D4F804E0EC68D4601EF0010FA260EB
:104E680000F0978041F001036B60CCF80010B1F5B9
:104E7800007F35D27A68CB08480901210133814087
:104E88001143796007EBC30257F83310083AC5E9B4
:104E9800021247F83350CD603046BDE8F84000F0C4
:104EA800D1BB0CEB03025268D00710D4194407F1A8
:104EB8000800DCF80830834273D0DCF80C20DA6094
:104EC800936041F001036B606950D0E7704741F08F
:104ED8000103B1F5007F44F8043CCCF80010C9D3B5
:104EE800B1F5206F4FEA512348D28B0903F13900FD
:104EF80003F13802C300F818FB580838984259D013
:104F08005A6822F003028A4202D99B689842F7D174
:104F1800D868C5E902308560DD603046BDE8F840F4
:104F280000F090BB0CEB03025268D20763D40B4429
:104F3800DCE90212CA60916043F001026A603046FF
:104F4800EB50BDE8F84000F07DBB0B44D10707D417
:104F580054F8082CAD1A1344D5E90212CA609160BE
:104F680043F001026A60284ABD6012689A4293D8E9
:104F7800264B30461968FFF7F5FE8DE7142B0AD942
:104F8800542B1FD80B0B03F16F0003F16E02C30003
:104F9800B1E719448DE703F15C0003F15B02C3003C
:104FA800A9E741F00103C7E90455C5E902006B60B0
:104FB800695071E779689210012404FA02F20A43F1
:104FC8007A60A6E7B3F5AA7F06D8CB0B03F1780081
:104FD80003F17702C3008EE740F25452934206D899
:104FE8008B0C03F17D0003F17C02C30083E74FF4CF
:104FF8007E737E227FE741F001036B60CCF80010DE
:105008004AE700BF6404002070080020E00C00207C
:105018002DE9F8430746884600F538764FF0000931
:10502800D6E90154013D11D4A389012B05F1FF35BF
:1050380008D9B4F90E300133214603D03846C047A9
:1050480049EA00096B1C04F16804EDD13668002EAA
:10505800E6D14846BDE8F883704700BF704700BFF7
:10506800704700BF704700BF70B50C46B1F90E100D
:10507800002996B015461E4614DB6A4600F014FC5B
:1050880000280FDB019A02F47042A2F50052B2FA2E
:1050980082F24FF4806352094FF4006032602B6053
:1050A80016B070BDB4F90C10002311F08000336005
:1050B80004D0402218462A6016B070BD4FF48063B1
:1050C8002B6016B070BD00BF024B0146186800F097
:1050D80003B800BF300000202DE9F04F01F10B06A6
:1050E800162E83B0044624D8102900F2BA8000F0A6
:1050F800A3FA102618220220B54F3A44A2F108015B
:1051080053688B4200F0BA805A68D96822F00302CB
:105118001A449D68E9608D60516841F0010120469C
:10512800516003F1080500F08DFA284603B0BDE888
:10513800F08F36F0070600F19480B14200F29180BA
:1051480000F07AFAB6F5FC7FC0F09A81730A00F095
:105158008F80042B00F26F81B30903F1390003F14A
:10516800380CC3009A4F3B44A3F108055B689D4285
:1051780006D10CE0002980F22781DB689D4206D029
:105188005A6822F00302911B0F29F3DD60463D693E
:10519800DFF840C265457CD06A6822F00302931BA1
:1051A8000F2B00F37B81002BC7E904CC80F26C81C4
:1051B800B2F5007F80F01A81D308796801334FEA8D
:1051C800521E012202FA0EF20A4357F833E0C5F8DC
:1051D80008E007EBC3010839E9607A6047F8335003
:1051E800CEF80C50831001219940914257D81142B2
:1051F80006D120F003004900114200F10400FAD062
:1052080007EBC0094D468646D5F80C80454508D1C0
:105218001DE1002B80F22481D8F80C80454500F070
:105228001681D8F8042022F00302931B0F2BF0DD1F
:105238002046D8E9025408EB060146F00106C8F8F2
:105248000460EC60A56043F00104C7E90411C1E9FA
:1052580002CC4C6048F8023000F0F4F908F1080577
:1052680002E00C2323600025284603B0BDE8F08F38
:105278004FF4007340204FF03F0C73E7D3689A4215
:1052880008BF02307FF440AF3D69DFF848C165458B
:1052980082D17A688310012199409142A7D9BD68CB
:1052A8006B6823F003094E4503D8A9EB06030F2BBF
:1052B8007ADCDFF824B1494BDBF800201B680132A7
:1052C800334405EB090A00F0338103F580530F33AB
:1052D80023F47F6828F00F084146204600F0B8F90B
:1052E800411C024600F0F380824500F2EE803C4B00
:1052F800196841441960084600F04E81DBF8001037
:10530800019301311BBFA2EB0A0A5044CBF80020DD
:10531800186012F0070B00F01781CBF108010A445E
:10532800CBF5805190440831A1EB0801C1F30B0A79
:1053380051462046009200F08BF9421CDDE900231B
:1053480000F04F81801A00EB0A081968BA6048F02B
:1053580001005144BD425060196000F02981B9F143
:105368000F0F40F227816868A9F10C0C2CF0070C8C
:1053780000F0010040EA0C0068604FF0050E05EBF4
:105388000C00BCF10F0FC0E901EE00F23281506849
:105398001546144B1A688A4238BF1960124B1A68AE
:1053A8008A4238BF196094E0AA1943F0010346F015
:1053B80001066E602046BA60536000F043F9083574
:1053C800284603B0BDE8F08FD9681A44A1E600BFAB
:1053D800640400206C0400206C080020E00C00200D
:1053E800B00C0020D80C0020DC0C0020B2F5206F97
:1053F8004FEA522363D3142B00F2B78003F15C0108
:10540800C9005B3307EB010E7958AEF1080E8E45E3
:1054180000F091804B6823F00303934202D9896816
:105428008E45F7D1D1F80CE07A68C5E9021ECEF8AE
:105438000850CD60D6E6142B59D9542B00F29D8024
:10544800330B03F16F0003F16E0CC3008AE60EF113
:10545800010E1EF0030F05F108057FF4D5AE51E0EB
:10546800424445465368D8F80C1043F00103536092
:1054780055F8083F2046D9608B6000F0E3F8F3E662
:10548800F00806F1080237E62A442046536843F03C
:1054980001035360083500F0D5F8E5E6A919204660
:1054A80046F0010643F001046E60C7E90411C1E942
:1054B80002CC4C60AB5000F0C5F80835D4E693092F
:1054C80003F13901C90038339CE7BD425FD0BD689C
:1054D800686820F003084645A8EB060302D80F2B9E
:1054E8003FF762AF204600F0ADF80025BCE603F1B7
:1054F8005C0003F15B0CC30034E659F808394B45EE
:1055080040F0968010F0030F00F1FF30F5D17B6872
:1055180023EA01037B60490099423FF6C0AE19B9FE
:10552800BDE649000EF1040E1942FAD0704667E64E
:1055380003F11008D0E69A104FF001087B6808FACA
:1055480002F21A437A6070E702EB08014942C1F39C
:105558000B0A51462046009200F07AF8431CDDE918
:1055680000237FF4EFAEDA46EFE6542B25D8130B71
:1055780003F16F01C9006E3344E7B3F5AA7F25D85C
:10558800F30B03F1780003F1770CC300EAE5294B2C
:10559800186840441860B1E6CAF30B0CBCF1000F60
:1055A8007FF4ACAEBD68C84448F001006860F0E61E
:1055B8001546EEE60123536094E7B3F5AA7F23D896
:1055C800D30B03F17801C90077331BE740F254523B
:1055D800934223D8B30C03F17D0003F17C0CC30084
:1055E800C0E5ABF1080BD844A8EB02084FF0000A5D
:1055F800ABE605F1080120460093FFF703FCBD6800
:10560800009B68681968C4E640F254518B420BD875
:10561800930C03F17D01C9007C33F3E64FF47E73EC
:105628007F204FF07E0C9DE54FF47E717E23E9E6E6
:105638007B6870E7B00C00200148FFF711BD00BF80
:10564800A40C00200148FFF70DBD00BFA40C0020EA
:1056580038B5074D0022044608462A60FCF790FA40
:10566800431C00D038BD2B68002BFBD0236038BD0D
:10567800E40C002010B50C46B1F90E1000F040F90A
:10568800002803DB236D0344236510BDA38923F49D
:105698008053A38110BD00BF2DE9F0410C46B1F93C
:1056A8000C101F46CB05054616460BD421F4805135
:1056B800A1813B46B4F90E1032462846BDE8F041B8
:1056C80000F01EB8B4F90E100223002200F002F90F
:1056D800B4F90C10EAE700BF10B50C46B1F90E108A
:1056E80000F0F8F8A389421C0EBF23F4805343F45A
:1056F80080532065A38110BDB1F90E1000F05CB88D
:1057080038B50C46084D8446114620461A460023F3
:105718002B606446FDF78AF9431C00D038BD2B681E
:10572800002BFBD0236038BDE40C00202DE9F047A6
:10573800DFF87CA00646DAF8000098460F46914646
:10574800FFF78EFC1B4B1B68D3F8484124B36568F0
:105758001F2D26DC5EB96B1C0235DAF80000636089
:1057680044F82570FFF77EFC0020BDE8F08704EBC5
:1057780085010123C1F88890D4F88821AB401A43E9
:10578800022EC4F88821C1F80881E4D1D4F88C210C
:105798001343C4F88C31DEE703F5A674C3F8484117
:1057A800D5E7DAF80000FFF75DFC4FF0FF30DCE7E3
:1057B800600400206459000838B5074D00220446EB
:1057C80008462A60FDF74CF9431C00D038BD2B6809
:1057D800002BFBD0236038BDE40C002070B50029F5
:1057E8004BD006460C4610B1836B002B48D0636E35
:1057F800D80734D5B4F90C30002B3ED021463046BA
:10580800FFF744F9E36A054633B1E1693046984742
:105818000028B8BF4FF0FF35A3891A063BD4216B87
:1058280041B104F14003994202D03046FFF7EAFA49
:1058380000232363616C21B13046FFF7E3FA0023AC
:105848006364FFF76DFA636E0022DB07A28127D538
:10585800A06DFFF703FCFFF769FA284670BDA3891E
:105868009905CBD4A06DFFF7FBFBB4F90C30002BE6
:10587800C4D1656E15F0010508D00025284670BD15
:10588800FFF7C8F9636ED807B4D4E8E7A06DFFF74F
:10589800E9FB284670BD21693046FFF7B3FABEE739
:1058A800A06DFFF7DFFBD3E770B50C46084D034644
:1058B8000026204611461C462E60FDF7FDF8431CC5
:1058C80000D070BD2B68002BFBD0236070BD00BFDB
:1058D800E40C002038B50C46084D84461146204695
:1058E8001A4600232B606446FDF7C6F8431C00D017
:1058F80038BD2B68002BFBD0236038BDE40C00209A
:1059080038B50C46084D8446114620461A460023F1
:105918002B606446FDF7B8F8431C00D038BD2B68EF
:10592800002BFBD0236038BDE40C0020F8B500BF85
:10593800F8BC08BC9E467047F8B500BFF8BC08BC68
:045948009E467047C0
:10594C000000000000000000010203040607080923
:0C595C00000000000102030438000020DD
:08596800E0B7FF7F0100000021
:08597000754A0008BD010008A2
:045978009901000889
:10597C000024F400014200000100020003000400B6
:10598C00050006000700080009000A000B000C00C7
:10599C000D000E000F0010000100000010000000B0
:1059AC00380000200000000000000000240300204C
:1059BC008C030020F4030020000000000000000015
:1059CC0000000000000000000000000000000000CB
:1059DC0000000000000000000000000000000000BB
:1059EC0000000000000000000000000000000000AB
:1059FC00000000000000000000000000000000009B
:105A0C00000000000000000000000000000000008A
:105A1C00000000000000000000000000000000007A
:105A2C00000000000000000000000000000000006A
:105A3C00000000000000000000000000000000005A
:105A4C00000000000000000000000000000000004A
:105A5C0001000000000000000E33CDAB34126DE6E7
:105A6C00ECDE05000B000000000000000000000050
:105A7C00000000000000000000000000000000001A
:105A8C00000000000000000000000000000000000A
:105A9C0000000000000000000000000000000000FA
:105AAC0000000000000000000000000000000000EA
:105DDC00A00C002000000000000000006404002063
