:020000040800F2
:1000000000000220BDD00008C9C90008CBC9000803
:10001000CDC90008CFC90008D1C900080000000000
:10002000000000000000000000000000D3C900082C
:10003000D5C9000800000000D7C90008D9C90008C8
:100040000DD100080DD100080DD100080DD1000818
:100050000DD100080DD100080DD100080DD1000808
:100060000DD100080DD100080DD100080DD10008F8
:100070000DD100080DD100080DD100080DD10008E8
:100080000DD100080DD100080DD1000800000000BE
:100090000000000000000000000000000DD100087A
:1000A0000DD10008E1C900080DD100080DD10008EC
:1000B0000DD100080DD100080DD100080DD10008A8
:1000C0000DD100080DD100080DD100080DD1000898
:1000D0000DD10008F9C900080DD10008000000008A
:1000E0000DD100080DD100080DD10008000000005E
:1000F0000000000000000000000000000DD100081A
:10010000000000000DD100080DD100080DD100083D
:1001100000000000000000000000000000000000DF
:100120000DD100080DD100080DD100080DD1000837
:100130000DD10008000000000000000000000000D9
:100140000000000000000000000000000DD10008C9
:100150000DD100080DD100080DD100080DD1000807
:100160000DD100080DD100080000000000000000C3
:10017000000000000000000000000000000000007F
:10018000000000000DD10008000000000000000089
:080190000DD100080DD100089B
:1001C00010B5054C237833B9044B13B10448AFF391
:1001D00000800123237010BD400A002000000000B1
:1001E00098B2010808B5034B1BB103490348AFF3AC
:1001F000008008BD00000000440A002098B20108F9
:1002000002484FF4C87104220AF0FABD1524000810
:100210002DE9F04F814F89B004460D46D7F8AC0068
:1002200005F038FF22462B4606F010FA002844D18C
:10023000D7F8B00005F02EFF02460B4620462946AF
:1002400006F004FAC8BBB7F8BC3003931A46B7F9F6
:10025000C23010B2C01A05F01DFF804689464246E2
:1002600029464B46204606F00FFAB7F9CA20B7F9DF
:10027000D030061CA2EB030018BF012605F00AFFD0
:1002800002460B4620462946CDE9002306F0FCF93C
:1002900000B10136B7F9DE30B7F9D800C01A05F061
:1002A000F9FE82468B462046294652465B4606F0BA
:1002B000EBF900B10136012E03DD012009B0BDE8E4
:1002C000F08F204629460022554B05F04DFF04468D
:1002D0000D464046494622462B4606F0D5F92246B1
:1002E00010F100082B46DDE9000118BF4FF00108AE
:1002F00006F0CAF908B108F10108504659462246ED
:100300002B4606F0C1F910B9B8F1000F03D0022056
:1003100009B0BDE8F08F434B404CD3E93201D3E93B
:100320003467D3E93623CDE90601CDE90067CDE98D
:100330000423DDE906AB0398CDF80C8004F1240515
:1003400000B205F0A7FE52465B4605F055FD064695
:10035000B4F9C2000F4605F09DFE52465B4605F01B
:100360004BFD02460B463046394605F0FDFE804601
:10037000B4F9BE00894605F08DFEDDE9002305F0E5
:100380003BFD0646B4F9C4000F4605F083FEDDE9E7
:10039000002305F031FD02460B463046394605F094
:1003A000E3FE02460B464046494605F027FD8046DF
:1003B000B4F9C000894605F06DFEDDE9042305F0BF
:1003C0001BFD0646B4F9C6000F4605F063FEDDE9E5
:1003D000042305F011FD02460B463046394605F070
:1003E000C3FE02460B464046494605F007FD002283
:1003F000002306F02BF90C3460B9AC4202D0B4F8FB
:10040000BC009DE7DDF80CB0BBF1010FCCBF0020B4
:10041000012053E7039B01330393EEE7A01F002065
:1004200000000440D01D0020014BC3F8E8007047D5
:10043000A01F00200C4A13685068D90110B481EA4B
:10044000D301946881EA001181EAC4045B0383EA62
:100450005413C80A80EA432094605160D36010604E
:100460005DF8044B704700BF0000002070B50546E2
:10047000FFF7E0FF06F040FA174906F095FA4FF053
:100480003E5106F091FA18F057F80446FFF7D2FFF4
:1004900006F032FA4FF03E5106F086FA0021064689
:1004A00006F016FC98B10D49002018F0AFF80022B4
:1004B0004FF0404305F058FE06F018F918F024F903
:1004C000294606F071FA214606F06EFA70BD3046F4
:1004D00005F0F2FDE9E700BFDB0FC9400000F03F87
:1004E0002DE9F04F89B00646059010461C460F4690
:1004F000069105F0E1FD824620468B4605F0DCFDC5
:10050000D6E930238046894650465946CDE90089D0
:1005100005F02AFED7E9302304460D4640464946F9
:1005200005F022FE02460B462046294605F066FCF1
:100530003346A7F108028833C6E930011146CDE9F8
:1005400002AB354607931E46883700248B469A46F1
:10055000D5E90023DDE9020105F006FEFBE90223EF
:1005600080468946DDE9000105F0FEFD02460B46A6
:100570004046494605F042FCE5E80201DDE902019A
:10058000F6E9022305F0F0FDF7E9022380468946EB
:10059000DDE9000105F0E8FD02460B46404649460C
:1005A00005F02CFC0134062CEAE90201D0D1059BB0
:1005B000079F03F14009DDE902AB069B4E4603F1BC
:1005C0004008F6E902235046594605F0CDFDF8E90A
:1005D000022304460D46DDE9000105F0C5FD024693
:1005E0000B462046294605F009FCBE42C6E900013B
:1005F000E7D1059F069E2837B84628364F46F8E9CA
:1006000002235046594605F0AFFDF6E902230446A1
:100610000D46DDE9000105F0A7FD02460B46204628
:10062000294605F0EBFB4745C8E90001E7D109B0D1
:10063000BDE8F08F2DE9F04782468EB008680C4681
:1006400005F028FD80466068894605F023FD0646D2
:10065000A0680F4605F01EFD002204460D46B44B6F
:10066000DAE9300105F0CAFB42464B46CAE93001DF
:10067000DAE90C0105F0C2FB32463B46CAE90C013F
:10068000DAE90E0105F0BAFB22462B46CAE90E0153
:10069000DAE9100105F0B2FB4246CAE910014B4607
:1006A0004046494605F060FDCDE9000102460B4693
:1006B000DAE9000105F0A2FB3246CAE900013B4637
:1006C0004046494605F050FDCDE9020102460B4681
:1006D000DAE9020105F092FB2246CAE902012B4643
:1006E0004046494605F040FDCDE9040102460B466F
:1006F000DAE9040105F082FB3246CAE904013B460F
:100700003046394605F030FDCDE9060102460B467C
:10071000DAE9060105F072FB2246CAE906012B461A
:100720003046394605F020FDCDE9080102460B466A
:10073000DAE9080105F062FB2246CAE908012B4606
:100740002046294605F010FDCDE90A0102460B4678
:10075000DAE90A0105F052FBDDE90023CAE90A01E2
:100760004046494605F000FDCDE90C0102460B4626
:10077000DAE9120105F042FBDDE90223CAE91201C0
:100780003046394605F0F0FC02460B46DAE9140122
:1007900005F034FBDDE90423CAE9140120462946AB
:1007A00005F0E2FC02460B46DAE9160105F026FBED
:1007B000DDE90223CAE916014046494605F0D4FCAA
:1007C00002460B46DAE9180105F018FBDDE90623BD
:1007D000CAE918013046394605F0C6FCCDE90201E8
:1007E00002460B46DAE91A0105F008FBDDE90823A9
:1007F000CAE91A012046294605F0B6FC02460B4616
:10080000DAE91C0105F0FAFADDE90423CAE91C0162
:100810004046494605F0A8FC02460B46DAE91E01AF
:1008200005F0ECFADDE90823CAE91E013046394635
:1008300005F09AFC02460B46DAE9200105F0DEFAE3
:10084000DDE90A23CAE920012046294605F08CFC8F
:10085000CDE9040102460B46DAE9220105F0CEFAA1
:10086000DDE90C23CAE922014046494605F07CFC3B
:1008700002460B46DAE9240105F0C0FADDE902235D
:10088000CAE924013046394605F06EFC02460B46A3
:10089000DAE9260105F0B2FADDE90423CAE9260106
:1008A0002046294605F060FC02460B46DAE928019D
:1008B00005F0A4FADDE90023CAE9280130463946EB
:1008C00005F052FC02460B463046394605F04CFC1A
:1008D00002460B46DAE92A0105F090FADDE9002329
:1008E000CAE92A012046294605F03EFC02460B468D
:1008F0002046294605F038FC02460B46DAE92C0171
:1009000005F07CFADDE90623CAE92C0120462946D8
:1009100005F02AFC02460B462046294605F024FC39
:1009200002460B46DAE92E0105F068FA02E000BF44
:100930000000F03FCAE92E010EB0BDE8F08700BF0D
:100940002DE9F04FD0E93045D0E90067B3B08246D9
:100950003B4631928B46324620462946DAE90C89DD
:10096000CDE9186705F000FC424606460F464B46A7
:100970004046494605F0F8FB02460B4630463946EC
:1009800005F03AFADAE90623DAE90E67CDE90A0159
:1009900020462946CDE90267CDE91A2305F0E4FB9C
:1009A000DDE9022306460F461046194605F0DCFB3A
:1009B00002460B463046394605F01EFADAE90A6768
:1009C00032463B46CDE91C67DAE91067CDE90E01F6
:1009D00020462946CDE9046705F0C6FBDDE904237E
:1009E00006460F461046194605F0BEFB02460B466A
:1009F0003046394605F000FADAE90223CDE90C0168
:100A00002046294605F0B0FBDDE9022306460F46E5
:100A10004046494605F0A8FB02460B46304639469B
:100A200005F0EAF9DAE90423CDE906012046294672
:100A300005F09AFBDDE9042306460F464046494689
:100A400005F092FB02460B463046394605F0D4F9D4
:100A5000DAE90823CDE908012046294605F084FBA0
:100A6000DDE9042306460F46DDE9020105F07CFBC3
:100A700002460B463046394605F0BEF9DAE9126700
:100A8000CDE91267DAE91467CDE92067DAE916677C
:100A9000CDE92267DAE91867CDE92467DAE91A6750
:100AA000CDE92667DAE91C67DDE90623CDE9000117
:100AB000DDE90C01CDE9286705F056FBDDE90E679D
:100AC000DDE90823CDE910013046394605F04CFB3D
:100AD00032463B46CDE91401DDE90A0105F044FB4D
:100AE000DDE90623CDE91601DDE9100105F03CFB47
:100AF000DDE9062306460F461046194605F07EF945
:100B0000DDE9082305F030FBDDE9002305F02CFBCF
:100B100002460B463046394605F06EF9DDE90823FA
:100B200006460F46DDE9140105F01EFB02460B46A2
:100B30003046394605F062F9DDE9002306460F46E6
:100B4000DDE90A0105F010FBDDE9002305F00CFBEF
:100B500002460B463046394605F050F9DDE90C23D4
:100B600006460F46DDE9160105F0FEFA02460B4681
:100B70003046394605F040F9DAE91E67CDE92A67C3
:100B8000DAE92067CDE92C67DAE922670022002341
:100B9000CDE91E01CDE92E6705F04EFD20B1002301
:100BA000184633B0BDE8F08FDDE912232046294610
:100BB00005F0DAFA424606460F464B46DDE91801D3
:100BC00005F0D2FA02460B463046394605F014F9D4
:100BD000DDE9202306460F462046294605F0C4FAE3
:100BE00002460B463046394605F008F9DDE91A237E
:100BF00006460F464046494605F0B6FA02460B4601
:100C00003046394605F0F8F8DDE9222306460F465E
:100C10002046294605F0A8FA02460B4630463946DA
:100C200005F0ECF806460F4640464946DDE91C89CA
:100C300042464B4605F098FA02460B463046394686
:100C400005F0DAF80022C84B05F08EFADDE924231E
:100C5000CDE912012046294605F086FADDE9022396
:100C600006460F46DDE9180105F07EFA02460B46FE
:100C70003046394605F0C0F8DDE9262306460F4622
:100C80002046294605F070FA02460B4630463946A2
:100C900005F0B4F8DDE9022306460F46DDE91A0146
:100CA00005F062FA02460B463046394605F0A4F8D4
:100CB000DDE9282306460F462046294605F054FA6A
:100CC00002460B463046394605F098F8424606463D
:100CD0000F464B46DDE90201CDE91C8905F044FAD7
:100CE00002460B463046394605F086F800229E4BF8
:100CF00005F03AFADDE92A2380468946204629464E
:100D000005F032FADDE9042306460F46DDE9180155
:100D100005F02AFA02460B463046394605F06CF8D3
:100D2000DDE92C2306460F462046294605F01CFA2D
:100D300002460B463046394605F060F8DDE90423EB
:100D400006460F46DDE91A0105F00EFA02460B468B
:100D50003046394605F050F8DDE92E2306460F46A9
:100D60002046294605F000FA02460B463046394631
:100D700005F044F8DDE9042304460D46DDE91C01D5
:100D800005F0F2F902460B462046294605F034F8F4
:100D90000022754B05F0E8F9DDE9082306460F4609
:100DA000DDE9060105F0E0F93246CDE918013B46E0
:100DB000DDE90E0105F0D8F9424604460D464B46E2
:100DC000DDE9000105F0D0F902460B462046294630
:100DD00005F012F8DDE9082305F0C6F9DDE9002386
:100DE00004460D461046194605F0BEF9DDE912230A
:100DF00005F0BAF902460B462046294604F0FEFFEC
:100E0000DDE90C2304460D46DDE90E0105F0ACF9E1
:100E1000DDE9122305F0A8F902460B4620462946D3
:100E200004F0EAFFDDE9102304460D46404649463A
:100E300005F09AF902460B462046294604F0DEFFEB
:100E4000DDE9002304460D46DDE9060105F08CF9D5
:100E500032463B4605F088F902460B4620462946B5
:100E600004F0CAFFDDE91E2305F0A8FA04460D468A
:100E7000CBE9004532463B46DDE90A01CDE90245B2
:100E800005F072F9DDE9122304460D46DDE908019B
:100E900005F06AF902460B462046294604F0ACFFED
:100EA000DDE9002305F060F904460D46DDE908019F
:100EB00002460B4605F058F942464B4605F054F9F8
:100EC00002460B462046294604F098FFDDE90C2334
:100ED00004460D46DDE90A0105F046F942464B4657
:100EE00005F042F902460B462046294604F084FFED
:100EF000DDE9102304460D46DDE9120105F034F961
:100F000002460B462046294604F078FF3246044646
:100F10000D463B46DDE9180105F026F902460B4671
:100F20002046294604F068FFDDE91E2305F046FA55
:100F30004246CDE90401CBE902014B46DDE90A0155
:100F400005F012F9DDE9122304460D46DDE906013C
:100F500005F00AF902460B462046294604F04CFFEC
:100F6000DDE9002302E000BF0000E03F05F0FCF8EF
:100F700004460D46DDE9060102460B4605F0F4F88D
:100F800032463B4605F0F0F802460B46204629461D
:100F900004F034FFDDE9162304460D463046394699
:100FA00005F0E2F802460B462046294604F024FFED
:100FB00004460D46DDE91201DDE9142305F0D4F8FD
:100FC00002460B462046294604F018FFDDE91823A7
:100FD00004460D464046494605F0C6F802460B4613
:100FE0002046294604F008FFDDE91E2305F0E6F956
:100FF000DDE9022304460D46CBE9044510461946B7
:1010000005F0B2F8DDE90467CDE9000132463B4660
:101010003046394605F0A8F82246804689462B46D8
:101020002046294605F0A0F8DAE90623CDE90601B5
:10103000DAE9000104F0E2FE424606460F464B465E
:10104000DDE9000104F0DAFEDDE9062304F0D6FE56
:10105000DAE90A23CDE900013046394604F0CEFE34
:10106000DAE90C2306460F46DDE9020105F07CF8BB
:10107000DAE90E2380468946DDE9040105F074F8BB
:1010800002460B464046494604F0B8FEDAE9102312
:10109000804689462046294605F066F802460B46FA
:1010A0004046494604F0AAFE02460B4604F0A6FE5E
:1010B00002460B463046394604F09EFEDAE93023FC
:1010C00005F07CF902460B46DDE9000104F096FECE
:1010D00017F0D0FA319A0123C2E90001184633B063
:1010E000BDE8F08F2DE9F04FD0E9302304460D46DE
:1010F000D1E9000199B0CDE90201CDE906231046FE
:101100001946DDE9022305F02FF8D4E9006782468D
:101110008B465246DDE902015B4605F025F8324672
:101120003B46CDE9086705F01FF806460F46DDE9A6
:101130000201D4E90C8902460B4605F015F8424637
:101140004B4605F011F802460B464046494605F06D
:101150000BF802460B463046394604F04DFED4E902
:10116000122306460F4650465946CDE90EAB04F011
:10117000FBFF02460B463046394604F03DFEDDE9F2
:101180000623CDE900011046194604F037FE8246D9
:101190008B465246DDE902015B46CDE916AB04F011
:1011A000E3FFD5E90223CDE9040192469B4604F012
:1011B000DBFFD4E9022304F0D7FFDDE9082306466C
:1011C0000F46DDE9020104F0CFFF02460B46404620
:1011D000494604F0C9FF02460B46DDE9000104F070
:1011E0000DFE02460B463046394604F007FE064621
:1011F0000F46DDE9020102460B4604F0FFFDCDE992
:10120000100102460B4650465946CDE900AB04F0AA
:10121000ABFFD4E90EAB02460B464046494604F00C
:10122000A3FF52465B46CDE90AAB04F09DFF0246A0
:101230000B463046394604F0DFFDD4E91423064658
:101240000F46DDE90E0104F08FFF02460B463046E3
:10125000394604F0D1FD424606460F464B46DDE9CD
:101260000201CDE90C8904F07FFFD5E904898246AB
:101270008B464246DDE904014B46CDE9048904F082
:1012800073FFD4E90623CDE90223D4E9042304F053
:101290006BFFDDE902238046894650465946CDE979
:1012A00012AB04F061FF02460B463046394604F0AB
:1012B000A5FD02460B464046494604F09FFDDDE988
:1012C000042306460F46DDE9100104F04DFFD4E982
:1012D00010AB02460B46DDE90C0104F045FF524617
:1012E0005B46CDE90CAB04F03FFF02460B463046AF
:1012F000394604F081FDD4E9162306460F46DDE9A0
:101300000E0104F031FF02460B463046394604F028
:1013100073FD002280468946C34BDDE9060104F0D7
:1013200023FFD4E92423D4E90AABCDE9100104F06A
:101330001BFF524606460F465B46DDE9120104F0EC
:1013400013FF02460B464046494604F057FD02464D
:101350000B463046394604F051FDDDE900230646D0
:101360000F46DDE9060104F0FFFEDDE90889CDE95D
:101370000E01002240464946AB4B04F0F5FE024602
:101380000B4640464946CDE9088904F0EDFE024689
:101390000B463046394604F02FFDD4E918230646A3
:1013A0000F46DDE90E0104F0DFFE02460B46304633
:1013B000394604F021FD0022804689469B4BDDE939
:1013C000060104F0D1FED4E92A23CDE9120104F08C
:1013D000CBFEDDE9002306460F46DDE9080104F0F7
:1013E000C3FE02460B46DDE90A0104F0BDFE0246DB
:1013F0000B464046494604F001FD02460B46304686
:10140000394604F0FBFC002206460F46874BDDE917
:10141000080104F0A9FEDDE90423CDE91401DDE9AA
:10142000060104F0A1FEDDE9142380468946DDE9CA
:10143000020104F099FE02460B463046394604F09C
:10144000DBFCD4E91E2306460F4640464946CDE95B
:10145000068904F089FE02460B463046394604F000
:10146000CBFCD4E92C2380468946DDE9120104F047
:101470007BFEDDE9042306460F46DDE9080104F0A2
:1014800073FE02460B46DDE90C0104F06DFE0246D8
:101490000B464046494604F0B1FC02460B46304636
:1014A000394604F0ABFCDDE90E2380468946DDE9D0
:1014B000000104F059FE02460B46DDE9020104F08A
:1014C00053FEDDE9142306460F465046594604F004
:1014D0004BFE02460B464046494604F08DFC024650
:1014E0000B463046394604F089FCDDE90023064608
:1014F0000F461046194604F037FEDDE90A89024618
:101500000B464046494604F02FFE02460B46404635
:101510004946CDE90A8904F027FE02460B463046CB
:10152000394604F069FCD4E91A2306460F46DDE982
:101530000E0104F019FE02460B463046394604F00F
:101540005BFCDDE9002380468946DDE9160104F0F5
:101550000BFE02460B46DDE9040104F005FED4E96A
:10156000082304F001FEDDE9022306460F46DDE90B
:10157000000104F0F9FD02460B46DDE90A0104F022
:10158000F3FD02460B464046494604F037FC02464E
:101590000B463046394604F031FCDDE900230646AF
:1015A0000F461046194604F029FC02460B46DDE9B9
:1015B000040104F0D9FD02460B46DDE90A0104F0FE
:1015C000D3FD02460B46DDE90C0104F0CDFD0246D9
:1015D0000B463046394604F00FFCD4E91C2306467E
:1015E0000F46DDE90E0104F0BFFD02460B46304612
:1015F000394604F001FCD4E9262380468946DDE91A
:10160000100104F0B1FDDDE90A2306460F46DDE9CD
:10161000000104F0A9FD02460B465046594604F06D
:10162000A3FD024604E000BF0000D03F0000E03F01
:101630000B464046494604F0E1FB02460B46304665
:10164000394604F0DBFBDDE9028906460F464046D9
:1016500049460022654B04F087FD02460B46404692
:101660004946CDE9028904F07FFD02460B4630462B
:10167000394604F0C1FBD4E9202306460F46DDE9D4
:10168000060104F071FD02460B463046394604F06F
:10169000B3FBD4E92E2380468946DDE9120104F02C
:1016A00063FDDDE9042306460F46DDE9020104F08F
:1016B0005BFD02460B46DDE90C0104F055FD0246D8
:1016C0000B464046494604F099FB02460B4630461D
:1016D000394604F093FBDDE9062380468946DDE9BF
:1016E000040104F041FD02460B465046594604F001
:1016F0003BFD002206460F463D4BDDE9020104F0AA
:1017000033FD02460B465046594604F02DFD024675
:101710000B464046494604F06FFB02460B463046F6
:10172000394604F06BFBDDE9048906460F46424664
:101730004B464046494604F017FD02460B46DDE99C
:101740000C0104F011FD02460B46DDE90C0104F02A
:101750000BFD02460B463046394604F04DFBD4E9FA
:10176000222306460F46DDE9060104F0FDFC024691
:101770000B463046394604F03FFBD4E928230646A1
:101780000F46DDE9100104F0EFFC524604460D4619
:101790005B464046494604F0E7FC02460B46DDE95D
:1017A0000C0104F0E1FC02460B463046394604F0D9
:1017B00025FB02460B462046294604F01FFB00226B
:1017C00004460D4650465946084B04F0CDFC0246EF
:1017D0000B465046594604F0C7FC02460B462046CD
:1017E000294604F009FB19B0BDE8F08F0000D03F96
:1017F0000000E03F2DE9F043804687B0B8F98C50F7
:10180000B8F98E40B8F9902003A812042D042404DE
:10181000894600950194029209F0AAF9019C049E60
:10182000029A009D039FB8F88800D8F8AC10A41B5A
:10183000059E0194961B4B46ED1B6A460095029649
:101840000AF055F807B0BDE8F08300BF2DE9F0437A
:1018500087B088466946FFF7CDFF002400260027A1
:1018600003AD5DF8240005F04BF84FF05E5105F034
:101870009BF8014645F8240005F096F804F01CFC9E
:1018800002460B463046394604F0B8FA0134032CC0
:1018900006460F46E5D116F0EDFEA8F10404064613
:1018A0000F4608F1080955F8040B04F005FC324610
:1018B0003B4604F083FD04F019FF014654F8040F81
:1018C00004F06AFF4C452060EDD1D8F85430013364
:1018D000C8F854300AF000FAC8F87C0007B0BDE838
:1018E000F08300BF2DE9F0439DB05523002204464C
:1018F00006A804930593029203920AF073F906A8CE
:101900000AA909F064FD0AA80EAA02A909F0F2FCCE
:101910000EA806A912AA09F0EDFC13A90EC94448A5
:1019200002F5967201F5967103F596731492139170
:101930001593FEF79BFD05F0FDF9139B03443C480E
:101940001393FEF793FD05F0F5F9149B0344384813
:101950001493FEF78BFD05F0EDF9159B13A90344D5
:1019600020461593FEF766FED4E930010022314B84
:1019700004F08AFE28B92AA1D1E900011DB0BDE812
:10198000F083204616A96A46FEF7DAFF0028F2D057
:10199000DDE9160124A3D3E9002304F02DFA22A3E4
:1019A000D3E9002304460D46DDE9180104F024FACA
:1019B0001DA3D3E9002380468946DDE91A0104F01E
:1019C0001BFA224606460F462B462046294604F0BF
:1019D000CBFB424604460D464B464046494604F082
:1019E000C3FB02460B462046294604F007FA32465E
:1019F00004460D463B463046394604F0B5FB0246E8
:101A00000B462046294604F0F9F916F033FE002271
:101A1000094B04F0D3FC1DB0BDE8F083AFF30080A8
:101A20005555555555D574400000000000C0724012
:101A300000002841000034400000084038B5E82587
:101A40000F4C10482A4600210EF088FE47F6FF731F
:101A50002A464FF40045A4F8C230A4F8D030A4F8C8
:101A6000DE300948A4F8BC500021A4F8CA50A4F8FC
:101A7000D8500EF073FE0023C4F8B43038BD00BF58
:101A8000A01F0020D01D0020482100202DE9F04F8C
:101A9000DFF898B0DBF89431012BD1B0824600F02A
:101AA000AD82DBF80831214A2149002BC4BF03F184
:101AB000FF33C2F80831D1E930010022002304F0DD
:101AC000E3FDC0B10DF15809E8221949484605F077
:101AD0009DFB17480DA9FEF7ADFD154808AA00F1BA
:101AE000C801FEF72DFF002840F009824946104842
:101AF000E82205F08BFBDAF83030DA0504D5DAF8A5
:101B00007430DB0500F16A820A4B0022CDE9002324
:101B100009490A4B0022D1E9300104F097FD04463F
:101B200070B1002051B0BDE8F08F00BFA01F0020B1
:101B3000B81E002000000840D01D002000003440E6
:101B4000BD4808AA00F1C801FEF7FAFE0028E8D057
:101B5000DAF8AC0004F09EFA02460B46B2A1D1E9D5
:101B6000000104F02BFCB44BCDE90401D3E932238E
:101B7000DBF8A810B1480BEBC105C5E90023AE4B5B
:101B8000D3E93423C5E90223AB4BD3E93623CD1C7B
:101B90000BEBC101C1E90423142DCBF8A850C8BF39
:101BA000C0F8A840A54C0FCC10AD0FC594E80300B9
:101BB000A4F1100B5E4685E803000FCE0DF1580925
:101BC0004D460FC594E8030085E8030004F10803BF
:101BD00004F19802CDF81CA002929A4610AE4F462E
:101BE000D046F8E80245F6E8020122462B4604F00A
:101BF0004BFD08B146E9024520462946F7E8022395
:101C000004F042FD08B147E902454E45E9D1029B87
:101C10000AF1180A9A45E1D1DDE91023DDE9160140
:101C200004F0EAF8DDE9122306460F46DDE9180163
:101C300004F0E2F804460D463046394622462B466B
:101C4000DDF81CA004F020FD08B926462F46DDE98A
:101C50001423DDE91A0104F0CFF832463B4604466E
:101C60000D4604F0F3FC08B926462F46DDE90401D1
:101C700032463B4604F0EAFC40B1DDE900010022B7
:101C80006F4B04F0E3FC002840F036813B46DDE971
:101C90000401324604F0F8FC674BD3E930450028D4
:101CA00000F0A281DDE900010022664B04F0CEFCC9
:101CB000002800F099810022634B2046294604F059
:101CC000E3FC002800F09081604B0022D3E9300152
:101CD000002304F0B1FC002840F07682DBF8B40069
:101CE000564E04F0D7F922462B4604F067FB50A36A
:101CF000D3E9002304F0C8FC002840F0FD804E48E2
:101D000000F1C801FFF7EEF902460B46CDE90023CA
:101D100004F074F8002280468946204629464C4B40
:101D200004F06AF802460B462046294604F01CFAE5
:101D300002460B464046494604F040FB16F09AFC2A
:101D40000446D6F8E8000D4604F0B6F9D6E9382383
:101D500004F00AFA02460B462046294604F094FC99
:101D6000002840F0C980DDE90801FEF751FA00289B
:101D70007FF4D7AE304BD3E93201344BD3E9322371
:101D800004F03AF8314B0D462B490446D3E934238D
:101D9000D1E9340104F030F82C4B89462649D3E9C7
:101DA00036238046D1E9360104F026F82246CDE9F3
:101DB00002012B462046294604F0D6F94246044645
:101DC0000D464B464046494604F0CEF902460B46C6
:101DD0002046294604F012F804460D46DDE90201CA
:101DE00002460B4604F0C0F902460B46204629463F
:101DF00004F004F816F03EFC0446DAF8AC000D4698
:101E000004F048F902460B462046294604F0ACF996
:101E10000022104B04F0A8F900220A4B04460D469C
:101E20001AE000BFAFF300809A9999999999A94156
:101E30000AD7A3703D0AE73FD01D0020A01F002055
:101E40000000F83F0000104000003E40B81E002097
:101E50000000F03F0000103E04F016FCB8B9204628
:101E600029460022B04B04F00FFC002844D0D6F8DD
:101E7000B40004F00FF9AD4BD3E9302304F09EFA1F
:101E8000A7A3D3E9002304F0E1FB002834D0DBF85A
:101E90009831012B30D1002009F02AFFDDE90067DD
:101EA000A24BA34C0022D3E93201C4E90067A14B45
:101EB00004F05AF904F0F2FB9C499E4B0A90002270
:101EC000D1E9340104F050F904F0E8FB9749994B4B
:101ED0000B900022D1E9360104F046F904F0DEFB54
:101EE00003210C900AA808F051FE93488F49002264
:101EF0004FF07E53FEF7F4FAFFF7A0FD11E68E488F
:101F00008B4E00F1C801FFF7EDF8D6E90023CDE9CB
:101F1000020103F071FF0D468749884B04460022F9
:101F2000D1E9300103F068FF02460B4620462946FE
:101F300004F044FA16F09EFBCDE90001DDE9020150
:101F40007D4C02460B46D4E9304503F057FF002292
:101F5000CDE90401794B2046294603F04DFF0246A6
:101F60000B462046294604F0FFF802460B46DDE901
:101F7000040104F023FA0022002304460D4604F075
:101F800065FB18B12046294616F074FBDBF8E80023
:101F90006B4F04F091F8DBE9382304F0E5F80446D0
:101FA0000D462246DDE900012B4604F06DFB0028BA
:101FB00040F0A680D7F80831002B40F3C78049468F
:101FC000E8225D4805F022F9DDE9000122462B46B2
:101FD00004F05AFB00283FF48EAD96E05948FFF715
:101FE00081FCCDE9000193E5204629460022564BAD
:101FF00004F04AFB00283FF494AD7DE7B0F98C1063
:10200000B0F98E20B0F990300D9148480E920DA98C
:102010000F93FEF70FFBBAF88C30BBF9BC101AB265
:1020200091420BDAABF8BC30BAF88E30ABF8BE3068
:10203000BAF89030ABF8C030BAF88C30BBF9C200B7
:102040003F4A19B2884209DDA2F8C230BAF88E3090
:10205000A2F8C430BAF89030A2F8C630BAF88E3080
:10206000BBF9CA00364A19B288420DDABAF88C3088
:10207000A2F8C830BAF88E30A2F8CA30BAF8903058
:10208000A2F8CC30BAF88E30BBF9D0102C4A1BB273
:1020900099420BDDBAF88C30A2F8CE30BAF88E3007
:1020A000A2F8D030BAF89030A2F8D230BAF8903016
:1020B000BBF9D800224A19B288420DDABAF88C303E
:1020C000A2F8D430BAF88E30A2F8D630BAF89030F0
:1020D000A2F8D830BAF89030BBF9DE10184A1BB21B
:1020E00099427FF7DEACBAF88C30A2F8DA30BAF851
:1020F0008E30A2F8DC30BAF89030A2F8DE30D0E4AE
:1021000049460D48E82205F081F84FF4FA7001F0D5
:102110003FFF0A23CBF80831EDE400BFAFF30080A6
:10212000333333333333C33F00000440D01D00202A
:10213000A02000200000F040B81E00200000F03F6A
:10214000A01F00204821002000409F40D7F8983170
:10215000012B7FF4D0ACD7F8B43000200133C7F89E
:10216000B43009F0C5FD5D4B0022D3E932015C4B70
:1021700003F0FAFF04F092FA5849594B0A900022F2
:10218000D1E9340103F0F0FF04F088FA5349544BCD
:102190000B900022D1E9360103F0E6FF04F07EFA4D
:1021A00003210C900AA808F0F1FC4C4B0022D3E963
:1021B00030014C4B04F068FA002840F08180DDE9E2
:1021C0000223C6E9002396E44748DFF8288100F19E
:1021D000C801FEF787FF08F5807E06460F46CEE968
:1021E0000067204629460022404B03F005FE324698
:1021F000CDE900013B463046394603F0FFFDDDE9FD
:10220000002306460F462046294603F0ADFF02464E
:102210000B463046394604F0D1F816F02BFA044646
:10222000DBF8E8000D4603F047FFDBE9382303F055
:102230009BFF02460B462046294604F025FA00285B
:102240007FF45AAEDDE90801FDF7E2FF02283FF412
:1022500053AE00287FF465ACD8F89841012C7FF488
:1022600060AC09F045FD204B0022D3E932011C4B44
:1022700003F07AFF04F012FA1B49194B0A9000226E
:10228000D1E9340103F070FF04F008FA1649144B49
:102290000B900022D1E9360103F066FF04F0FEF94D
:1022A00003210C900AA808F071FC204609F01AFDE1
:1022B0001923484616931793189309F025FD14E641
:1022C00006480B4A01461346FEF70AF9034800F197
:1022D000C801FEF707FFCDE9020170E7B81E002034
:1022E0000000F04000409F40D01D00200000F03F63
:1022F0006666E63EA01F002070B5444D036BC5F82E
:10230000A031044609F004FC064608B1002070BD67
:1023100009F0F4FC0428F9D0204605F59071FFF788
:1023200095FAD5F87421D5F870319A424FDA236BBB
:10233000DB053CD4D5F81421D4F8A030334D9B1ADA
:1023400083EAE372A2EBE372B2F5A02F46DCD5F884
:102350001811D4F8A420521A82EAE271A1EBE271BA
:10236000B1F5A02F3ADCD5F81C01D4F8A810091A51
:1023700081EAE170A0EBE170B0F5A02F12DC12123F
:1023800002FB02F21B1203FB0323091201FB0131C2
:10239000B1F5403F2EDAD5F8B830002BB6DD013B61
:1023A000C5F8B8302046FFF771FB002070BD04F17E
:1023B000180008F078FFB0F5C84F17D2D5F8B8303C
:1023C000124A002BA2DD013BC2F8B830EAE705F55E
:1023D000907003F041F8C5F87461A8E722460C4BF1
:1023E00052F8A00F5168926807C3DBE70423C5F8D1
:1023F000B830D7E723460422C5F8B82053F8A00F19
:1024000059689A6805F58A7507C5CBE7A01F0020B3
:10241000B4200020F8B5284CD4F80C310546BBB1E7
:10242000D5F8B01044F61F62914208DCD4F81031A0
:1024300021480B44934207DD0023C0F810312846A1
:10244000BDE8F840FFF758BFC0F810310020F8BDD4
:10245000D0F8AC60F6B1F71732463B4600201921A0
:1024600004F0AEFC32463B46C4F8AC000521002027
:1024700004F0A6FC32463B46C4F8B000962100208A
:1024800004F09EFC03F006FEC4E938010123C4F801
:102490000C31C5E706A1D1E900016FF00043C4E9A2
:1024A0003801C4F8AC30C4F8B030EFE7AFF30080C7
:1024B0000000C0FFFFFFDF41A01F0020014808F01F
:1024C000FDBC00BF1524000838B5154C1548002187
:1024D000E8220EF043F9FFF7B1FA00214FF4D4726D
:1024E00020460EF03BF94FF07E5304F59070C4F88F
:1024F000E83002F0FDFE0A204FF082450A490B4AFF
:102500000B4BC4F870011E20C4F87C01C4F85C5168
:10251000C4F88811C4F88421C4F88C31002038BD77
:10252000A01F0020B81E0020CDCCCC3E3333333F5B
:102530009A99193F08B5FFF7C7FF00B108BD0248D7
:10254000BDE8084009F060BC0102000808B5044875
:1025500008F0B4FC0348BDE8084009F029BC00BFFE
:1025600015240008010200082DE9F04F002189B070
:1025700080460020CDE9060103239C46CDF8048067
:10258000019B93E8C000D3E906ABA6FB0601044615
:1025900006FB07F3BAEB040201EB4303A04699469E
:1025A0006BEB0303941843EB0305A21845EB0303FD
:1025B00018EB020449EB030506FB05F107FB0411C8
:1025C000A6FB0423AAFB0A450AFB0BF0AB46A24676
:1025D0000B440BEB4001CDE902AB03910199D1E92A
:1025E0000C0118EB080449EB0905801A61EB0301A3
:1025F0008946DDE902AB06FB05F14B4680469800B3
:1026000007FB0413A6FB0445DAF1000A1D44DDE9CB
:1026100002236BEB4B0B4FEA880E4FEA8B01CDF890
:1026200010E04FEA8A0E12EB0E0240EA987041EA7F
:102630009A714B41059006FB05F107FB0411924688
:102640009B46A6FB0423DDE90445019899462B46E9
:1026500006FB03F307FB04379046A6FB0423D0E9EF
:10266000124514EB0A0445EB0B05A2464846084404
:1026700018EB0A04AB463B4440EB0B05101943EB47
:102680000501002871F10003019B03F10803019388
:102690002ADBDDE9062382428B4101DACDE906011E
:1026A000BCF1010C7FF46CAFDDE9060104F03EF9EA
:1026B0000F4B996B04F02CFA04F0EAFB0D4BD3F8A6
:1026C0000C329B00C3F1200201FA02F2B3F12004A4
:1026D00020FA03F040EA02005CBF41FA04F4204310
:1026E000194109B0BDE8F08F404261EB4101D0E7EC
:1026F000600A002030220020C1070AD5184B4FF095
:1027000040414FF080429966D96619675A679A67C7
:10271000DA67820710D5124B4FF040414FF08042EC
:10272000C3F80011C3F80411C3F80811C3F80C2151
:10273000C3F81021C3F81421430710D5084B4FF0FC
:1027400040414FF08042C3F89811C3F89C11C3F880
:10275000A011C3F8A421C3F8A821C3F8AC21704785
:102760003022002038B5094D982422462846002101
:102770000DF0F4FF05F59870224600210DF0EEFFF4
:102780000520BDE83840FFF7B7BF00BF3822002062
:1027900010B50D4C00214FF4187220460DF0DEFFED
:1027A0000720FFF7A9FF0123184603210022C4F8E0
:1027B000E43184F8E83108F04DFD04486421072233
:1027C000BDE8104008F01CBB30220020892E000814
:1027D000836F03B1C8E60020002170472DE9F84F50
:1027E000836F002B58D0A0F1080100F1100E0026D5
:1027F000002751F8080FD1F804C0D1E9062300FBE7
:102800000CF8A0FB004505EB4805121B63EB050324
:1028100012EB020843EB030912EB080243EB090336
:10282000D1E90CAB12196B4102FB0CFC00FB03CC91
:10283000A2FB0023B2EB0A02634463EB0B03002A02
:1028400073F100002CDB964277EB0300BCBF164609
:102850001F467145CDD13946304604F067F8124B1A
:10286000996B04F055F904F013FB104BD3F80C32BC
:1028700003EB4303C3F1200201FA02F2B3F1200497
:1028800020FA03F058BF41FA04F440EA020058BFAE
:1028900020431941BDE8F88F18461946BDE8F88F66
:1028A000524263EB4303CEE7600A0020302200204F
:1028B0002DE9F0412F4B84B0D3F8107280461C46AE
:1028C0001A4603F1800003F1180601A952F8083FE7
:1028D00050F8045FBB4003EB0543B24241F8043BB0
:1028E000F4D19822002124480DF038FF0120FFF791
:1028F00003FF94F8E8311F4A042B32D01F4D019B8F
:10290000686AAF6AEE6A039AD8F82410181A029B14
:10291000DF1B002887EAE773A3EBE773B8BF4042E9
:102920008342A2EB0602B8BF034682EAE270A0EB44
:10293000E2709842B8BF184608F0CFFCD4F81832BD
:10294000984206DA01A8032108F08EF9022009F066
:10295000F3F801A90EC96962AA62EB6204B0BDE88E
:10296000F081D2F81832B3F5201FC4BF052382F8D6
:10297000E831C3E73022002038220020600A00201E
:10298000014BC3E902017047600A0020014BC3E913
:1029900006017047600A0020014BC3E9040170473B
:1029A000600A0020064B30B403F5E872D2E9004516
:1029B000D3F8E0310360C1E9004530BC704700BF87
:1029C00030220020064B30B403F5EC72D2E900450A
:1029D000D3F8E0310360C1E9004530BC704700BF67
:1029E000302200202DE9F04F83B001F11803D1F817
:1029F00078B001930D4601F1680C01F15C0ABBF15E
:102A0000000F37D0B0F90020DCF81430D31A1E467E
:102A1000DF175AF8042F9A42B8BFCAF800305CF8A2
:102A2000042F9A42C8BFCCF8003005F1600E2C4646
:102A30000122002302FB07F806FB0388A2FB062302
:102A40004344D4E9008918EB020849EB0309E4E8A0
:102A500006897445EED1019B08359D4200F10200C4
:102A6000CDD10BF1010301228B67C1F8902003B097
:102A7000BDE8F08FB0F90030CCF814300026002704
:102A80005B46C6E70368D36643681367F0B4946F88
:102A900083685367C2F8881094B1043802F15C016E
:102AA00002F1680750F8043F0E6A51F8045F9B1B5F
:102AB000002BB8BF5B42AB42C8BF0B60B942F1D13B
:102AC000013401239467C2F89030F0BC704700BF16
:102AD00030B40023C56E046F416FD0F88820C567FD
:102AE000C0F88040C0F88410C0F88C2003664366AC
:102AF00083668367C0F8903030BC7047D0F8882078
:102B0000D0F88C00101A7047016E436E826E9942A5
:102B1000B8BF194691420846B8BF1046704700BF7B
:102B2000F0B50346C2F120048E46B2F120070EFA3A
:102B300004FC23FA02F002F1FF354FF0010658BF02
:102B40004EFA07F706FA05F64CEA0000A4F1200554
:102B500058BF384303FA05F5C4F1200723FA07F7F5
:102B60004CEA05053D43A340C4F12007E34005FAC4
:102B700007F7203C43EA07035CBF45FA04F423430C
:102B80009E424EFA02F107DB7642B34203DA10F1BD
:102B9000FF3041F1FF31F0BD013041F10001F0BDE6
:102BA0000B4A1146002341F8043B0431536041F8BD
:102BB000043B13620B6053629362D36213615361EF
:102BC0009361D361136353639363D363704700BF0F
:102BD000502400200B4AD2F84832F0B404460D4687
:102BE0006BB11146F1E99067864277EB050001DA97
:102BF000C1E900450133C2F84832F0BC704702F524
:102C00001071F5E7302200200B4AD2F85832F0B4A8
:102C100004460D466BB11146F1E99467864277EBA5
:102C2000050001DAC1E900450133C2F85832F0BCB1
:102C3000704702F51471F5E7302200200B4AD2F8F4
:102C40002832F0B404460D466BB11146F1E98867AD
:102C5000B04275EB070001DAC1E900450133C2F863
:102C60002832F0BC704702F50871F5E730220020E9
:102C70000B4AD2F83832F0B404460D466BB1114617
:102C8000F1E98C67B04275EB070001DAC1E9004554
:102C90000133C2F83832F0BC704702F50C71F5E729
:102CA000302200202DE9F04DDFF830814A4ED8F86F
:102CB0006820D8F87C50F46B08F16C018AC9D21BEB
:102CC000D8F87870C91B9142A3EB0505B8BF11462F
:102CD000A9420B46B8BF2B469C4256DB036BDC0572
:102CE00002D40220BDE8F08DD8F88030D8F800205A
:102CF0009342F6DB416FC9054CD5D8F8B0319A4202
:102D0000EFDC002B56D100240025D6E904233349FB
:102D1000A24201F5EC70AB41C0E9004548DAD1F8B8
:102D20003832002B4FD101F50C71C1E90045013358
:102D3000C8F8383200240021982229480DF00EFDF1
:102D40000420FFF7D9FCD8F8803033B32548FFF7CB
:102D50000BFCD6E90667214B864203F5F872C2E9FF
:102D6000000177EB01021BDAD3F82822DAB1F3E98C
:102D70008845A04271EB050401DAC3E90001013284
:102D8000C8F828220020BDE8F08DFFF7EBFC0020FA
:102D9000BDE8F08D0124002BD8D100200021D8E718
:102DA0002046BDE8F08D03F50873C3E90001E6E7AE
:102DB0000124C0E708F59C70FFF7D6FB040D44EA38
:102DC00001340D15A1E7F1E98CAB544575EB0B020D
:102DD000ADDAC1E90045AAE7600A002030220020F0
:102DE000682300203822002030B5036B03F0C003B5
:102DF000C02B85B004463BD0636F03F0C003C02BEB
:102E000030D0D4F8B83003F0C002C02A19D003F093
:102E10006003602B01D005B030BDD4F8A050D4F8C9
:102E2000A400D4F8A830D4F8C010144A84139B131B
:102E3000AD1301A8019502940393FFF723FE05B09B
:102E400030BDB4F98C00B4F98E50B4F99030D4F898
:102E5000C0100190094A029501A80393FFF712FEE2
:102E600005B030BD04F148000549FFF7BBFDC8E7D8
:102E700004300449FFF7B6FDBEE700BFD0220020B2
:102E800068230020382200202DE9F843036BD90580
:102E900040F18780426F02F05002402A044600F061
:102EA0008380D0F8B82002F05002402A7CD003F092
:102EB0005003402B78D0BC4DE36AD5F80822BA4EB7
:102EC0009A4219D0092BC6F80832B84F40F32C812A
:102ED0007B6B386BBA6BC6F80C3219463060C6F89B
:102EE000142219228A40C3F110034FF48041C5F81F
:102EF0001032FA63C5F818122046FFF775FF95F8EF
:102F0000E831062B4DD8DFE813F0FC00D000C700F5
:102F100007009F007B0058002046FFF7C3FE0028F3
:102F200000F0FE8001283CD1D4F8B830DA0540F139
:102F30003481D5F80001D5F80431D5F808119B4F3C
:102F4000994E9842B8BF18468142D7E90223B8BFCC
:102F50000146084682424FEAE17106F5E87E8B4160
:102F6000CEE9000180F21081052386F8E831904B0C
:102F7000D5F85822D3E90001002A40F0F580C3E9D2
:102F80001E018C49D5F848320132C5F85822D1E9E2
:102F90000067002B40F0DE80C1E914670133C5F8FB
:102FA00048320020BDE8F8837F4DFFF7DBFB0023AC
:102FB000C5F8E03185F8E8317EE72046FFF772FE7C
:102FC0000128044600F0C2800028EAD1FFF7CAFBBE
:102FD00005F5867007C8D5F82831C5F80041C5F851
:102FE0000441C5F80841C5F81841C5F83041C5F895
:102FF0001C01C5F82011C5F82421C5F82C31D0E7F3
:103000000623012085F8E83108F096FDFFF7AAFBBA
:10301000D5F80C31D5F81001D5F81411D5F82821C0
:10302000C5F81C310023C5F80031C5F80431C5F8D6
:103030000831C5F81831C5F83031C5F82001C5F898
:103040002411C5F82C21ACE7D4F8B830DB0518D52D
:10305000D5F80421D5F80001D5F808315349564E6A
:103060008242B8BF02469342D1E90201B8BF13467B
:103070001A4690424FEAE373C6E9002371EB03035B
:103080004EDB2046FFF70EFE002849D0012888D1EC
:103090002046FFF70DFC6AE70323204685F8E83158
:1030A000FFF706FCFFF75EFB7BE7D5F898303E4E56
:1030B000012B7FF476AF2046FFF7F4FD00285DD1A9
:1030C000052386F8E831D5F80C31D5F81001D5F88C
:1030D0001411D5F82821C5F81C310023C5F800319A
:1030E000C5F80431C5F80831C5F81831C5F83031D4
:1030F000C5F82001C5F82411C5F82C21FFF750FDB3
:103100004FE7D5F8E031284C5A1C092BC5F8E021CF
:103110007FF747AFFFF726FB012384F8E83140E74C
:10312000052385F8E8313CE73B6B7A6B5B000132A5
:1031300018463360C6F80C2203F0E2FB15F0E4FAFF
:10314000D6F80C32C6F81402796BCAE6022385F869
:10315000E83126E7F1E91489B04579EB0702BFF6BB
:103160001DAFC1E9006719E7F3E91E67864277EBF7
:103170000104BFF606AFC3E9000102E7012804BF5E
:10318000022386F8E8319EE7D6F82831D6F82C11CC
:103190003A6A5B1A9342FFF4EAAE0423204685F8AC
:1031A000E831FFF785FBE2E630220020600A0020CC
:1031B00008240020202400200024002010B5002333
:1031C0004010002810D10133094C01229A401046CA
:1031D0006363226303F094FB15F096FA626BA063BD
:1031E00019239340E36310BD03F10103E8DCEAE730
:1031F000600A00202DE9F843154D164C28460021A1
:103200004FF418720DF0AAFA0021402220460DF06A
:10321000A5FA0720FFF770FA01204FF41672002379
:103220000D49C5F8E40140F2DC584FF000091426BE
:1032300000271920C4E90689C4E90267C4E9042308
:103240002162FFF7BBFF0020C5F80802BDE8F88344
:1032500030220020600A00200008AF2F08B50120AE
:1032600008F06AFC0248BDE8084007F027BE00BF2E
:10327000892E000808B5FFF7BDFF00B108BD024860
:10328000BDE8084008F0C0BD9127000808B5FFF769
:10329000E5FF0248BDE8084008F08ABD9127000814
:1032A000014BD3E90001704720240020704700BF84
:1032B00002484FF41671042207F0A2BDA13800089D
:1032C0002DE9F0478846416B002992461F46C0F21F
:1032D000B980D0F8BC30A3F10309B9FA89F94FEAF3
:1032E00059196B48A0F1BC06011D24220DF0BAF952
:1032F00006F1B8040023C6F8E08006F1E00554F8B2
:10330000041F184603F048FAAC420346F7D161495E
:10331000614D03F0FDFBBAF1310F0446C6F8E4003D
:1033200016DDC823C5F81C31384603F0E9FABAF5B2
:103330007A7F0546404676DB584903F0E9FB0146B3
:10334000284603F031FB564903F0E2FB054623E033
:10335000544BD5F81C1183FB0723FA17A2EBE32388
:1033600003EB830303EB010ABAF1000FC5F81CA1BC
:103370006BDB4D49404603F0CBFB0546384603F076
:10338000BFFA0146284603F00FFB454903F0C0FB96
:103390000546BAF1000F6BD0D6F8203103B145468F
:1033A000424B9F4208BF45462846002103F090FC4F
:1033B000002843D0D6F8E800214603F0EBF920F0CE
:1033C000004002F079FE2EA3D3E9002303F05CF95C
:1033D00030B3D6F8B800304C002103F079FCF8B1D6
:1033E000B9F1000F1CD0C823C4F81C31404602F0CC
:1033F00063FE00222E4B02F0E1FF044638460D46E4
:1034000002F048FE02460B462046294602F0ACFE7A
:103410001DA3D3E9002302F0D1FF03F067F90546AD
:103420002846BDE8F087234903F072FB294603F0E4
:10343000BBFA1B4903F06CFB0546ADE7C6F8E84054
:103440002046B9E74FF000094BE70023C5F81C31CF
:103450001549404603F05CFB0546384603F050FA38
:103460000146284603F0A0FA0D4903F051FB05463A
:10347000D6F82831012B08BF00258DE7AFF3008077
:103480001283C0CAA145B63F000000000088B340C7
:103490004C250020000020419024002000004842DC
:1034A00000409C45AD8BDB680000C84340420F00E4
:1034B00000007940000048432DE9F04FD04ED6F887
:1034C0002021ABB00023032A03930493059300F05B
:1034D000A98106F1A403009001931C4609AD54F89C
:1034E000040F03F00DFA4FF0425103F05DFAC54BA3
:1034F00045F8040B9C42F2D106AD1DA8A3F1B4041B
:1035000008F070FB284608F043FB04F10C013C2254
:1035100020460DF0A7F804F15801502204F14800AC
:103520000DF0A0F895E8070004F13C0383E80700DC
:103530001DAB0FCBD6F824C10CF1010E04F1980598
:10354000BEF1060F85E80F00C6F824E140F31681AE
:103550000623C4F824314FF00009009BDFF8BCA219
:1035600006EB091C09EB49040CF1480806EB84043E
:1035700003F1A00B21AD4146A3482A4607F0BAFE4D
:1035800021462A46584607F02EFF2AF000410746FA
:1035900020F0004003F0A6FB09F1010908F1100832
:1035A0000C3400B1BA46B9F1060FE4D1009F974C34
:1035B00007F1180007F077FED6F83031A3424FEA42
:1035C0009012A8BF234651463846FFF779FED6F839
:1035D000EC1003F0E9F9C6F8B80019A808F002FBEE
:1035E00019A8294608F004F919A989481DAA07F065
:1035F00081FE19A8864907F0EAFE0DF10C0B4FF089
:10360000000C0DF1800A05EB0C021DAB002000211F
:1036100053F8044F52F8047B5345C4FB0701F7D11C
:10362000830F0CF10C0C43EA8103BCF1240F4BF81F
:10363000043BE8D1D6F82031002B40F0A980059C4E
:10364000604203F05DF94FF0425103F0ADF90546D9
:1036500014F072FF8246284614F0A0FF054620466B
:1036600003F04EF96B4903F053FA0746D6F83031B0
:103670006948149580FB0320DB17C3EBE02000248E
:10368000CDF844A01294139403F03AF90546294664
:10369000384603F03DFA4FF07C5103F085F903F012
:1036A00049FB400003F02CF95A4903F07DF901462B
:1036B000284603F079F903F03DFB03F021F94FF0C0
:1036C000425103F071F9054614F036FF1590284673
:1036D0001694179414F062FF11AD189029460DAAA4
:1036E00009A807F000FF0DA82A4615A907F0FBFE60
:1036F000009BD3F8BC70002F15DDDFF824A1002457
:1037000009AB55F8240043F824004FF09D4103F025
:103710004BF903F00FFB0134042C4AF8040FEFD1EE
:10372000032F00F08580D6F8A800354C03F0E8F8A8
:103730004FF0425103F038F90D90D6F8AC0003F089
:10374000DFF84FF0425103F02FF90E90D6F8B00099
:1037500003F0D6F84FF0425103F026F90F90D6F857
:10376000B40003F0CDF84FF0425103F01DF9D6F844
:10377000203110908BB92BB0BDE8F08FCCF105094A
:10378000B9F1050F7FF7E9AEDFF890A021AD0DE7A5
:1037900000274FF07E5A3D4668E74FF07C51D4F841
:1037A000B80003F001F9054614F0C6FE4FF09D4144
:1037B00003F0FAF803F0BEFA0023C4F8A800284684
:1037C000C4F8AC30C4F8B03014F0E8FE4FF09D41BE
:1037D00003F0EAF803F0AEFA009BD3F8C010C4F887
:1037E000B40004F1A80008F067F9D6F82031044AC3
:1037F000002BC0D0013BC2F820312BB0BDE8F08FC8
:1038000090240020442500203825002040420F004D
:103810008C250020E1023747AD8BDB68002474491A
:10382000342500200223C6F820312BB0BDE8F08FEC
:1038300000F0CCFE00287FF476AF4FF07C51D6F834
:10384000B80003F0B1F8044614F076FE002315909A
:1038500020461693179314F0A1FE15A918902A4636
:1038600009A807F040FE284607F0DBFE019C55F84A
:10387000040B4FF09D4103F097F803F05BFA064B01
:1038800044F8040F9C42F2D1009B0448D3F8C010C6
:1038900008F012F9A9E700BF4425002038250020D0
:1038A00038B5D0F8B830224A13F0100308BFC2F878
:1038B0002431D0F8203104BF0321C2F82011DC05E7
:1038C00005D4036BD90527D5436FDB0524D5D2F882
:1038D0003431174A73B1D0F8C030D0F8C44015491C
:1038E0001B1BA1FB03139B09C2F83031FFF7E4FD5A
:1038F000002038BDD0F8B01044F61F65A94213DC93
:10390000D2F82C412144A942C2F82C11F0DDC2F8B2
:103910003011C2F82C31E9E703210023C2F820114D
:10392000C2F82431002038BDC2F83011DEE700BFF4
:1039300090240020D34D621010B50D4C4FF49C72B2
:10394000002120460CF00AFF20464FF0804340F84B
:10395000A83F0021C4F8FC3008F0AEF84FF47A72AA
:103960004FF07E53C4F81C21C4F8EC3010BD00BFEA
:1039700090240020024BC3F8EC000020704700BFE9
:1039800090240020024BC3F828010020704700BF9C
:1039900090240020024BC3F834010020704700BF80
:1039A00090240020014807F089BA00BFA138000820
:1039B00008B5FFF7C1FF054B05480022C3F82821D1
:1039C000C3F83421BDE8084008F01EBA9024002056
:1039D000B1320008014808F0EBB900BFB13200086D
:1039E00002489621082207F00BBA00BFF1390008FF
:1039F0002DE9F04FADB01BA904461DA807F078F9DA
:103A00001CA808F091F802280DD09449D4F8E430AD
:103A100091F8B0011B9A10B19B1A40F0F78000207A
:103A20002DB0BDE8F08F636B032BF8D107F052F98E
:103A30000028F4D0DFF82482894CD8F8B421D8F8D3
:103A4000B8311B9D9B1A84FB0314DB17C3EB640383
:103A5000AA1A92FBF3F3DCB2042CE0D8542303FB44
:103A600004F908EB090C9CF85030052B00F09A8102
:103A70005A1C8CF8502004EB4404C4EBC4042344C7
:103A800008EB8304204698F8C0111D9EE56303F1FE
:103A90000A021E9C48F82360446100231F9848F8DE
:103AA0002200012920932193229323932493259389
:103AB00026932793289329932A932B93674AAED171
:103AC000DDE92001CDE90C01DDE92201CDE90A01A2
:103AD000DDE92401CDE90801DDE92601CDE90E018A
:103AE000DDE928019C46D2F8B431D2F8B8E116934A
:103AF000CDE906019146DDE92A0100220023CDE946
:103B00001223CDE90401CDF85CC0CDF844C0714664
:103B100054465D4699F850E0BEF1000F00F0AC80CD
:103B20004A46CDF860904FF0000C8946CDE900453B
:103B30000BE016999942B8BF194616910CF1010C89
:103B4000F44502F1040200F08D80D36B116881FB13
:103B50000301040C44EA01440914019151690094E1
:103B600081FB0301060C46EA01460F14916A81FBB2
:103B700003014FEA104A4AEA014A4FEA214B83FB0C
:103B80000301040C44EA014402940914DDE90C45E4
:103B900003911168641845EBE17511991944CDE959
:103BA0000C451191DDE90045DDE90E0124184D4178
:103BB00020462946DDE90A45CDE90E015169641820
:103BC00045EBE175DDE9060180197941CDE90A454A
:103BD000DDE90845CDE90601916A641845EBE17518
:103BE000DDE9040110EB0A0041EB0B01CDE90845CA
:103BF000CDE90401DDE91245DDE902010019694161
:103C00004B45CDE9120194DA994697E7D1F8A471B2
:103C1000D1F8AC21D1F8A8011D9E1E9D1F9C83FBED
:103C2000000183FB078983FB02AB4FEA184E070CA8
:103C30004FEA1A424EEA094E47EA014742EA0B426E
:103C40001DA8764414443D4403211D961E951F94DF
:103C500007F00AF800202DB0BDE8F08FA00A002080
:103C600067666666179BDDE900456344494603F0D5
:103C7000FF03DDF8609017935D4B09F154099945F6
:103C80007FF448AF169AD8F8BC31DDF844C0C1EBD8
:103C9000020A8E46DDE90C01CDE92001DDE90A01C9
:103CA000CDE92201DDE90801CDE92401DDE90E01BC
:103CB000CDE92601DDE90601CDE92801DDE90401B0
:103CC0009A45CDE92A01FFF6AAAE8CFB0C23DDE96B
:103CD0001245179FDFF818A1CDF808A0110C41EA92
:103CE000034100911B14A4FB0701019307FB05137B
:103CF000CDE908010993DDE90801DDE90023821A15
:103D000061EB0303CDE90C236246D317CDE90A2307
:103D100026AE0DF18009069799E83000DDE90AAB7F
:103D200096E8030004FB0BFE05FB0AEE0027A4FB4C
:103D30000A45754400FB07FE069F01FB07EEA0FB4A
:103D40000701CDE904017144DDE908AB0591DDE926
:103D500000018B4508BF8245DDE90C2306F108060A
:103D600009F1080914D0270C47EA05472C141497C9
:103D70001594DDE91445DDE90401001B61EB050143
:103D8000090441EA1041000403F01AF8029B18608C
:103D9000029B043302932CAB9E42BDD1012388F8D1
:103DA000B0313CE608EB09000146403110223C30BE
:103DB000CDF810C00CF056FCDDF810C009F104017C
:103DC0006046414410220CF04DFC08EB090001460E
:103DD0001831102214300CF045FC09F1280009F1CB
:103DE0002C014044414410220CF03CFC042342E6E8
:103DF000440C002070B40B4E06F5D273054693E8D0
:103E0000070085B08DE8070096F8B0318DF80C30CA
:103E10006C460FCC286000206960AA60EB6005B09A
:103E200070BC7047A00A002070B4034685B00068DB
:103E300059689A68DB68074E6C460FC406F5D27362
:103E40009DF80C4086F8B04183E80700002005B0DB
:103E500070BC7047A00A002010B50B4C0021204612
:103E60004FF4E2720CF07AFC084BC4F8B431012331
:103E70004FF4AA014FF4A02284F8C031C4F8B8115D
:103E8000C4F8BC21002010BDA00A00200000D8FF0B
:103E9000024BC3F8B8010020704700BFA00A002001
:103EA000024BC3F8B4010020704700BFA00A0020F5
:103EB000024BC3F8BC010020704700BFA00A0020DD
:103EC00058B1074BD3F8A4210260D3F8A82142606F
:103ED000D3F8AC318360002070471620704700BFD4
:103EE000A00A002024207047034608B92420704708
:103EF000024A002082F8C031704700BFA00A0020AB
:103F000000207047014806F0D9BF00BFF139000812
:103F100008B5FFF7A1FF0A480A4910224FF49A7327
:103F200007F0A8FF08B1012008BD074807F06CFFA3
:103F30000028F8D1054B012283F8B12108BD00BF4C
:103F4000293E0008F53D0008E1390008A00A0020DC
:103F500010B5084C94F8B10100B910BD064806F040
:103F6000ADFF064807F024FF10B984F8B10110BD79
:103F7000012010BDA00A0020F1390008E139000835
:103F800002484FF49671042206F03ABF95450008A6
:103F9000002805DD034B0122C3F88000C3F884200C
:103FA00000207047640C002070B50C4C0C4E0D4D79
:103FB00000212046B8220CF0D1FB0B4A0B480C4BD9
:103FC000E2604FF080414FF4FA626060A6602560C5
:103FD0006166E267C4F89C30002070BD640C00206C
:103FE0000000B4C2000070420000B4420000F04182
:103FF0007B142E3E014806F061BF00BF95450008C6
:1040000008B5FFF7D1FF00B108BD064A0346C2F864
:104010008C300123C2F888300348BDE8084007F01F
:10402000F3BE00BF640C0020813F000810B5044CB3
:10403000204606F043FF2046BDE8104006F03EBF94
:1040400095450008024B0020C3F88C00704700BF64
:10405000640C0020024B0122C3F88C200020704722
:10406000640C002038B558B1012819D0224B002229
:104070000121C3F89810C3F88C20C3F8902038BDF4
:104080001D4B00240122C3F8A010C3F8A410C3F8EC
:104090009400C3F89800C3F8A840C3F8902038BD36
:1040A000154D08460C46D5F8A01002F073FBD5F864
:1040B0009C1020F0004002F015FEB0B1D5F894300D
:1040C000D5F8A41020465C1CC5F8944002F064FBAF
:1040D000312CC5F8A4000DDD02230849C5F8903045
:1040E00002F016FDC5F8A80038BDC5F89000C5F867
:1040F000940038BD38BD00BF640C00200000484269
:10410000F0B58FB006460D4605A9144607F070FBC2
:1041100001AA2846314607F0EDF83046294607F057
:1041200056F905AFA4F1040C04F108020DF1100ECC
:1041300001AB3C460020002153F8045F54F8046BA7
:104140007345C5FB0601F7D1830F43EA81034CF8A1
:10415000043F944507F10C07EAD10FB0F0BD00BF52
:10416000F8B50446006802F0CBFB0746606802F031
:10417000C7FB0646A06802F0C3FB39460546384631
:1041800002F012FC31460446304602F00DFC0146B6
:10419000204602F001FB29460446284602F004FCB2
:1041A0000146204602F0F8FA14F0AEFA4FF05E51E4
:1041B00002F0FAFBF8BD00BF70B51C4C05460E4678
:1041C0002068294602F08EFD20B92846616802F079
:1041D00089FD90B1636F154AA3B101220023626784
:1041E000A367E26F11499A4206DC4B6F012B04BFB3
:1041F0000023CB650023636770BD2369012B07D0C3
:10420000A36FEEE702F11800916D07F055FCE4E7AB
:10421000E068314602F066FD0028DBD13046A16837
:1042200002F060FD0028EBD0D4E700BF640C002052
:1042300038B505460C4607F071FC20B928460C49F4
:1042400002F06EFD78B10B4B00221A615A61596978
:10425000084A2144B1F5FA7F596103DD01210023A9
:104260001161536138BD034B1A69002AEFD038BD84
:1042700000401C46640C00202DE9F04FB24D8DB07B
:10428000D5F88860002406940794089426B9002382
:1042900018460DB0BDE8F08F1C46174600918046C9
:1042A00006F0DEFB002840F02C81D5F88030A64EC9
:1042B000002B12DD0123C6F8843006F0D1FB002864
:1042C00040F0B380D6F88030C8EB0303C6F88030E6
:1042D000002BDCBF0023C5F8843007F0FDFC00286C
:1042E000D5D04FF0000A043C3E1F07F1080B56F8EA
:1042F000040F02F005FB4FF05E5102F055FB8146C2
:1043000054F8040F02F0FCFA0146484602F04CFB58
:104310004FF05E5102F048FB0146504602F03CFA75
:104320005E458246E3D13846FFF71AFF064631461E
:10433000504602F0EDFB4FF07E51044602F0F0FCD7
:1043400000286AD04FF07E54204614F0BBF9D5F80F
:104350008C30DFF8F4A107466BB13046DAF8001074
:1043600002F0C0FC38B13046DAF8041002F0D8FC94
:10437000002840F0CA8009ACDFF8CCA1204607F045
:10438000FBFB20460AF1AC010C220CF037F90028A7
:1043900055D1DAF89830012B51D0EA6D6A4B62B9E9
:1043A0000122DA6503F1180403F1580A204667492F
:1043B000103407F097FB5445F8D1DDF80090624CBB
:1043C00003AA484604F16401FFF79AFE04F1640170
:1043D000484606F0FCFF06A806F065FF02F08CFADE
:1043E0004FF0725102F0E0FA4146FFF721FF3046EC
:1043F0003946FFF7E1FEAB6FEA6F934201DA4344BF
:10440000A3676B6F504C002B7FF442AF206E40448B
:10441000B0F57A7F7FDC20663AE720464C4902F00F
:1044200061FC002890D04A4C8EE706A806F03BFFBE
:10443000B0F5C84FD6F88030BFF446AF48E794E8EF
:104440000700DFF804A1099B0AF1AC0E8EE8070013
:10445000A3B90A9B93B90B9B83B9DAF898203D481E
:104460003D49CAF80000012ACAF804107CD03B4A32
:104470003B4BCAF80820CAF80C308EE72046FFF7FD
:104480006FFE0021044602F023FC002885D120465F
:10449000344902F07FF9014602F086FA14F034F94B
:1044A00030496860204602F077F9014602F07CFA54
:1044B00014F02AF928600B9802F022FA4FF05E51AE
:1044C00002F072FA214602F023FB4FF07E510446BF
:1044D00002F026FC78B34FF07E54204614F0F2F838
:1044E000D5F89C1002F056F9A860204614F0EAF8BE
:1044F000D5F89C1002F050F90023E860C5F88C3024
:104500004BE706A806F070FDCFE6DAF890003946D2
:10451000FFF7A8FD2FE704F12801302204F118006D
:1045200023660CF09FF804F1480004F1580107F0ED
:10453000D9FA636FACE62046054902F0D3FB0028A8
:10454000CBD0034CC9E700BF640C0020BC0C00209A
:10455000000080BF000070420000F0410000B4C2C3
:104560000000B44200002041DAF8A840DAF89CB01C
:1045700001935946204602F00DF95946CAF8080041
:10458000204602F009F9019BCAF89830CAF80C00DD
:1045900003E700BF70B5044688B001A807F0F8FA39
:1045A000D4F8C030D4F8C45004A85D1B07F01AFB3F
:1045B00004A9064604F1A00201AB2846FFF75CFE01
:1045C00006F00CFB304608B070BD00BF014B586FC1
:1045D000704700BF640C00202DE9F84304460068D2
:1045E0000D4602F08DF90646606802F089F98146B1
:1045F000A06802F085F98046E06802F081F9314652
:104600000746304602F0D0F949460646484602F0D1
:10461000CBF90146304602F0BFF841460646404617
:1046200002F0C2F90146304602F0B6F839460646B5
:10463000384602F0B9F90146304602F0ADF80021E3
:10464000064602F059FB002832D1304614F05CF8DF
:1046500001464FF07E5002F05BFA4FF09D4102F0B0
:10466000A3F90646206802F04BF9314602F09CF9A6
:1046700002F060FB2860606802F042F9314602F007
:1046800093F902F057FB6860A06802F039F93146EF
:1046900002F08AF902F04EFBA860E06802F030F9FF
:1046A000314602F081F902F045FBE860BDE8F8838D
:1046B00000234FF0804285E80C00AB60EB60BDE862
:1046C000F88300BF08B5084B0849186808220BF0AA
:1046D00095FF08B1322008BD0548C8211322BDE866
:1046E000084006F08DBB00BF28000020E4B601089A
:1046F000AD4F0008F0B5866986EAE673A3EBE67372
:10470000B3F5803F89B05CDAC369002BB8BF5B4268
:10471000B3F5803F5DDBB3F5C80F71DD3C4D03237E
:10472000AB63836A6A6B3A4F9A4204466AD0184672
:104730007B6302F0E5F8374902F0EAF94FF09C415B
:1047400002F032F901F0B8FC2FA3D3E9002301F005
:104750000BFD0022304B01F007FD00222F4B01F032
:104760002DFE01F09BFF0146386300233046009385
:1047700006F0B3FD296B0190E06906F0AEFD296BF0
:104780000290206A06F0A9FD04AA03906946204819
:1047900006F0B0FD049D059C069A079B1C489B01F2
:1047A00004A9AE01A501940102460793049605955C
:1047B000069406F0F8FD16480146FFF70DFF09B014
:1047C000F0BDB3F5C80FA9DCC369002BB8BF5B42CD
:1047D000A1E7036A83EAE372A2EBE372B2F5803FDA
:1047E00009DB002BB8BF5B42B3F5C80F96DC084D60
:1047F0000223AB6395E7064B00229A6309B0F0BD34
:10480000036AEEE7396BB0E7182D4454FB210940E9
:104810001C0D002000247449000070400080664098
:10482000036B5B0600D565E7704700BF30B50A4CE7
:1048300085B005466946204606F0C9FD284669460A
:1048400004F1200206F056FD28686968AA68EB6842
:1048500010340FC405B030BD1C0D00202DE9F04F01
:10486000436F03F05003402B9DB0044600F02082BC
:10487000D0F82011874E01F05003402B00F0D38276
:10488000CD0500F11581236B590600F1E881814DBA
:1048900005F1100205F12000294606F02BFD636F9B
:1048A0005A0656D5D4F82021236B1343DB0554D583
:1048B00005F1100004F15C0110AA06F0F2FD226E71
:1048C000E06D616E82FB0223C0FB0023C1FB01236C
:1048D0006FF040484FF00209904579EB0303C0F2B6
:1048E000AF82B36B042B00F0BE829A1E012A40F205
:1048F000BA81012B00F01E830124674BA40003FB47
:1049000004F41198002521468002149506F0E5FC78
:10491000109B159058422146800206F0DEFC18AA32
:1049200016905E49179514A806F0E4FC5B4818A998
:10493000024606F038FD59480146FFF74DFE69462C
:10494000544806F044FD5548694600F1100206F04F
:10495000D1FC00201DB0BDE8F08FE06DD4F86C8074
:1049600001F0CEFF0746206E01F0CAFF8246606E5E
:1049700001F0C6FF39468146384602F015F8514627
:104980000746504602F010F80146384601F004FF91
:1049900049460746484602F007F80146384601F006
:1049A000FBFE13F0B1FE4FF08D41074620F00040B2
:1049B00002F0B6F90028C2D0286901F0A1FF4FF03B
:1049C000425101F0F1FF1890686901F099FF4FF032
:1049D000425101F0E9FF1990A86901F091FF4FF0F1
:1049E000425101F0E1FF1A90E86901F089FF4FF0B0
:1049F000425101F0D9FF00231B90E06D149301F0A8
:104A00007FFF394602F084F81590206E01F078FFA0
:104A1000394602F07DF81690606E01F071FF39465C
:104A200002F076F818AD04AA179014A9284606F0EB
:104A30005AFD28460CA906F0CCFE08AA04A80CA929
:104A400006F051FD0A9F099C3946384601F0ACFF3B
:104A500021468146204601F0A7FF0146484601F065
:104A60009BFE0F49814602F03DF9002840F0038289
:104A700048460C4902F036F9002840F06F8248465B
:104A8000094902F02FF9002840F04882DFF81CA005
:104A9000F3E100BF1C0D0020A69BC4002C0D0020DC
:104AA00017B751390AD7233CCDCC4C3ECDCCCC3EA8
:104AB00048067FF5ECAED4F810213768D4F82C51B5
:104AC000714B724803FB05F3D21B9A42CCBF032300
:104AD000022311F40071836340F0C78110AF6B4D66
:104AE000384606F005F9384605F13C010C220BF07A
:104AF00085FD28B9AB6DD4F828219A4200F0418297
:104B000018AD2B463A46616A208806F0F0FE1898E8
:104B100001F0F6FE8046199801F0F2FE82461A98DE
:104B200001F0EEFE41468146404601F03DFF514610
:104B30008046504601F038FF0146404601F02CFE09
:104B400049468046484601F02FFF0146404601F0A5
:104B500023FE13F0D9FD4E49D4F82891804601F088
:104B600023FF4C4901F0D4FF4FF05E5101F01CFFD0
:104B70008246484601F0C4FE0146504601F014FF4B
:104B8000454901F0C5FF4FF07C5101F00DFF824611
:104B900013F0D2FC8346504613F000FD4FF08041E5
:104BA0008246404602F09EF8002840F0AF814FF068
:104BB0009D41584601F0F8FE02F0BCF80AF1004AA7
:104BC0004FF09D41B064504601F0EEFE82461898C9
:104BD00001F096FE0146504601F0E6FE414601F026
:104BE00097FF02F0A7F8F064199801F089FE0146DA
:104BF000504601F0D9FE414601F08AFF02F09AF8D2
:104C000030651A9801F07CFE0146504601F0CCFE5A
:104C1000414601F07DFF02F08DF8706597E80700CE
:104C20001E4BC6F8589083E8070004F5887738468D
:104C30002A461B4906F05EFB14AA2946194806F0CD
:104C400059FB3846174906F0C2FB14A90F482A46FB
:104C500006F050FB28460D49FFF7BEFC17E620463C
:104C6000FFF748FD13E6E16E0F4CCA1784FB0114F1
:104C7000C2EBE424012CB8BF0124032B7FF43DAE2A
:104C80000A4B03FB04F43CE671981C001C0D002049
:104C9000DB0F49400000344300247449580D0020C4
:104CA000640D0020780D0020AD8BDB68A69BC4004E
:104CB000C06D01F025FE0546206E01F021FE07467D
:104CC000606E01F01DFE29460646284601F06CFE86
:104CD00039460546384601F067FE0146284601F090
:104CE0005BFD31460546304601F05EFE0146284632
:104CF00001F052FD13F008FD4FF07E51054601F022
:104D0000FBFF002840F00D81606E01F0F9FD29469F
:104D100001F0FEFE014606464FF07E5001F03AFDDE
:104D20000021054601F0FCFF002800F028812846FC
:104D30004FF07C5101F038FE13F0E6FC4FF07E514D
:104D40000546304601F028FD0021064601F0E8FF47
:104D5000002800F0128130464FF07C5101F024FE13
:104D600013F0D2FC8146E06D01F0CAFD0646206ECC
:104D700001F0C6FD31460746304601F015FE3946C2
:104D80000646384601F010FE0146304601F004FDAB
:104D900013F0BAFC4FF07E51804601F0ADFF07469C
:104DA000002840F0BE804FF09D41484601F0FCFDD8
:104DB00001F0C0FF744E3061206E01F0A1FD41464C
:104DC00001F0A6FE0146284601F0EEFD4FF09D41A0
:104DD00001F0EAFD01F0AEFF7061E06D01F090FDC1
:104DE000414601F095FE05F100450146284601F0D7
:104DF000DBFD4FF09D4101F0D7FD01F09BFFF76116
:104E0000B061D4F82031DB0500F1A28069465E482C
:104E100006F0DDFA5D48694600F1100206F06AFA14
:104E2000D4F820112CE500F5887006F15C0106F03D
:104E3000CEFA636FDF0500F19480D4F820111FE5EE
:104E40000CA806F06BFF0D9A0C980E9982FB0223BA
:104E5000C0FB0023C1FB0123904579EB0303BFF6A0
:104E600040AD0423AB6300244BE504F5887046494C
:104E7000FFF7B2FB0BE5DFF82CA1404601F040FD47
:104E8000434901F045FE514601F08EFD4FF0000907
:104E9000014680463846CDF8409001F085FD04F18A
:104EA00000411190404601F07FFD2946129008AA6A
:104EB00010A8CDF84C9006F016FB08A8024629462B
:104EC00006F096FB08A806F03FFC4FF09D410898BD
:104ED00001F06AFD01F02EFF4FF09D41306109980D
:104EE00001F062FD01F026FF4FF09D4170610A98CC
:104EF00001F05AFD01F01EFF4FF09D41B0610B988B
:104F000001F052FD01F016FFF06118E500234FF0AB
:104F10008042B264F364336573657FE64FF07A5A7A
:104F2000ABE7194E00234FF0804232617361B361E9
:104F3000F36166E7E26E174CD31784FB0224C3EBE0
:104F4000E424002CC9BF144B144CE4005C43D8E4A7
:104F500004F58870124906F03AFA57E7DFF848A0DE
:104F60008BE76946304606F032FA694606F11000D2
:104F700006F1200206F0BEF95FE70020F0E600200F
:104F8000DAE618AD51E600BF1C0D00202C0D002004
:104F90000014CD47AD8BDB68A69BC40030DD240632
:104FA000780D0020A69BC43B8FC2753D38B5036BBE
:104FB000DC0502D4436FD9050FD5D0F8203103F4B6
:104FC0004073B3F5407F044611D0FFF747FCA16B57
:104FD0000C4806F05BFD002038BDD0F82031DA0522
:104FE000F9D503F44073B3F5407F0446EDD1054D88
:104FF000D0F81001D4F81411D4F81821D4F81C31C9
:105000000FC5E4E72C0D0020014805F057BF00BF95
:10501000AD4F000810B5074C002120466C220BF064
:105020009DFB4FF08043236123602362E363E365CC
:10503000002010BD1C0D002008B5FFF7EBFF00B1EC
:1050400008BD0248BDE8084006F0DEBEC5460008BF
:1050500008B5044805F032FF0348BDE8084006F0F3
:10506000A7BE00BFAD4F0008C5460008AFF30080E3
:1050700038B5054601F044FC0C490D4C01F094FC98
:105080000C4901F045FD4FF07C5101F08DFC01F021
:1050900013F813F07FF90022074B01F065F801F0D7
:1050A000FDFAC4F88050C4F8840038BD368D27401E
:1050B000880D0020002474490000D041024840F2CD
:1050C0005231012205F09CBEF9550008F8B52C4C70
:1050D0004FF07E52134604F5E471074604F5D4758B
:1050E00004F1E000FBF7FCF904F1E000294604F1CB
:1050F0005002FBF725FC064608B93046F8BD636848
:1051000001336360D4E9140101F0C8FA396806F08C
:10511000E4F801F0F5FB4FF05E5101F045FC00F0C2
:10512000CBFFC4E91401D5E9000101F0B7FA04F599
:10513000D873A065D3E9000101F0B0FA04F5DC737F
:10514000E065D3E9000101F0A9FA04F5D071206609
:1051500009A3D3E90023D1E9000101F095FA002861
:10516000CBD0084A04F1E00001461346FBF7B8F93A
:105170003046F8BDAFF30080000000000070A7408B
:10518000880D0020CDCCCC3E044B0549054A196260
:1051900059629962DA621A635A637047880D002077
:1051A00000401CC600401C4670B50B4C0026D4F8CD
:1051B000B450206A294601F095FD043600B12562FD
:1051C0002846E16A01F08EFD00B1E5620C2E04F183
:1051D0000404ECD170BD00BF880D0020F0B50F4B6A
:1051E000B0F94AC0B0F94CE0B0F948709E6EDD6E7F
:1051F0005C6E024685B00B46C6EB0C46C5EB0E4511
:10520000916EB0F844000296C4EB074401AA0395DE
:10521000019406F06CFB05B0F0BD00BF880D0020C6
:10522000F8B50569C66804462946304601F078FDA0
:1052300098B167693046394601F072FD00282ED0DA
:10524000002328463946236401F060FD002838D049
:10525000012202236264A364F8BD3046294601F0AE
:1052600041FD88B167692846394601F059FD58B1BA
:10527000012330463946236401F048FD30B3002253
:1052800002236264A364F8BD0223304629462364E6
:1052900001F03CFD80B90123A0646364F8BD304691
:1052A000294601F01FFD28B12846394601F038FD96
:1052B0000028DDD102232364002201236264A36459
:1052C000F8BD022201236264A364F8BD0223A06436
:1052D0006364F8BD0023002201214167C264826734
:1052E00003604362436083628360C362704700BFB0
:1052F00030B40023002214250A24012185650466A8
:10530000416780F87020C26482674265036043622F
:10531000436083628360C36230BC70472DE9F04113
:1053200086B06946FFF75AFF00240026002703AD28
:105330005DF8240001F0E4FA4FF05E5101F034FB17
:10534000014645F8240001F02FFB00F0B5FE0246AF
:105350000B463046394600F051FD0134032C064619
:105360000F46E5D113F086F9114C06460F4604F1BD
:105370000C0855F8040B00F09FFE32463B4601F046
:105380001DF801F0B3F9014654F8040F01F004FAD6
:1053900044452060EDD1074BD3F8842401210A4411
:1053A000C3F88424C3F8AC1406B0BDE8F08100BF94
:1053B000B4110020880D00202DE9F04387B002AA27
:1053C00006460DF1070103A805F018FF03980146F2
:1053D00001F0EAFA00F070FE0022002300F00EFD5A
:1053E000044604980D46014601F0DEFA00F064FE22
:1053F00002460B462046294600F000FD044605986B
:105400000D46014601F0D0FA00F056FE22462B462A
:1054100000F0F4FC13F02EF903AD80468946341FEA
:1054200006F1080755F8040B00F046FE42464B46CD
:1054300000F0C4FF01F05AF9014654F8040F01F0DE
:10544000ABF9BC422060EDD1736D0122134473654A
:10545000F26707B0BDE8F0832DE9F04F064683B050
:10546000006D01F04DFAD6F83C9083464FF07E5126
:10547000484601F08FF934460190002759462068CC
:1054800001F046FB0021054601F040FC002850D009
:10549000A846D4F818A00021504601F037FC013787
:1054A000002842D05146404601F074F9616AA56176
:1054B0002063019801F078FA0146284601F06CF962
:1054C000494601F025FB00216062054601F01EFC03
:1054D00040B30023032FE56044F8043BCED13046AF
:1054E000FFF79EFEF36C326CB3F57A7FBCBF0133DD
:1054F000F36496F87030052B11D8DFE803F03B45D4
:105500004E035D1D06EB8202716ED06801F0FEFB5A
:1055100028B10023042286F870207367B36703B0B4
:10552000BDE8F08F05F10045D3E70AF100439A4644
:10553000B8E705F10048ACE706EB8204B16EE0681D
:1055400001F0DAFB68B9206B00F0B6FD28A3D3E9BF
:10555000002301F085F8002841D0F26C336E9A42A6
:10556000DDDB0123032286F870207367B36703B085
:10557000BDE8F08F012300227367B36786F87030AF
:10558000F26403B0BDE8F08FF36F012BC7D10222A4
:10559000002386F87020B367C1E706EB8202716EC4
:1055A000D468204601F0B2FB0028B2D12046B16E8B
:1055B00001F0A2FB40B1D4E706EB8202F16ED068A5
:1055C00001F09AFB0028AAD001230521002286F8C9
:1055D0007010F2647367B36703B0BDE8F08F042303
:1055E000F0647067B06786F8703098E7AFF30080BA
:1055F0009A9999999999A9BF2DE9F04F8046C06E63
:10560000874C95B044F61F62002590420795089597
:10561000099522DDD4F88030984201D0FFF728FDAB
:10562000D8F83030C4F8B0344046FFF777FED4F8ED
:105630008424D4F880347A4D9A421ADAD4F8A83403
:10564000774A012B21D0D4F8A434754D012B00F0FA
:10565000EF80002015B0BDE8F08FD4F8483318442F
:105660009042C4F84803F4DDFFF702FDC4F8485344
:10567000D6E705F58660FFF7EFFE0023C5F8843412
:10568000D4F8A834664A012BDDD1D2F894300DF15C
:10569000280A012B08BF00235146404608BFC2F824
:1056A0009430FFF79BFD0DA806F072FA0A990B9A49
:1056B0000F9D0C9B5B480D9F0E9EA3EBA533A1EBAA
:1056C000A737A2EBA636011D602200F118090C9342
:1056D0000A970B960AF0C6FF9AE8070010AD89E812
:1056E0000700284606F01AFB09F1580109F1540099
:1056F00060220AF0B7FF95E8070009F16C0383E820
:105700000700D4F82C340493129BDDF840B0DDF888
:1057100044A0DFF818E1CDF80880A9F559741E46B9
:105720004FF0000923464F46CC4601960594D3F826
:105730004C53D3F85043D3F85403D3F8B813D3F8E9
:10574000BC238EFB0568ED17C5EB6805AC448EFBEA
:105750000465E417C4EB650427448EFB0064C0179E
:10576000C0EB640081448EFB0140C917C1EB6001AE
:10577000D3F8C0538B448EFB0201D217C2EB6102F7
:1057800092448EFB0501019AED17C5EB61052A4491
:105790000192254A0C339342C9D1019A0498059C81
:1057A000DDF808808BEAEB758CEAEC73A5EBEB7502
:1057B000002AA3EBEC73B8BF52428AEAEA71AB420B
:1057C00087EAE776A1EBEA71B8BF4FF0010BA6EBD1
:1057D000E776A8BF4FF0000BB9F1000FB8BFC9F1D1
:1057E00000098E4200F10900B8BF0BF1010B914591
:1057F000C4F82C04109511911292BFF624AF08281A
:105800007FF721AFBBF1020F7FF41DAF94F82404A2
:10581000034B022800F2628105F0E6F913E700BFAE
:10582000880D0020D4100020F40D0020398EE338BC
:1058300007A806F092FA0798DDF82090099F014624
:1058400001F0B2F849460646484601F0ADF8014677
:10585000304600F0A1FF39460646384601F0A4F86C
:105860000146304600F098FF12F04EFF4FF08D4198
:10587000E86001F099F801F05DFA002605F52C7159
:105880000DF1400BADF828000AA8ADF82A60ADF87C
:105890002C60FDF7A7F8584606F0B6F9296F109866
:1058A00005F01BFD696F8246119805F016FDA96F82
:1058B0008146129805F011FDE96F0190139805F0EB
:1058C0000CFD04909BE80F0005F1700E8EE80F00B0
:1058D0003746103508F148060DF1340BB6F90000D3
:1058E000D8F86810000405F0F8FC01F009F84FF052
:1058F0005E5101F059F836F9023B45F8040F1B04DC
:105900004BF817300237062FE8D17A4D594605F586
:10591000E470FAF78FFED4F8282323689A42FFF642
:1059200098AED8F8E40000F0EBFF4FF05E5101F0C4
:105930003BF8D5F8D830029383460021184601F091
:10594000C7F9029B38B91946584600F023FF20F0EA
:105950000040C5F8DC00A368C4F8D8B0052B0BD80C
:10596000DFE803F003030303837C634BA3634FF07F
:105970007E52C823E2632364D8F830305F48DB05E9
:1059800063D5FCF725FF00F0D1FF5D4901F0C0F8B9
:105990002061584D9822002105F52C700AF0DEFE9A
:1059A000019B049AD1444B441F46D4F884303A44B6
:1059B0009A4261DDD5F810900021484601F0B0F917
:1059C000002859D04846A96B01F08CF9002853D023
:1059D0006A682B6C9A4280F26581D5F8A434012B59
:1059E0007FF437AE08F16800FFF770FB00283FF442
:1059F00030AED5F810906569A769E669C4F8B4506F
:105A0000C4F8B870C4F8BC603A4C01940023A046B6
:105A1000A3469A462C462146DBF8200001F062F9A5
:105A20000AF1040A214608B1CBF82040DBF82C002B
:105A300001F076F908B1CBF82C40BAF10C0F0BF15C
:105A4000040B6BD0DBF8B440E5E7FCF7C7FE00F0D1
:105A50006DFF2C4901F05CF820619AE72A4B2B4A34
:105A6000A3633223E263236486E7294B294AA363B5
:105A70006423E26323647FE76569A769E669DFF869
:105A8000748029464FF00009D8F8980000F082FE93
:105A900009F1040920F00040B9F10C0FC8F8A40086
:105AA00008F1040802D0D8F81410EDE7D4F8A810D3
:105AB000D4F8A40000F070FED4F8AC1000F06CFE36
:105AC0000021C4F8B000E8221348C4F89850C4F884
:105AD0009C70C4F8A0600AF041FEBAE50146D3F814
:105AE000282403F1640005F08FF8012006F0EEF899
:105AF000A9E500BF880D00200080BB4438100020BD
