:020000040800F2
:1000000000000220792D000825250008272500087A
:10001000292500082B2500082D25000800000000D8
:100020000000000000000000000000002F25000874
:1000300031250008000000003325000835250008A0
:10004000C92D0008C92D0008C92D0008C92D0008B8
:10005000C92D0008C92D0008C92D0008C92D0008A8
:10006000C92D0008C92D0008C92D0008C92D000898
:10007000C92D0008C92D0008C92D0008C92D000888
:10008000C92D0008C92D00083D250008000000000A
:10009000000000000000000000000000C92D000862
:1000A000C92D00084D250008C92D0008C92D0008DC
:1000B000C92D0008C92D0008C92D0008C92D000848
:1000C000C92D0008C92D0008C92D0008C92D000838
:1000D000C92D000865250008C92D00080000000092
:1000E000C92D0008C92D0008C92D00080000000016
:1000F000000000000000000000000000C92D000802
:1001000000000000C92D0008C92D0008C92D0008F5
:1001100000000000000000000000000000000000DF
:10012000C92D0008C92D000875250008C92D000833
:10013000852500080000000000000000000000000D
:10014000000000000000000000000000C92D0008B1
:10015000C92D0008C92D000895250008A52500080F
:10016000C92D0008C92D0008000000000000000093
:10017000000000000000000000000000000000007F
:1001800000000000C92D0008000000000000000071
:08019000C92D0008C92D00086B
:1001C00010B5054C237833B9044B13B10448AFF391
:1001D00000800123237010BDC00900200000000032
:1001E00048D4000808B5034B1BB103490348AFF3DB
:1001F000008008BD00000000C409002048D40008A9
:1002000081F0004102E000BF83F0004330B54FEAC7
:1002100041044FEA430594EA050F08BF90EA020F34
:100220001FBF54EA000C55EA020C7FEA645C7FEAC7
:10023000655C00F0E2804FEA5454D4EB5555B8BFEA
:100240006D420CDD2C4480EA020281EA030382EA5B
:10025000000083EA010180EA020281EA0303362DED
:1002600088BF30BD11F0004F4FEA01314FF4801CC0
:100270004CEA113102D0404261EB410113F0004FD2
:100280004FEA03334CEA133302D0524263EB430389
:1002900094EA050F00F0A780A4F10104D5F1200E27
:1002A0000DDB02FA0EFC22FA05F2801841F1000182
:1002B00003FA0EF2801843FA05F359410EE0A5F156
:1002C00020050EF1200E012A03FA0EFC28BF4CF087
:1002D000020C43FA05F3C01851EBE37101F000453D
:1002E00007D54FF0000EDCF1000C7EEB00006EEB4A
:1002F0000101B1F5801F1BD3B1F5001F0CD34908D4
:100300005FEA30004FEA3C0C04F101044FEA44522A
:1003100012F5800F80F09A80BCF1004F08BF5FEAB1
:10032000500C50F1000041EB045141EA050130BD91
:100330005FEA4C0C404141EB0101013C28BFB1F5A3
:10034000801FE9D291F0000F04BF01460020B1FAEE
:1003500081F308BF2033A3F10B03B3F120020CDAC1
:100360000C3208DD02F1140CC2F10C0201FA0CF09F
:1003700021FA02F10CE002F11402D8BFC2F1200C04
:1003800001FA02F120FA0CFCDCBF41EA0C019040BA
:10039000E41AA2BF01EB0451294330BD6FEA040403
:1003A0001F3C1CDA0C340EDC04F11404C4F12002EE
:1003B00020FA04F001FA02F340EA030021FA04F300
:1003C00045EA030130BDC4F10C04C4F1200220FA57
:1003D00002F001FA04F340EA0300294630BD21FA95
:1003E00004F0294630BD94F0000F83F4801306BF5B
:1003F00081F480110134013D4EE77FEA645C18BF4F
:100400007FEA655C29D094EA050F08BF90EA020FE5
:1004100005D054EA000C04BF1946104630BD91EADD
:10042000030F1EBF0021002030BD5FEA545C05D1E0
:100430004000494128BF41F0004130BD14F580041F
:100440003CBF01F5801130BD01F0004545F0FE4193
:1004500041F470014FF0000030BD7FEA645C1ABFC8
:10046000194610467FEA655C1CBF0B46024650EAFF
:10047000013406BF52EA033591EA030F41F400212B
:1004800030BD00BF90F0000F04BF0021704730B5B1
:100490004FF4806404F132044FF000054FF0000186
:1004A00050E700BF90F0000F04BF0021704730B547
:1004B0004FF4806404F1320410F0004548BF40421C
:1004C0004FF000013EE700BF42004FEAE2014FEA71
:1004D00031014FEA02701FBF12F07F4393F07F4F4C
:1004E00081F06051704732F07F4208BF704793F04F
:1004F0007F4F04BF41F40021704730B54FF4607462
:1005000001F0004521F000411CE700BF50EA010264
:1005100008BF704730B54FF000050AE050EA01020D
:1005200008BF704730B511F0004502D5404261EB7D
:1005300041014FF4806404F132045FEA915C3FF4BE
:10054000D8AE4FF003025FEADC0C18BF03325FEA5B
:10055000DC0C18BF033202EBDC02C2F1200300FA0C
:1005600003FC20FA02F001FA03FE40EA0E0021FA31
:1005700002F11444BDE600BF4FF0FF3C06E000BFAF
:100580004FF0010C02E000BF4FF0010C4DF804CD1C
:100590004FEA410C7FEA6C5C4FEA430C18BF7FEADC
:1005A0006C5C1BD001B050EA410C0CBF52EA430C0A
:1005B00091EA030F02BF90EA020F0020704710F18A
:1005C000000F91EA030F58BF994208BF90422CBF19
:1005D000D8176FEAE37040F0010070474FEA410C12
:1005E0007FEA6C5C02D150EA013C07D14FEA430C30
:1005F0007FEA6C5CD6D152EA033CD3D05DF8040BA1
:10060000704700BF8446104662468C4619466346D2
:1006100000E000BF01B5FFF7B7FF002848BF10F1A9
:10062000000F01BD4DF808EDFFF7F4FF0CBF0120EE
:1006300000205DF808FB00BF4DF808EDFFF7EAFF6A
:1006400034BF012000205DF808FB00BF4DF808ED25
:10065000FFF7E0FF94BF012000205DF808FB00BF1A
:100660004DF808EDFFF7CEFF94BF012000205DF8A4
:1006700008FB00BF4DF808EDFFF7C4FF34BF0120B1
:1006800000205DF808FB00BF4FEA4102B2F1E043F1
:1006900024BFB3F5001CDCF1FE5C0DD901F0004C69
:1006A0004FEAC0024CEA5070B2F1004F40EB8300B9
:1006B00008BF20F00100704711F0804F21D113F1E5
:1006C0003872BCBF01F00040704741F480114FEA1E
:1006D0005252C2F11802C2F1200C10FA0CF320FAA7
:1006E00002F018BF40F001004FEAC1234FEAD323C4
:1006F00003FA0CFC40EA0C0023FA02F34FEA43032E
:10070000CCE77FEA625307D150EA01331EBF4FF0B6
:10071000FE4040F44000704701F0004040F0FE40D1
:1007200040F40000704700BF80F0004002E000BFCE
:1007300081F0004142001FBF5FEA410392EA030FCC
:100740007FEA226C7FEA236C6AD04FEA1262D2EB16
:100750001363C1BFD218414048404140B8BF5B421B
:10076000192B88BF704710F0004F40F4000020F0B4
:100770007F4018BF404211F0004F41F4000121F0CA
:100780007F4118BF494292EA030F3FD0A2F1010214
:1007900041FA03FC10EB0C00C3F1200301FA03F152
:1007A00000F0004302D5494260EB4000B0F5000F75
:1007B00013D3B0F1807F06D340084FEA310102F134
:1007C0000102FE2A51D2B1F1004F40EBC25008BFE6
:1007D00020F0010040EA03007047490040EB0000B0
:1007E000013A28BFB0F5000FEDD2B0FA80FCACF1B1
:1007F000080CB2EB0C0200FA0CF0AABF00EBC250DE
:1008000052421843BCBFD0401843704792F0000FCB
:1008100081F4000106BF80F400000132013BB5E71E
:100820004FEA41037FEA226C18BF7FEA236C21D094
:1008300092EA030F04D092F0000F08BF08467047F9
:1008400090EA010F1CBF0020704712F07F4F04D1C7
:10085000400028BF40F00040704712F100723CBFDA
:1008600000F50000704700F0004343F0FE4040F404
:10087000000070477FEA226216BF08467FEA2363C2
:100880000146420206BF5FEA412390EA010F40F4AD
:10089000800070474FF0000304E000BF10F00043F9
:1008A00048BF40425FEA000C08BF704743F09643E0
:1008B00001464FF000001CE050EA010208BF7047FB
:1008C0004FF000030AE000BF50EA010208BF704782
:1008D00011F0004302D5404261EB41015FEA010C97
:1008E00002BF84460146002043F0B64308BFA3F18F
:1008F0008053A3F50003BCFA8CF2083AA3EBC25371
:1009000010DB01FA02FC634400FA02FCC2F120028F
:10091000BCF1004F20FA02F243EB020008BF20F0C6
:100920000100704702F1200201FA02FCC2F120022C
:1009300050EA4C0021FA02F243EB020008BF20EA21
:10094000DC7070474FF0FF0C1CEAD0521EBF1CEA4F
:10095000D15392EA0C0F93EA0C0F6FD01A4480EA3D
:10096000010C400218BF5FEA41211ED04FF0006326
:1009700043EA501043EA5111A0FB01310CF0004052
:10098000B1F5000F3EBF490041EAD3715B0040EA78
:10099000010062F17F02FD2A1DD8B3F1004F40EB48
:1009A000C25008BF20F00100704790F0000F0CF01B
:1009B000004C08BF49024CEA502040EA51207F3ADF
:1009C000C2BFD2F1FF0340EAC250704740F40000BA
:1009D0004FF00003013A5DDC12F1190FDCBF00F0AB
:1009E00000407047C2F10002410021FA02F1C2F159
:1009F000200200FA02FC5FEA310040F1000053EAF5
:100A00004C0308BF20EADC70704792F0000F00F042
:100A1000004C02BF400010F4000F013AF9D040EA48
:100A20000C0093F0000F01F0004C02BF490011F4DC
:100A3000000F013BF9D041EA0C018FE70CEAD153DA
:100A400092EA0C0F18BF93EA0C0F0AD030F0004C5A
:100A500018BF31F0004CD8D180EA010000F000400E
:100A6000704790F0000F17BF90F0004F084691F0CC
:100A7000000F91F0004F14D092EA0C0F01D1420206
:100A80000FD193EA0C0F03D14B0218BF084608D1CF
:100A900080EA010000F0004040F0FE4040F4000019
:100AA000704740F0FE4040F4400070474FF0FF0CAC
:100AB0001CEAD0521EBF1CEAD15392EA0C0F93EAF3
:100AC0000C0F69D0A2EB030280EA010C49024FEA45
:100AD000402037D04FF0805343EA111143EA1013FE
:100AE0000CF000408B4238BF5B0042F17D024FF4B6
:100AF000000C8B4224BF5B1A40EA0C00B3EB510F91
:100B000024BFA3EB510340EA5C00B3EB910F24BF79
:100B1000A3EB910340EA9C00B3EBD10F24BFA3EBFE
:100B2000D10340EADC001B0118BF5FEA1C1CE0D1C6
:100B3000FD2A3FF650AF8B4240EBC25008BF20F079
:100B4000010070470CF0004C4CEA50207F32C2BFCD
:100B5000D2F1FF0340EAC250704740F400004FF06A
:100B60000003013A37E792F0000F00F0004C02BF9B
:100B7000400010F4000F013AF9D040EA0C0093F065
:100B8000000F01F0004C02BF490011F4000F013BBF
:100B9000F9D041EA0C0195E70CEAD15392EA0C0F27
:100BA00008D142027FF47DAF93EA0C0F7FF470AF5F
:100BB000084676E793EA0C0F04D14B023FF44CAFA2
:100BC00008466EE730F0004C18BF31F0004CCAD137
:100BD00030F000427FF45CAF31F000437FF43CAF73
:100BE0005FE700BF4FF0FF3C06E000BF4FF0010C95
:100BF00002E000BF4FF0010C4DF804CD4FEA400277
:100C00004FEA41037FEA226C18BF7FEA236C11D0C0
:100C100001B052EA530C18BF90EA010F58BFB2EB73
:100C2000030088BFC81738BF6FEAE17018BF40F0F3
:100C3000010070477FEA226C02D15FEA402C05D1A7
:100C40007FEA236CE4D15FEA412CE1D05DF8040B2C
:100C5000704700BF844608466146FFE70FB5FFF7BF
:100C6000C9FF002848BF10F1000F0FBD4DF808ED77
:100C7000FFF7F4FF0CBF012000205DF808FB00BF68
:100C80004DF808EDFFF7EAFF34BF012000205DF8C2
:100C900008FB00BF4DF808EDFFF7E0FF94BF01200F
:100CA00000205DF808FB00BF4DF808EDFFF7D2FF0C
:100CB00094BF012000205DF808FB00BF4DF808ED4F
:100CC000FFF7C8FF34BF012000205DF808FB00BF1C
:100CD0004FEA4002B2F1FE4F0FD34FF09E03B3EB49
:100CE00012620DD94FEA002343F0004310F0004F89
:100CF00023FA02F018BF404270474FF000007047DF
:100D000012F1610F01D1420205D110F0004008BF7D
:100D10006FF0004070474FF00000704753B94AB978
:100D2000002908BF00281CBF4FF0FF314FF0FF30F3
:100D300000F074B9ADF1080C6DE904CE00F006F8CE
:100D4000DDF804E0DDE9022304B070472DE9F04747
:100D5000089E0D4604468846002B4DD18A42944693
:100D600068D9B2FA82F252B101FA02F3C2F120015B
:100D700020FA01F10CFA02FC41EA030894404FEA20
:100D80001C45210CB8FBF5FE1FFA8CF705FB1E83F2
:100D900041EA03430EFB07F199420BD91CEB030315
:100DA0000EF1FF3080F01E81994240F21B81AEF1BE
:100DB000020E63445B1AA4B2B3FBF5F005FB1033DB
:100DC00044EA034400FB07F7A7420AD91CEB0404DA
:100DD00000F1FF3380F00881A74240F205816444AE
:100DE0000238E41B40EA0E4000211EB1D44000232B
:100DF000C6E90043BDE8F0878B4208D9002E00F019
:100E0000EE800021C6E900050846BDE8F087B3FA88
:100E100083F100294AD1AB4202D3824200F2F98029
:100E2000841A65EB030301209846002EE2D0C6E940
:100E30000048DFE702B9FFDEB2FA82F2002A40F092
:100E40009180A1EB0C054FEA1C471FFA8CFE012193
:100E5000B5FBF7F307FB1350250C45EA00450EFBE5
:100E600003F0A84208D91CEB050503F1FF3802D2B4
:100E7000A84200F2CB8043462D1AA4B2B5FBF7F08E
:100E800007FB105544EA05440EFB00FEA64508D9B1
:100E90001CEB040400F1FF3502D2A64500F2BB8032
:100EA0002846A4EB0E0440EA03409EE7C1F1200768
:100EB0008B4022FA07FC4CEA030C20FA07F405FAEF
:100EC00001F31C43FD404FEA1C4900FA01F3B5FB56
:100ED000F9F8200C1FFA8CFE09FB185540EA05456D
:100EE00008FB0EF0A84202FA01F20BD91CEB050533
:100EF00008F1FF3A80F08880A84240F28580A8F18E
:100F0000020865442D1AA4B2B5FBF9F009FB10558F
:100F100044EA054500FB0EFEAE4508D91CEB05056D
:100F200000F1FF346CD2AE456AD90238654440EA1C
:100F30000840A0FB0294A5EB0E05A542C846A646B4
:100F400056D353D05EB1B3EB080265EB0E0505FA3C
:100F500007F722FA01F3CD401F43C6E900750021CF
:100F6000BDE8F087C2F1200320FA03F10CFA02FC7D
:100F700025FA03F395400D434FEA1C471FFA8CFEF8
:100F8000B3FBF7F107FB11302B0C43EA004301FBE5
:100F90000EF0984204FA02F408D91CEB030301F1A5
:100FA000FF382FD298422DD9023963441B1AADB2B3
:100FB000B3FBF7F007FB103345EA034500FB0EF3E4
:100FC000AB4208D91CEB050500F1FF3816D2AB4245
:100FD00014D902386544ED1A40EA014138E7314638
:100FE000304607E78646E5E61846FAE64B45A9D2BD
:100FF000B9EB020864EB0C0E0138A3E74046EAE7C0
:10100000204694E74146D1E7D0467BE7023B654462
:1010100032E7084609E76444023842E7704700BFF8
:1010200000000000000000000000000000000000C0
:1010300000000000000000000000000000000000B0
:1010400090F800F06DE9024520F007016FF0000C08
:1010500010F0070491F820F040F049804FF00004B0
:101060006FF00700D1E9002391F840F000F108008B
:1010700082FA4CF2A4FA8CF283FA4CF3A2FA8CF3C3
:101080004BBBD1E9022382FA4CF200F10800A4FA2A
:101090008CF283FA4CF3A2FA8CF3E3B9D1E904237E
:1010A00082FA4CF200F10800A4FA8CF283FA4CF3B5
:1010B000A2FA8CF37BB9D1E9062301F1200182FA6F
:1010C0004CF200F10800A4FA8CF283FA4CF3A2FA75
:1010D0008CF3002BC6D0002A04BF04301A4612BA83
:1010E000B2FA82F2FDE8024500EBD2007047D1E986
:1010F000002304F00305C4F100004FEAC50514F015
:10110000040F91F840F00CFA05F562EA05021CBFE5
:1011100063EA050362464FF00004A9E700000000FF
:1011200001F0FF01102A2BDB10F0070F08D010F898
:10113000013B013A8B422DD010F0070F42B3F6D19C
:10114000F0B441EA012141EA014122F007047FF0B5
:1011500000070023F0E80256083C85EA010586EA0C
:10116000010685FA47F5A3FA87F586FA47F6A5FA48
:1011700087F68EB9EED1F0BC01F0FF0102F0070254
:1011800032B110F8013B013A83EA010313B1F8D1FF
:101190000020704701387047002D06BF35460338E0
:1011A000073815F0010F07D1013015F4807F02BF19
:1011B000013015F4C03F0130F0BC0138704700BF6A
:1011C000844641EA000313F003036DD1403A41D352
:1011D00051F8043B40F8043B51F8043B40F8043B11
:1011E00051F8043B40F8043B51F8043B40F8043B01
:1011F00051F8043B40F8043B51F8043B40F8043BF1
:1012000051F8043B40F8043B51F8043B40F8043BE0
:1012100051F8043B40F8043B51F8043B40F8043BD0
:1012200051F8043B40F8043B51F8043B40F8043BC0
:1012300051F8043B40F8043B51F8043B40F8043BB0
:1012400051F8043B40F8043B51F8043B40F8043BA0
:10125000403ABDD2303211D351F8043B40F8043B40
:1012600051F8043B40F8043B51F8043B40F8043B80
:1012700051F8043B40F8043B103AEDD20C3205D350
:1012800051F8043B40F8043B043AF9D2043208D048
:10129000D2071CBF11F8013B00F8013B01D30B88BA
:1012A00003806046704700BF082A13D38B078DD098
:1012B00010F003038AD0C3F10403D21ADB071CBF6A
:1012C00011F8013B00F8013B80D331F8023B20F8D4
:1012D000023B7BE7043AD9D3013A11F8013B00F80D
:1012E000013BF9D20B7803704B7843708B78837095
:1012F0006046704770B54FF0FF0C4CF4E06C1CEA90
:1013000011541DBF1CEA135594EA0C0F95EA0C0FFB
:1013100000F0DEF82C4481EA030621EA4C5123EA6E
:101320004C5350EA013518BF52EA033541F480119D
:1013300043F4801338D0A0FB02CE4FF00005E1FB50
:1013400002E506F00042E0FB03E54FF00006E1FB9A
:1013500003569CF0000F18BF4EF0010EA4F1FF04DD
:10136000B6F5007F64F5407404D25FEA4E0E6D411D
:1013700046EB060642EAC62141EA55514FEAC5202E
:1013800040EA5E504FEACE2EB4F1FD0C88BFBCF5AA
:10139000E06F1ED8BEF1004F08BF5FEA500E50F15B
:1013A000000041EB045170BD06F0004646EA010121
:1013B00040EA020081EA0301B4EB5C04C2BFD4EB53
:1013C0000C0541EA045170BD41F480114FF0000E4C
:1013D000013C00F3AB8014F1360FDEBF002001F0BA
:1013E000004170BDC4F10004203C35DA0C341BDC34
:1013F00004F11404C4F1200500FA05F320FA04F006
:1014000001FA05F240EA020001F0004221F0004139
:1014100010EBD37021FA04F642EB06015EEA430EAC
:1014200008BF20EAD37070BDC4F10C04C4F12005DC
:1014300000FA04F320FA05F001FA04F240EA02008F
:1014400001F0004110EBD37041F100015EEA430E60
:1014500008BF20EAD37070BDC4F1200500FA05F280
:101460004EEA020E20FA04F301FA05F243EA0203FF
:1014700021FA04F001F0004121FA04F220EA02000E
:1014800000EBD3705EEA430E08BF20EAD37070BD54
:1014900094F0000F0FD101F00046400041EB010134
:1014A00011F4801F08BF013CF7D041EA060195F016
:1014B000000F18BF704703F00046520043EB0303D0
:1014C00013F4801F08BF013DF7D043EA06037047BD
:1014D00094EA0C0F0CEA135518BF95EA0C0F0CD0C8
:1014E00050EA410618BF52EA4306D1D181EA03010E
:1014F00001F000414FF0000070BD50EA410606BF08
:101500001046194652EA430619D094EA0C0F02D14C
:1015100050EA013613D195EA0C0F05D152EA033691
:101520001CBF104619460AD181EA030101F00041AF
:1015300041F0FE4141F470014FF0000070BD41F0F8
:10154000FE4141F4780170BD70B54FF0FF0C4CF4D2
:10155000E06C1CEA11541DBF1CEA135594EA0C0FF1
:1015600095EA0C0F00F0A7F8A4EB050481EA030E3E
:1015700052EA03354FEA013100F088804FEA033325
:101580004FF0805545EA131343EA12634FEA0222F3
:1015900045EA111545EA10654FEA00260EF00041B4
:1015A0009D4208BF964244F1FD0404F5407402D206
:1015B0005B084FEA3202B61A65EB03055B084FEA97
:1015C00032024FF480104FF4002CB6EB020E75EB94
:1015D000030E22BFB61A754640EA0C005B084FEABC
:1015E0003202B6EB020E75EB030E22BFB61A754639
:1015F00040EA5C005B084FEA3202B6EB020E75EB84
:10160000030E22BFB61A754640EA9C005B084FEAFB
:101610003202B6EB020E75EB030E22BFB61A754608
:1016200040EADC0055EA060E18D04FEA051545EAF7
:1016300016754FEA06164FEAC30343EA52734FEAA0
:10164000C2025FEA1C1CC0D111F4801F0BD141EA19
:1016500000014FF000004FF0004CB6E711F4801F7E
:1016600004BF01430020B4F1FD0C88BFBCF5E06F5E
:101670003FF6AFAEB5EB030C04BFB6EB020C5FEA6E
:10168000500C50F1000041EB045170BD0EF0004EC3
:101690004EEA113114EB5C04C2BFD4EB0C0541EAF5
:1016A000045170BD41F480114FF0000E013C90E6F2
:1016B00045EA060E8DE60CEA135594EA0C0F08BFB6
:1016C00095EA0C0F3FF43BAF94EA0C0F0AD150EAB5
:1016D00001347FF434AF95EA0C0F7FF425AF104648
:1016E00019462CE795EA0C0F06D152EA03353FF470
:1016F000FDAE1046194622E750EA410618BF52EAED
:1017000043067FF4C5AE50EA41047FF40DAF52EAC0
:1017100043057FF4EBAE12E74FEA410C7FEA6C5CC5
:1017200002D150EA013C0AD14FEA430C7FEA6C5CDB
:1017300002D152EA033C02D14FF0000070474FF053
:10174000010070474FEA410212F5001215D211D57F
:101750006FF47873B3EB625212D94FEAC12343F0AE
:10176000004343EA505311F0004F23FA02F018BF30
:10177000404270474FF00000704750EA013005D1F9
:1017800011F0004008BF6FF0004070474FF00000BC
:10179000704700BF00B585B000230093019302930A
:1017A00003932E482E4A02604FF400324260836059
:1017B00001220261027680F82030C36229498162E9
:1017C000C3600523C36180F83020426103F026F92D
:1017D000002831D1042300930123019303230293B2
:1017E00069461E4803F028FB48BB062300930223EA
:1017F00001936946194803F01FFB18BB07230093A8
:10180000032301936946154803F016FBE8B9082342
:101810000093042301936946104803F00DFBB8B907
:10182000092300930523019369460C4803F004FB48
:1018300088B905B05DF804FB00F00CFCCAE700F0C5
:1018400009FCD2E700F006FCD8E700F003FCDEE775
:1018500000F000FCE4E700F0FDFBEAE7DC09002013
:10186000002001400100000F70B588B000230393F1
:101870000493059306930793026803F1804303F5ED
:1018800090339A4201D008B070BD044600250095FF
:1018900003F58C335A6C42F480725A645A6C02F429
:1018A00080720092009A01951A6B42F001021A634D
:1018B0001A6B02F001020192019A02951A6B42F032
:1018C00002021A631B6B03F002030293029BD023F4
:1018D00003930326049603A9174803F055FE0396C5
:1018E0000496059503A9154803F04EFE1448154BC0
:1018F000036045608560C5604FF4806303614FF409
:10190000006343614FF4005383614FF48073C361FC
:101910000562456203F052FC58B9094BA3639C630E
:1019200000221146122003F071FB122003F0A6FBE7
:10193000A9E700F08FFBF0E700000240000402403E
:10194000240A00207064024010B582B00024019483
:10195000114B1A6B42F480021A631B6B03F4800371
:101960000193019B224621463A2003F04FFB3A2087
:1019700003F084FB224621463C2003F047FB3C2039
:1019800003F07CFB22462146462003F03FFB462025
:1019900003F074FB02B010BD00380240F0B58BB00C
:1019A00000240594069407940894099401942C4B00
:1019B0001A6B42F004021A631A6B02F004020192DD
:1019C000019A02941A6B42F080021A631A6B02F0B9
:1019D00080020292029A03941A6B42F001021A6387
:1019E0001A6B02F001020392039A04941A6B42F0FC
:1019F00002021A631B6B03F002030493049B194F4A
:101A000022464FF46041384603F09EFE164D2246B2
:101A10004FF20461284603F097FE4FF460430593AC
:101A2000012606960794089405A9384603F0ACFDF4
:101A300043F204430593069607940223089305A9ED
:101A4000284603F0A1FD4FF4424305930696079400
:101A5000089405A9284603F097FD0BB0F0BD00BF20
:101A600000380240000802400004024008B5FEF7BA
:101A700015FF0349FFF71AF80249FEF763FF08BD97
:101A8000000082440000B44310B5084C01224FF41A
:101A90000071204603F058FEC82002F011FF00221A
:101AA0004FF40071204603F04FFE10BD00040240C9
:101AB00038B50446274B984203D0274B9C4227D089
:101AC00038BD264A138801339BB21380013B244A58
:101AD00012782449CA54212A18D0214900230B70B6
:101AE00001221C4805F089FAE7E7012001F084FE95
:101AF00001351A4B1B88AB42F7DCC822002119487C
:101B000005F0C2FA154B00221A80E6E70025F0E73F
:101B1000154BD3F8D030C72B16D8134AD2F8C8309B
:101B200012490978D154D2F8C8300133C2F8C8300C
:101B3000C72B03D913460022C3F8C8200A4AD2F89B
:101B4000D0300133C2F8D03001220849024805F0F4
:101B500054FAB5E73C10002080100020560B0020FE
:101B6000540B0020880A002014110020790D002059
:101B70002DE9F843804689461446FEF7D9FDFEF765
:101B8000A3FC06460F462046FEF79EFC2CA3D3E995
:101B90000023FFF7AFFB00222D4BFFF7ABFB044602
:101BA0000D4602460B4630463946FEF72DFB26A36E
:101BB000D3E90023FEF72AFBFEF766FD00F10040A3
:101BC000244B186049464046FEF7B4FDFEF77CFC06
:101BD0008046894602460B4620462946FEF716FBFC
:101BE00019A3D3E90023FEF711FBFEF74DFD00F129
:101BF0000040194B186022462B4640464946FEF7E6
:101C000003FB11A3D3E90023FEF700FBFEF73CFD25
:101C100000F10040114B186022462B4630463946F1
:101C2000FEF7F4FA08A3D3E90023FEF7EFFAFEF774
:101C30002BFD00F100400A4B1860BDE8F88300BF9F
:101C4000B81E85EB51B8BE3F7B14AE47E17AB43F76
:101C50000000E03F840B0020880B00208C0B00204C
:101C6000900B0020F8B505460E46FEF761FD0446D0
:101C70001E4B186031462846FEF75CFD1C4F38604D
:101C80001C4E30601C4D2C601C4B1A6802F1004247
:101C900021461B4801F054FB00F10040194B18602D
:101CA000194B1A6802F100423968184801F048FBE4
:101CB00000F10040164B1860164B1A6802F1004202
:101CC0003168154801F03CFB00F10040134B1860EF
:101CD000134B1A6802F100422968124801F030FBE8
:101CE00000F10040104B1860F8BD00BF700B0020E1
:101CF000740B0020780B00207C0B00209C0B002034
:101D0000340C0020840B0020A00B0020580C002075
:101D1000880B0020A40B00207C0C00208C0B0020E2
:101D2000A80B0020A00C0020900B00209E4B8342AB
:101D300000D070472DE9F04F87B09C4B1C780134E0
:101D4000E4B21C709A4A13780133DBB21370022B91
:101D500005D0052C00F0938007B0BDE8F08F00237C
:101D60001370944AD2F800E0DEF8240000B2924AE0
:101D70001080924AD2F800C0DCF824200FFA82FAD0
:101D80008F4AA2F800A08F4A12680192516A0FFA96
:101D900081FB8D49A1F800B08C4909684D6A2DB2CC
:101DA0008B4E3580DFF82C92D9F8046086190296A4
:101DB000C9F80460DFF82082D8F804600AEB060254
:101DC0000392C8F80420854F7E680BEB060204924C
:101DD0007A60834E7268AA1805927260CEF8243039
:101DE000CCF82430019A53624B62FEF757FD7D49CF
:101DF000FEF75CFE7C49FEF7A5FD7C49FEF7A2FDDF
:101E0000C9F80C005046FEF749FD7649FEF74EFE34
:101E10007549FEF797FD7549FEF794FDC8F80C006B
:101E20005846FEF73BFD6F49FEF740FE6E49FEF750
:101E300089FD6E49FEF786FDF8602846FEF72EFD07
:101E40006849FEF733FE6849FEF77CFD6749FEF7F7
:101E500079FDF0600298FFF709FE654B1860039862
:101E6000FFF704FE634B18600498FFF7FFFD624B19
:101E700018600598FFF7FAFD604B186069E7604B42
:101E80001A6800215F4B1868FFF772FE474B00226B
:101E90001A705D4B1C685D492046FEF70FFF002855
:101EA00051D0594B5A4A1A605A4B1B78002B54D0C8
:101EB000594B1B781BB1594B1B78082B5BD0564BE9
:101EC0001B781BB1554B1B78052B5BD0544B1B78F3
:101ED000002B5ED1534F3F4BDA68534B196838469D
:101EE00001F07EF9514E3C4BDA68514B196830468F
:101EF00001F076F94F4D394BDA684F4B1968284697
:101F000001F06EF94D4C364BDA684D4B196820469E
:101F100001F066F9F869FEF7DBFE00B200F0AAFFF7
:101F2000F069FEF7D5FE00B200F0CEFFE869FEF7DB
:101F3000CFFE00B200F0F2FFE069FEF7C9FE00B28A
:101F400001F016F808E732492046FEF799FE00280E
:101F5000AAD02D4B2D4A1A60A6E701F007FBFEF729
:101F60009DFC02460021374801F02AFB00F10040A9
:101F7000234B18609CE700200246334B1968FFF79B
:101F800071FE9CE700210A462F4B1868FFF76AFE96
:101F90009CE72E4B1A681C4B19682D4801F04CFA2F
:101FA000174B186096E700BFCC0D00207B0D00207A
:101FB0007C0D0020840D0020BE0B00205C0E002054
:101FC000C00B0020A40E0020C20B0020140E002025
:101FD000C40B0020C4100020D8100020EC100020FA
:101FE00000110020000082440000FA43000070420B
:101FF0009C0B0020A00B0020A40B0020A80B0020AD
:10200000680B0020800B0020640B0020000034438C
:10201000000034C37A0D0020500B00200100002086
:10202000840A0020C40C0020840B0020E80C00204F
:10203000880B00200C0D00208C0B0020300D0020A0
:10204000900B0020540D00206C0B0020AC0B0020E6
:10205000EC0B002072B6FEE700B595B030220021EF
:1020600008A805F011F80023039304930593069341
:10207000079301931F4A116C41F080511164126C57
:1020800002F080520192019A02931B4B1A6842F4AB
:1020900040421A601B6803F440430293029B0123F1
:1020A00008934FF48033099302230E934FF4800278
:1020B0000F920C2210926022119212930423139318
:1020C00008A803F051FB88B90F230393022304935C
:1020D000002305934FF4805206920793032103A82F
:1020E00003F090FD20B915B05DF804FBFFF7B2FFD7
:1020F000FFF7B0FF003802400070004070B588B0B4
:1021000002F0B2FBFFF7A8FFFFF748FCFFF71CFC4B
:1021100000F086FA00F0EAFA00F01AFB00F0D4FCB6
:1021200000F048FB00F046FD00F070FB00F0ACFA58
:10213000FFF730FB00F058FD8E4C204602F0FEFA0F
:1021400000F044FE8C4B07938C4B06938C4B05930D
:102150008C4B04938C4B03938C4B02938C4B0193CD
:102160008C4B00938C4B8D4A8D498E4800F028FF94
:1021700001228D49204604F040FF8C4803F0CAFE3E
:102180008B4C0421204604F0FFF90021204604F086
:10219000FBF90821204604F0F7F90C21204604F051
:1021A000F3F905228349844802F064FC0122834943
:1021B000834804F022FF01224FF40051814803F0CC
:1021C000C3FA4FF47A7002F07BFB02F045FA402329
:1021D0000593092304930423039302230293C82342
:1021E00001930323009300231A46FF21052002F0E8
:1021F00057FA02F091FA02F041FA58E172B6724AC7
:10220000D2F8D030013BC2F8D03062B602F082F989
:102210006D4BD3F8D0307BB16B4AD2F8CC30D05C68
:10222000D2F8CC300133C2F8CC30C72BE6D91346F4
:102230000022C3F8CC20E1E7644B1B7883B9644BE0
:10224000644A1A605B4A138851880B4491880B4496
:10225000D1880B441289134440F6B73293421CDDF7
:102260005A4B1B78012B4DD0584B1B78022B40F05A
:10227000FA80622004F06EFF002002460146FFF75C
:1022800077FC554B1B78042B40F2ED80534B1868BC
:10229000FEF71EFD06460024D6E0474802F09CFCEF
:1022A00000244B4B1C604E4B1C60224621462046AE
:1022B000FFF75EFCFFF7E8FB4FF4FA6002F000FB6B
:1022C000484E01253570484B05221A70474B1C605B
:1022D000474B1C60474B1C60474B1C600024474B1E
:1022E0005C60474B5C60474B5C60474B5C60474BB6
:1022F000474A1A604FF47A7002F0E2FA3470334BB6
:102300001D70ADE7434B1B7813B3612004F022FF2F
:10231000404A1378013B13701AE0334B08221A70BD
:102320000023324A1360324A1360324A1360324A41
:1023300013600023314A5360314A5360314A53607D
:10234000314A5360314B344A1A60264B01221A70CD
:10235000324B1B78002BE0D0224B00221A70002059
:102360001B4B18601E4B186002460146FFF700FC2D
:102370007AE700BF3C100020A00C00207C0C00205D
:10238000580C0020340C0020C80B0020540D0020F5
:10239000EC0B0020100C0020300D00200C0D002054
:1023A000E80C0020C40C0020540B0020CC0D0020B1
:1023B000EC0E0020580B0020DC090020790D0020D5
:1023C0008010002000080240141100207A0D002027
:1023D000800B00203333B042780D0020B40B002076
:1023E000680B0020500B0020010000209C0B0020F7
:1023F000A00B0020A40B0020A80B0020C41000207C
:10240000D8100020EC100020001100206C0B0020E0
:1024100000003444000000200000F041BC0B00200C
:10242000284D4FF40051284603F094F9FA2002F0A9
:1024300047FA4FF40051284603F08CF9FA2002F0D5
:102440003FFAFFF721FB0134B442E9DB1E4B0022C7
:102450001A7001224FF400511A4803F075F94FF435
:102460007A7002F02DFA194BDE68194BD868FEF726
:102470002BF804460D46174B1868FEF725F8CDE9F2
:102480000601154B1868FEF71FF8CDE90401134B40
:102490001868FEF719F8CDE902013046FEF714F886
:1024A000CDE9000122462B460D4804F03FFE0D4BBE
:1024B0001B78012B7FF4ACAE084B1A680A4B1A60EC
:1024C000A6E600BF00080240780D0020D8100020CA
:1024D000C4100020980B0020940B0020AC0B0020AF
:1024E000E0D400087A0D0020B00B002082B000215B
:1024F00000910B4B5A6C42F480425A645A6C02F4BD
:1025000080420092009A01911A6C42F080521A6443
:102510001B6C03F080530193019B02B0704700BF16
:1025200000380240FEE7FEE7FEE7FEE7FEE7704701
:102530007047704708B502F0B1F908BD08B5024808
:1025400002F08FFB08BD00BFDC09002008B503487E
:1025500003F021FD024803F01EFD08BD840D00209C
:10256000CC0D002008B5024804F0ECFB08BD00BF0C
:102570003C10002008B5024802F018FF08BD00BF5B
:102580007C0F002008B5024802F010FF08BD00BF14
:10259000240A002008B5024802F008FF08BD00BF69
:1025A000DC0F002008B5024804F0CCFB08BD00BFDA
:1025B000801000200120704708B504F03BFD162371
:1025C00003604FF0FF3008BD08B54FF0FF31FFF753
:1025D000F3FFFEE710B503460C4A0D490D480068AD
:1025E00040B10C4800680344521A934206D8094A85
:1025F000136010BD0748084C0460F2E704F01AFDB0
:102600000C2303604FF0FF30F3E700BF000002200F
:1026100000040000800D0020901200207047000090
:1026200000B58DB02422002103A804F02DFD002365
:10263000019302931248134A0260436083604FF68D
:10264000FF72C2600361436183610323039301232B
:102650000593099303A903F001FE50B900230193E8
:10266000029301A9064804F06DF828B90DB05DF891
:1026700004FBFFF7EFFCF1E7FFF7ECFCF6E700BF28
:10268000840D00200000014000B58DB024220021FF
:1026900003A804F0F9FC00230193029312484FF0C1
:1026A00080420260436083604FF0FF32C26003618A
:1026B00083610323039301230593099303A903F083
:1026C000CDFD50B900230193029301A9064804F0FF
:1026D00039F828B90DB05DF804FBFFF7BBFCF1E752
:1026E000FFF7B8FCF6E700BF140E002000B58DB070
:1026F0002422002103A804F0C7FC002301930293C5
:102700001148124A0260436083604FF6FF72C26054
:10271000036183610323039301230593099303A9B1
:1027200003F09CFD50B900230193029301A90648D0
:1027300004F008F828B90DB05DF804FBFFF78AFC37
:10274000F1E7FFF787FCF6E75C0E0020000400408D
:1027500000B58DB02422002103A804F095FC0023CD
:10276000019302931148124A0260436083604FF65E
:10277000FF72C26003618361032303930123059306
:10278000099303A903F06AFD50B900230193029352
:1027900001A9064803F0D6FF28B90DB05DF804FB87
:1027A000FFF758FCF1E7FFF755FCF6E7A40E002011
:1027B0000008004000B585B0002300930193029308
:1027C00003931048104A026009224260836040F27D
:1027D000E732C26003618023836103F0E7FC50B9F4
:1027E0004FF4805300936946064803F03FFE28B932
:1027F00005B05DF804FBFFF72DFCF1E7FFF72AFCBD
:10280000F6E700BF340F00200040014008B50A4839
:102810000A4B0360632343600023836040F2E73286
:10282000C26003618023836103F0C0FC00B908BD6E
:10283000FFF710FCFBE700BFCC0D00200044014077
:1028400070B58EB0002309930A930B930C930D93EC
:1028500003685A4A93420BD0B3F1804F33D0584AA1
:10286000934266D0574A934200F085800EB070BD07
:1028700000250095544B5A6C42F001025A645A6C80
:1028800002F001020092009A01951A6B42F00102D7
:102890001A631B6B03F001030193019B4FF4407318
:1028A000099302230A9301240B940D9409A9474824
:1028B00002F06AFE2A462146192002F0A7FB1920E1
:1028C00002F0DCFBD2E70024029403F50E331A6C0D
:1028D00042F001021A641A6C02F001020292029A9A
:1028E00003941A6B42F001021A631A6B02F00102A0
:1028F0000392039A04941A6B42F002021A631B6B50
:1029000003F002030493049B2023099302260A96F2
:1029100001250D9509A92D4802F036FE08230993DB
:102920000A960B940C940D9509A9294802F02CFEE7
:102930009CE700210591244B1A6C42F002021A64B4
:102940001A6C02F002020592059A06911A6B42F087
:1029500002021A631B6B03F002030693069B3023EB
:10296000099302230A9301220B920D9309A9184897
:1029700002F00AFE7AE700210791134B1A6C42F02D
:1029800004021A641A6C02F004020792079A089172
:102990001A6B42F002021A631B6B03F002030893E6
:1029A000089BC023099302230A9301220B920D93E3
:1029B00009A9074802F0E8FD58E700BF0000014000
:1029C00000040040000800400038024000000240BF
:1029D0000004024000B585B003681D4A934208D048
:1029E0001C4A934212D01C4A93421CD005B05DF899
:1029F00004FB00230193194B1A6C42F008021A647D
:102A00001B6C03F008030193019BEFE70023029383
:102A1000124B5A6C42F480325A645B6C03F480337C
:102A20000293029BE2E7002203920C4B596C41F4A3
:102A3000003159645B6C03F400330393039B012161
:102A4000192002F0E3FA192002F018FBCEE700BFCC
:102A5000000C0040004001400044014000380240AA
:102A600070B586B0002301930293039304930593FA
:102A70000268134B9A4201D006B070BD0026009642
:102A800003F50B331A6B42F001021A631B6B03F060
:102A900001030093009B07230193022402940594F1
:102AA000084D01A9284602F06FFD08230193029406
:102AB00003960494059401A9284602F065FDDBE71E
:102AC000000C00400000024000B58FB000230A93C4
:102AD0000B930C930D930893099301930293039323
:102AE00004930593069307933048314A0260092204
:102AF0004260836040F2E732C260036180238361F9
:102B000003F054FB002839D14FF480530A930AA9EB
:102B1000264803F0ABFC002833D1244803F072FBB5
:102B2000002831D100230893099308A91F4803F016
:102B300009FE60BB6023019300220292039205927A
:102B400001A91A4803F018FC20BB04220DEB020176
:102B5000164803F011FC00BB082201A9134803F03A
:102B60000BFCE8B90C2201A9104803F005FCD0B910
:102B70000E48FFF775FF0FB05DF804FBFFF76AFA28
:102B8000C2E7FFF767FAC8E7FFF764FACAE7FFF79B
:102B900061FACFE7FFF75EFAD7E7FFF75BFADBE70B
:102BA000FFF758FADEE7FFF755FAE1E7EC0E0020F1
:102BB000000C004008B50A480A4B03604FF4E133AB
:102BC000436000238360C36003610C224261836120
:102BD000C36103F021FF00B908BDFFF73BFAFBE733
:102BE0003C1000200010014008B50A480A4B036061
:102BF0004FF4E133436000238360C36003610C2220
:102C000042618361C36103F007FF00B908BDFFF7AC
:102C100021FAFBE7801000200014014030B58BB092
:102C200000230593069307930893099303684A4A80
:102C3000934204D0494A934262D00BB030BD04465F
:102C400000250195464B5A6C42F010025A645A6CAA
:102C500002F010020192019A02951A6B42F00102F1
:102C60001A631B6B03F001030293029B4FF40443AE
:102C7000059302230693032308930723099305A9C9
:102C8000384802F081FC3848384B03604FF000634D
:102C9000436040238360C5604FF4806303614561F6
:102CA0008561C5610562456202F088FA10BB2E4B52
:102CB00063639C632E482F4B03604FF000634360B7
:102CC00000238360C3604FF48062026143618361CB
:102CD000C3610362436202F071FA70B9244BA363CB
:102CE0009C6300221146252002F090F9252002F075
:102CF000C5F9A2E7FFF7AEF9D9E7FFF7ABF9EDE7C2
:102D000000240394164B5A6C42F020025A645A6C09
:102D100002F020020392039A04941A6B42F001021B
:102D20001A631B6B03F001030493049B4FF4C0531D
:102D3000059302230693032308930823099305A907
:102D4000084802F021FC22462146472002F05EF9A5
:102D5000472002F093F970E7001001400014014091
:102D60000038024000000240DC0F0020B86402403E
:102D70007C0F002040640240DFF834D00D480E493B
:102D80000E4A002302E0D458C4500433C4188C42C5
:102D9000F9D30B4A0B4C002301E013600432A2422A
:102DA000FBD3FFF73BFC04F04BF9FFF7A7F97047A3
:102DB0000000022000000020C009002054E10008AB
:102DC000C00900208C120020FEE70000F8B5214F5A
:102DD0003C21384603F050FC1F4E3C21304603F0A6
:102DE0004BFC1E4C3C21204603F046FC1C4D3C2174
:102DF000284603F041FC3A68D36843F00103D360EE
:102E00003268D36843F00103D3602A68D36843F083
:102E10000103D3602268D36843F00103D360114AF1
:102E200000231360536013810021D16013740E4A94
:102E3000136053601381D16013740C4A13605360A4
:102E40001381D16013740A4A136053601381D160F7
:102E50001374F8BD840D00205C0E0020A40E002029
:102E6000140E0020C4100020D8100020EC10002008
:102E70000011002038B5041E10DB114D01224FF463
:102E80008041284602F060FC00224FF400412846B1
:102E900002F05AFC0B4B1B681C6438BD084D012224
:102EA0004FF40041284602F04FFC00224FF48041CD
:102EB000284602F049FC034B1B6864421C64ECE7A3
:102EC00000040240EC0E002038B5041E10DB114D4A
:102ED00000224FF40051284602F036FC01224FF444
:102EE0008051284602F030FC0B4B1B689C6338BDB8
:102EF000084D01224FF40051284602F025FC002223
:102F00004FF48051284602F01FFC034B1B686442BB
:102F10009C63ECE700040240EC0E002038B5041E70
:102F200010DB114D00224FF48041284602F00CFCCA
:102F300001224FF40041284602F006FC0B4B1B68AF
:102F4000DC6338BD084D01224FF48041284602F071
:102F5000FBFB00224FF40041284602F0F5FB034B37
:102F60001B686442DC63ECE700080240EC0E0020C2
:102F700038B5041E0FDB104D00220421284602F054
:102F8000E3FB01224FF48061284602F0DDFB0B4B8E
:102F90001B685C6338BD084D01220421284602F0FD
:102FA000D3FB00224FF48061284602F0CDFB034B97
:102FB0001B6864425C63EDE700040240EC0E0020F5
:102FC0002DE9F04FDDF824B0DDF828A0DDF82C90D5
:102FD000DDF830800D9F0E9E0F9D109C4FF0000C71
:102FE000C0F80CC0C0F814C0DFF8B8E1C0F818E0B1
:102FF000DFF8B4E1C0F820E0C0F810C0C0F81CC091
:10300000DFF8A8E1C0F800E0C0F804C04FF07E5E31
:10301000C0F808E0C1F80CC0C1F814C06448886169
:1030200064480862C1F810C0C1F81CC0624808605A
:10303000C1F804C0C1F808E0C2F80CC0C2F814C05E
:10304000584991615B481062C2F810C0C2F81CC0B8
:1030500056481060C2F804C0C2F808E0C3F80CC0BB
:10306000C3F814C09961534A1A62C3F810C0C3F878
:103070001CC051481860C3F804C0C3F808E0CBF87E
:103080000CC0CBF814C04D4BCBF818304C4ACBF8E1
:103090002020CBF810C0CBF81CC0CBF800E0CBF858
:1030A00004C0CBF808E0CAF80CC0CAF814C0454AFE
:1030B000CAF81820CAF82010CAF810C0CAF81CC0F4
:1030C000414ACAF80020CAF804C0CAF808C0C9F8C2
:1030D0000CC0C9F814C0C9F818C03349C9F8201089
:1030E000C9F810C0C9F81CC0384AC9F80020C9F88E
:1030F00004C0374AC9F80820C8F80CC0C8F814C082
:10310000C8F818C0C8F82010C8F810C0C8F81CC00B
:10311000304AC8F80020C8F804C0C8F808C0C7F88A
:103120000CC0C7F814C0BB612B4A3A62C7F810C084
:10313000C7F81CC0C7F800E0C7F804C0C7F808E02B
:10314000C6F80CC0C6F814C0B3613262C6F810C02D
:10315000C6F81CC0C6F800E0C6F804C0C6F808E00F
:10316000C5F80CC0C5F814C0AB612A62C5F810C020
:10317000C5F81CC0C5F800E0C5F804C0C5F808E0F3
:10318000C4F80CC0C4F814C0A3612262C4F810C013
:10319000C4F81CC0C4F800E0C4F804C0C4F808E0D7
:1031A000BDE8F08F00409C4500007A449A99193E92
:1031B0000000FA4300401C46713D8A3E000048442E
:1031C00000004843000048420000F04100008C42EB
:1031D000000016430000A0400000C84200000000AC
:1031E0002DE9F04704460D4611462846FDF7A0FAA2
:1031F000E060FDF769F906460F464DA3D3E90023C9
:10320000FDF71AFA48B14CA3D3E9002330463946FA
:10321000FDF730FA08B10023E360E76861693846DA
:10322000FDF788FA6061D4F804804146FDF78AFB17
:103230000646D4F818A00AF100494946FDF720FDDA
:10324000002840D041464846FDF730FC606100212F
:103250002846FDF70BFD08B100236361216838465D
:10326000FDF770FB064661694046FDF76BFB0146C2
:103270003046FDF75FFA0646D4F8088021693846E3
:10328000FDF756FA01464046FDF75CFB0146304625
:10329000FDF750FAE169FDF74DFA0646E0610021BD
:1032A0002846FDF701FD38B300213046FDF7E8FC64
:1032B000A8B9D4F8208041463046FDF7FFFC80B124
:1032C000C4F81C800DE051463046FDF7F7FC00289D
:1032D000BDD041465046FDF7E9FB6061B7E70023EA
:1032E000E361276100212846FDF7C0FC08B10023F7
:1032F000E361E069BDE8F08700212846FDF7C0FCE6
:103300000028EED0D4F8208008F10048414630462D
:10331000FDF7B6FC10B1C4F81C80E2E7002130468E
:10332000FDF7CCFC0028DCD00023E361D9E700BF27
:103330007B14AE47E17A843F7B14AE47E17A84BFC9
:103340002DE9F84304460D461646C068FDF7BCF863
:103350008046894634A3D3E90023FDF76DF948B1CF
:1033600033A3D3E9002340464946FDF783F908B16A
:103370000023E36031462846FDF7DAF90546E060B0
:103380006169FDF7D7F9606167683946FDF7DAFAD8
:103390000646D4F8188008F100494946FDF770FC4C
:1033A000002832D039464846FDF780FB606121682D
:1033B0002846FDF7C7FA064661693846FDF7C2FAA6
:1033C00001463046FDF7B6F90646A768216928464A
:1033D000FDF7AEF901463846FDF7B4FA014630462E
:1033E000FDF7A8F9E061266A3146FDF767FC00B1F8
:1033F000E66106F100463146E069FDF741FC00B1A7
:10340000E6612561E069BDE8F88341463046FDF795
:1034100055FC0028CBD039464046FDF747FB60619C
:10342000C5E700BFAFF300809A9999999999B93F80
:103430009A9999999999B9BF2DE9F84304460E468E
:10344000154611463046FDF773F907464449FDF726
:1034500035FC002864D043492846FDF76BF9054642
:10346000E068FDF731F88046894639A3D3E90023A7
:10347000FDF7E2F848B138A3D3E9002340464946B6
:10348000FDF7F8F808B10023E36029463046FDF760
:103490004FF90546E0606169FDF74CF960616768C6
:1034A0003946FDF74FFA0646D4F8188008F100496E
:1034B0004946FDF7E5FB00283ED039464846FDF772
:1034C000F5FA606121682846FDF73CFA0646616915
:1034D0003846FDF737FA01463046FDF72BF9064628
:1034E000A76821692846FDF723F901463846FDF70C
:1034F00029FA01463046FDF71DF9E061266A31469A
:10350000FDF7DCFB00B1E66106F100463146E069FB
:10351000FDF7B6FB00B1E6612561E069BDE8F8831F
:1035200011493846FDF7ACFB002899D00D492846D3
:10353000FDF7FEF8054693E741463046FDF7BEFB32
:103540000028BFD039464046FDF7B0FA6061B9E7C0
:103550009A9999999999B93F9A9999999999B9BFCD
:10356000000034430000B443000034C3134B1888F8
:103570005988B3F804C0DA881B8901EB400102EBDB
:103580004303C81AFA38BCF5487F09D3002808DD80
:10359000BCF5AF6F05D2C1F56F50043040007047E5
:1035A0000020002800DB704740F653329445FAD8DB
:1035B000A3F5685034384000F5E700BF580B0020F1
:1035C0002DE9F84304460D461646C768314938468A
:1035D000FDF756FB30B130493846FDF76FFB08B1B7
:1035E0000023E36031462846FDF7A2F80546E06077
:1035F0006169FDF79FF8606167683946FDF7A2F9D8
:103600000646D4F8188008F100494946FDF738FB12
:10361000002832D039464846FDF748FA60612168F3
:103620002846FDF78FF9064661693846FDF78AF9A5
:1036300001463046FDF77EF80646A7682169284610
:10364000FDF776F801463846FDF77CF9014630462D
:10365000FDF770F8E061266A3146FDF72FFB00B1F7
:10366000E66106F100463146E069FDF709FB00B16D
:10367000E6612561E069BDE8F88341463046FDF723
:103680001DFB0028CBD039464046FDF70FFA60619C
:10369000C5E700BF00007A4400007AC42DE9F0417C
:1036A00000231C4603E0212A0AD00133DBB2C72BDA
:1036B00019D84E4AD25C3D2AF5D15C1CE4B2F2E73F
:1036C000013BDBB2494A125D2D2A0ED000251B1B9F
:1036D000DBB20133DBB2042B0BD0052B2ED0062B33
:1036E00053D0002026E00023ECE70134E4B20125AA
:1036F000EDE73E4F17F80480A8F13008A31CF85CF2
:103700003038FDF7CBF83A49FDF71CF9064640463C
:10371000FDF7C4F83146FDF70DF806460334385D71
:103720003038FDF7BBF83349FDF70CF90146304658
:10373000FDF700F8002D55D1BDE8F0812B4F3B5D22
:10374000303B03EB8303621CBE5C303E06EB43065A
:10375000E31CF85C3038FDF7A1F82549FDF7F2F8D5
:1037600080463046FDF79AF84146FCF7E3FF0646EF
:103770000434385D3038FDF791F81E49FDF7E2F862
:1037800001463046FCF7D6FFD4E7184F3A5D303A91
:10379000631CFB5C303B03EB83035E00642303FB91
:1037A0000266A31CFB5C303B1E44231DF85C3038D2
:1037B000FDF774F80E49FDF7C5F880463046FDF771
:1037C0006DF84146FCF7B6FF06460534385D3038E3
:1037D000FDF764F80749FDF7B5F801463046FCF7F8
:1037E000A9FFA7E700F10040A6E700BF880A002074
:1037F000CDCCCC3D0AD7233C38B50446FFF74EFF6D
:10380000012C00D038BD0546424B1B78502B2ED0E2
:10381000492B33D0442B38D0502B3DD0492B42D0AC
:10382000442B47D0532B4CD0502B55D0632BE9D190
:10383000384B5B78612BE5D1364B9B786E2BE1D111
:10384000354B1B78012B56D0334B1B78022BD9D12B
:10385000324B1868324A10601D602946FDF706FA9F
:103860000028CFD02F4A137801331370CAE7294AB2
:103870005278312ACCD12C4B1860C3E7254A5278B4
:10388000312AC7D1284B5D60BCE7224A5278312AE1
:10389000C2D1254B9D60B5E71E4A5278322ABDD170
:1038A000224B1D60AEE71B4A5278322AB8D11F4B1B
:1038B0005D60A7E7174A5278322AB3D11B4B9D604F
:1038C000A0E7144A5278702AAED1124A9278652A3B
:1038D000AAD1174B1D6095E70E4A52786F2AA5D1E1
:1038E0000C4A9278732AA1D112492846FDF72AF88A
:1038F000114B186086E7114B01221A70074B1D60AF
:103900002A4600210E48FFF75BFE00F100430D4AF6
:10391000136099E7880A00207A0D0020B40B00207C
:10392000B80B0020780D0020100C0020EC0B0020BC
:10393000640B00200000B4436C0B0020BC0B002083
:10394000C80B0020680B002010B514464FF47A73A2
:1039500092B2024803F08FF8204610BD801000207C
:103960008446002004E01CF803201044C0B219462D
:103970004B1E0029F7DC704742B10132034603E0D9
:1039800011F801CB03F801CB013AF9D170470000DF
:103990002DE9F041884615461E46069F18B101469E
:1039A0000A4803F0C3FB002404E0315D284603F01D
:1039B000BDFB0134BC42F8D3B8F1000F03D041463F
:1039C000024803F0B3FBBDE8F08100BF18D5000842
:1039D00030B583B004460D460A4601460320FFF782
:1039E000B3FF00952346034A03490448FFF7D0FF7D
:1039F00003B030BD1CD50008A0D6000824D50008AF
:103A00002DE9F04383B004460378023B362B3BD8C4
:103A1000DFE813F037003D00450049004D0051003C
:103A200055003A003A003A003A003A003A003A00AB
:103A30003A005900E403E803EC03F003F403F8034D
:103A4000200424043A003A003A003A003A003A00CE
:103A500028042C04440449044F0454043A00660426
:103A60003A003A006B04700475047A0483048804F5
:103A70008E049304410099049E04A504AA04B00492
:103A80001E05A54803F0BCFB03B0BDE8F083A348C6
:103A900003F0B6FBF8E7A24803F0B2FBF4E7A14855
:103AA00003F0AEFBF0E7A04803F0AAFBECE79F4869
:103AB00003F0A6FBE8E79E4803F0A2FBE4E79D487D
:103AC00003F09EFBE0E78678437843EA062613F08E
:103AD000010F62D1072516F0020F40F0B98016F0F1
:103AE000040F40F0478116F0080F40F0A68116F051
:103AF000100F40F0058216F0200F40F04C8216F0B7
:103B0000400F10D02B1DDBB2E2185278E05C40EA87
:103B1000022000B2FCF7C2FE8749FCF713FF06350E
:103B2000EDB2864B186016F0800F1ED063195B78DB
:103B3000605D40EA032000B2FCF7B0FE8049FCF76C
:103B4000B5FF0746AB1CDBB2E2185278E05C40EAF6
:103B5000022000B2FCF7A2FE7949FCF7A7FF063568
:103B6000EDB2784B1F60784B186016F4807F40F000
:103B70008F8216F4007F40F0C38216F4806F40F00D
:103B8000228316F4006F3FF47FAF615D01F00F02F6
:103B900009096E4803F0CAFA76E7037AC07940EA69
:103BA000032000B2FCF77AFE6949FCF7CBFE8046A1
:103BB000FCF78AFC02460B46664803F0B7FAA37A84
:103BC000607A40EA032000B2FCF768FE6049FCF727
:103BD000B9FE0746FCF778FC02460B465E4803F048
:103BE000A5FA237BE07A40EA032000B2FCF756FEF8
:103BF0005749FCF7A7FE0546FCF766FC02460B4654
:103C0000564803F093FA41464046FCF79BFE804637
:103C100039463846FCF796FE01464046FCF78AFDD9
:103C2000074629462846FCF78DFE01463846FCF734
:103C300081FDFCF749FC09F019FBFCF725FDFCF7B9
:103C400043FC02460B46464803F070FA0D2542E756
:103C500063195B78605D40EA032000B2FCF71EFE4A
:103C60003B49FCF76FFE8146AF1CFFB2FCF72CFC12
:103C700002460B463B4803F059FAE3195B78E05DD6
:103C800040EA032000B2FCF709FE3149FCF75AFE76
:103C900080462F1DFFB2FCF717FC02460B46324848
:103CA00003F044FAE3195B78E05D40EA032000B2D8
:103CB000FCF7F4FD2649FCF745FE07460635EDB254
:103CC000FCF702FC02460B46284803F02FFA49464F
:103CD0004846FCF737FE814641464046FCF732FE37
:103CE00001464846FCF726FD804639463846FCF733
:103CF00029FE01464046FCF71DFDFCF7E5FB09F0F7
:103D0000B5FAFCF7C1FCFCF7DFFB02460B4618488E
:103D100003F00CFAE3E600BF34D500084CD50008E8
:103D200064D5000880D500089CD50008B8D50008E7
:103D3000DCD5000814D600080000B43BAC0B002012
:103D400000007A44940B0020980B002018D800083B
:103D5000CDCC9C3B3CD6000848D6000854D6000881
:103D600060D6000870D600087CD6000888D6000807
:103D700094D6000863195B78605D40EA032000B2C6
:103D8000FCF78CFDAE49FCF7DDFD8146AF1CFFB2B0
:103D9000FCF79AFB02460B46AA4803F0C7F9E31961
:103DA0005B78E05D40EA032000B2FCF777FDA449B0
:103DB000FCF7C8FD80462F1DFFB2FCF785FB0246CD
:103DC0000B46A14803F0B2F9E3195B78E05D40EAE5
:103DD000032000B2FCF762FD9949FCF7B3FD0746EA
:103DE0000635EDB2FCF770FB02460B46974803F030
:103DF0009DF949464846FCF7A5FD814641464046A7
:103E0000FCF7A0FD01464846FCF794FC8046394685
:103E10003846FCF797FD01464046FCF78BFCFCF763
:103E200053FB09F023FAFCF72FFCFCF74DFB02468D
:103E30000B46874803F07AF955E663195B78605DB5
:103E400040EA032000B2FCF729FD8249FCF77AFD25
:103E50008146AF1CFFB2FCF737FB02460B467E489B
:103E600003F064F9E3195B78E05D40EA032000B2F7
:103E7000FCF714FD7749FCF765FD80462F1DFFB266
:103E8000FCF722FB02460B46744803F04FF9E31996
:103E90005B78E05D40EA032000B2FCF7FFFC6D496F
:103EA000FCF750FD07460635EDB2FCF70DFB024668
:103EB0000B466B4803F03AF949464846FCF742FD89
:103EC000814641464046FCF73DFD01464846FCF729
:103ED00031FC804639463846FCF734FD0146404601
:103EE000FCF728FCFCF7F0FA09F0C0F9FCF7CCFB72
:103EF000FCF7EAFA02460B465A4803F017F9F6E5D2
:103F000063195B78605D40EA032000B2FCF7C6FCF1
:103F10005549FCF717FDAF1CFFB2FCF7D5FA024676
:103F20000B46524803F002F9E3199A785B781B02BA
:103F300043EA0243E05D184313F4000F01D040F060
:103F40007F40FCF7ABFC4A49FCF7FCFC6F1DFFB25D
:103F5000FCF7BAFA02460B46464803F0E7F8E319C5
:103F60009A785B781B0243EA0243E05D184313F43E
:103F7000000F01D040F07F40FCF790FC3E49FCF779
:103F8000E1FC0835EDB2FCF79FFA02460B463B48D0
:103F900003F0CCF8AFE563195B78605D40EA03207D
:103FA00000B2FCF77BFC4FF06051FCF7CBFCAF1C80
:103FB000FFB2FCF789FA02460B46314803F0B6F827
:103FC000E3195B78E05D40EA032000B2FCF766FC91
:103FD0004FF06051FCF7B6FC2F1DFFB2FCF774FAEE
:103FE00002460B46274803F0A1F8E3195B78E05D31
:103FF00040EA032000B2FCF751FC4FF06051FCF79F
:10400000A1FCAF1DFFB2FCF75FFA02460B461E484B
:1040100003F08CF8E3195B78E05D40EA032000B21E
:10402000FCF73CFC4FF06051FCF78CFC0835EDB21E
:10403000FCF74AFA02460B46144803F077F85EE5AF
:1040400000007A3DA4D60008B0D60008BCD600080F
:10405000C8D6000800B01A3ED8D60008E4D600083A
:10406000F0D60008FCD600080AD7233C0CD700087D
:1040700000007A3924D7000800A08C3A3CD7000809
:104080004CD7000858D7000864D7000870D700083C
:104090006219D17893781B0443EA0163527843EAAA
:1040A0000223615D2F1DFFB21943B54803F03EF8AE
:1040B000E75D0535EDB217F0010F19D0B149B248EF
:1040C00003F034F817F0020F14D0AE49AF4803F0F4
:1040D0002DF817F0040F0FD0AA49AD4803F026F8C9
:1040E00017F0080F0AD0A749AA4803F01FF840E5C7
:1040F000A949E4E7A849E9E7A749EEE7A649F3E7B4
:1041000063195B78605D40EA032000B2FCF7C6FBF0
:10411000A249FCF717FC8146AF1CFFB2FCF7D4F9AB
:1041200002460B469E4803F001F8E3195B78E05D18
:1041300040EA032000B2FCF7B1FB9849FCF702FC0F
:1041400080462F1DFFB2FCF7BFF902460B4695488B
:1041500002F0ECFFE3195B78E05D40EA032000B277
:10416000FCF79CFB8D49FCF7EDFB07460635EDB2ED
:10417000FCF7AAF902460B468B4802F0D7FF4946E6
:104180004846FCF7DFFB814641464046FCF7DAFB38
:1041900001464846FCF7CEFA804639463846FCF7D9
:1041A000D1FB01464046FCF7C5FAFCF78DF909F052
:1041B0005DF8FCF769FAFCF787F902460B467B4885
:1041C00002F0B4FFD9E463195978635D0235EDB2AA
:1041D00043EA0121764802F0A9FFD2E4754803F0D2
:1041E0000FF851E4744803F00BF84DE4734803F002
:1041F00007F849E4724803F003F845E4714802F017
:10420000FFFF41E44178FF290CD0FE290ED0FD29A3
:1042100010D0FC2912D0FB2914D0B9B16A4802F0A1
:1042200085FF31E4694802F0EBFF2DE4684802F0B5
:10423000E7FF29E4674802F0E3FF25E4664802F05F
:10424000DFFF21E4654802F0DBFF1DE4644802F073
:10425000D7FF19E4634802F0D3FF15E4624802F087
:10426000CFFF11E4614802F0CBFF0DE4604F614ED7
:10427000614D4FF00908CDF80080431C3A463146A5
:104280002846FFF785FBCDF8008004F10A033A4683
:1042900031462846FFF77CFBFFF7F6BB574802F094
:1042A000AFFFFFF7F1BB411C554802F03FFFFFF79E
:1042B000EBBB544802F0A4FFFFF7E6BB417852483D
:1042C00002F034FFA178514802F030FFE178504805
:1042D00002F02CFF21794F4802F028FFFFF7D4BBF2
:1042E0004D4802F08DFFFFF7CFBB4C4802F088FF2E
:1042F000FFF7CABB4A4802F083FFFFF7C5BB494836
:1043000002F07EFFFFF7C0BB417801EB810149005D
:10431000454802F00BFFFFF7B7BB444802F070FFBF
:10432000FFF7B2BB4178424802F000FFFFF7ACBB99
:10433000404802F065FFFFF7A7BB41783E4802F016
:10434000F5FEFFF7A1BB3D4802F05AFFFFF79CBB0B
:10435000827841783A4802F0E9FEFFF795BB394888
:1043600002F04EFFFFF790BB4178374802F0DEFEC7
:10437000FFF78ABB354802F043FFFFF785BB00BF5C
:104380007CD7000830D500088CD700089CD70008DF
:10439000ACD70008BCD700082CD50008CDCC9C3B7E
:1043A000CCD70008DCD70008ECD70008FCD7000801
:1043B0000CD8000830D800084CD800086CD8000889
:1043C000A8D80008E0D80008BCD90008F8D8000830
:1043D00028D9000848D9000874D9000898D90008DD
:1043E000E4D9000800DA000814DA000828DA000826
:1043F00048DA000850DA000854DA000870DA0008D9
:1044000088DA0008A0DA0008D8DA0008F8DA00082C
:1044100010DB00082CDB000844DB000858DB000838
:1044200068DB00087CDB0008A0DB0008C4DB0008B8
:10443000F8DB000824DC00083CDC00084CDC000849
:1044400074DC000894DC0008B0DC0008C4DC000860
:104450004178024802F06AFEFFF716BBDCDC000878
:1044600070B594B006460D460DF1040C274C0FCCE8
:10447000ACE80F000FCCACE80F000FCCACE80F009D
:1044800023682CF8023B1B0C8CF800300023CDF87D
:104490003730CDF83B30CDF83F30CDF84330CDF854
:1044A0004730CDF84A306B1EDBB2122B28D856B3FA
:1044B00049238DF83630164B1B788DF837308DF840
:1044C00038502A4631460DF13900FFF755FAA91C3C
:1044D0000DF13700FFF744FA05F185030DEB0304F6
:1044E00004F84C0C05F186036B444D2203F84C2C68
:1044F00005F1370101A8FFF76BFA002014B070BD79
:104500004FF0FF30FAE74FF0FF30F7E760D40008D4
:104510000800002008B50346494A117808181070B1
:10452000484A1078052800F28580DFE800F003157E
:10453000283D5065492B00D008BD434900220A7030
:1045400001230B7041494FF0490C81F800C03C49F0
:104550000A703C4A1370EFE73B490A7802F1010CFC
:1045600081F800C039498B54FF2B04D00130354B02
:1045700018700020E0E70020324B1870DCE7324969
:104580000A7802F1010C81F800C030498B54013BDC
:10459000DBB2482B03D900202A4B1870CCE701303E
:1045A000284B18700020C7E7274991F800C00CF18C
:1045B0000102D2B20A70254901F80C308B7802331F
:1045C00093423BDA01301F4B18700020B4E71C4ABD
:1045D0001170994203D000201A4B1870ACE71A49A9
:1045E0000A7802F1010C81F800C018498B5401309F
:1045F000144B187000209FE7124A002111704D2BB8
:1046000001D0002098E710490878421CD2B20A7005
:104610000E490B5449780E4B1B78994203D0FF2B5F
:1046200001D0002088E7053AD1B20A48FFF7E8F93F
:10463000012081E70020034B18707DE700207BE715
:10464000E8110020E91100203A120020EC110020AE
:1046500008000020EF11002000B583B003238DF87F
:104660000430054802F0CCFD012101A8FFF7F8FE57
:1046700003B05DF804FB00BFECDC000800B583B0BC
:1046800019238DF80430054802F0BAFD012101A874
:10469000FFF7E6FE03B05DF804FB00BFFCDC00089A
:1046A00010B584B0BDF82CC01224019400240294EB
:1046B000CDF80B408DF805008DF806108DF8072019
:1046C0009DF81820520002F0060203F001031A437D
:1046D0008DF808209DF81C308DF809309DF82030A9
:1046E0008DF80A309DF824308DF80B309DF8283075
:1046F0008DF80C308DF80DC04FEA1C2C8DF80EC0D3
:10470000044802F07DFD0B2101A8FFF7A9FE04B0CB
:1047100010BD00BF10DD000800B583B005238DF883
:104720000430054802F06CFD012101A8FFF798FE56
:1047300003B05DF804FB00BF24DD000808B5054B9D
:104740001860054B1868002302221946806802F0A1
:104750005FFD08BD3C12002010000020022801D897
:104760000120704708B502F065FC092303600020B2
:1047700008BD000010B5013801280AD814464FF0D2
:10478000FF3392B20748006802F075F940B920463D
:1047900010BD02F04FFC092303604FF0FF30F7E734
:1047A0000520F5E73C120020022801D800207047C0
:1047B00008B502F03FFC092303604FF0FF3008BD4D
:1047C00008B502F037FC092303604FF0FF3008BD45
:1047D00008B548B94FF0FF3301220848006802F0DD
:1047E000B6F940B9012008BD02F024FC092303609A
:1047F0004FF0FF30F7E70520F5E700BF3C1200203F
:1048000008B5022804D84FF400534B60002008BDBF
:1048100002F010FC09230360F8E7000010B504461D
:104820000E4B18784FF47A73B3FBF0F30C4A106810
:10483000B0FBF3F000F030FC68B90F2C01D9012077
:104840000AE0002221464FF0FF3000F0DFFB054B6D
:104850001C60002000E0012010BD00BF0900002006
:10486000040000200C00002008B50B4B1A6842F42D
:1048700000721A601A6842F480621A601A6842F480
:1048800080721A60032000F0AFFB0F20FFF7C6FF15
:10489000FDF72CFE002008BD003C0240034A1168D1
:1048A000034B1B780B441360704700BF401200207D
:1048B00009000020014B1868704700BF401200201B
:1048C00038B50446FFF7F6FF0546B4F1FF3F02D0C6
:1048D000044B1B781C44FFF7EDFF401BA042FAD3AA
:1048E00038BD00BF090000204A4B5A6822F440320C
:1048F0005A605A6841680A435A600268536823F450
:104900008073536002685368016943EA012353606E
:104910000268536823F040735360026853688168EB
:104920000B4353600268936823F40063936002684A
:104930009368C1680B439360826A374B9A4257D0A1
:104940000268936823F07063936002689368816AD9
:104950000B4393600268936823F0405393600268AE
:104960009368C16A0B4393600268936823F0020363
:10497000936002689368017E43EA4103936090F874
:104980002030002B3FD00268536843F4006353602B
:104990000268536823F46043536001684B68426ABD
:1049A000013A43EA42334B600268D36A23F470034E
:1049B000D3620168CB6AC269013A43EA0253CB620F
:1049C0000268936823F4007393600268936890F818
:1049D000301043EA412393600268936823F48063B4
:1049E000936002689368416943EA8123936070474A
:1049F0000268936823F0706393600268936823F001
:104A000040539360B0E70268536823F40063536037
:104A1000CAE700BF002301400100000F38B310B502
:104A20000446036C43B1236C13F0100F0BD001202C
:104A3000002384F83C3010BDFCF716FF00236364AC
:104A400084F83C30EFE7236C23F4885323F002030F
:104A500043F0020323642046FFF746FF0020606412
:104A6000236C23F0030343F001032364E0E70120F8
:104A70007047000010B582B013460022019290F8F2
:104A80003C20012A00F094800446012280F83C205A
:104A90000268906810F0010F13D1906840F0010097
:104AA0009060464A1068464AA2FB0020800C00EB4A
:104AB0004000019002E0019801380190019800281F
:104AC000F9D12268906810F4807F03D0906820F4B8
:104AD000807090602268906810F0010F5DD0206CAB
:104AE00020F4E06020F0010040F4807020645268FF
:104AF00012F4806F05D0226C22F4405242F48052AE
:104B00002264226C12F4805F34D0626C22F00602C0
:104B10006264002284F83C20A26B2A48D063A26B16
:104B200029481064A26B2948D06422686FF02200E3
:104B300010602068426842F08062426020688268AB
:104B400042F48072826020680A4600F14C01A06B3A
:104B500000F09AFB1E4B5B6813F01F0F0DD123680A
:104B60009A6812F0405F25D19A6842F080429A60BC
:104B700000201BE000226264CBE72368154A9342C1
:104B800001D0002012E09A6812F0405F14D19A68B8
:104B900042F080429A60002008E0236C43F010034A
:104BA0002364636C43F001036364002002B010BD12
:104BB0000220FBE70020F9E70020F7E704000020CF
:104BC00083DE1B43C74D0008554C0008B14D00085B
:104BD000002301400020014090F83C30012B35D0EB
:104BE00010B50446012380F83C300268936823F036
:104BF0000103936003689A6812F0010F21D19A684B
:104C000022F480729A60806B90F83530DBB2022B10
:104C10000ED000202268536823F080635360236C19
:104C200023F4885323F0010343F00103236409E0D4
:104C300000F05FFB0028EDD0236C43F040032364B9
:104C4000E8E70020002384F83C3010BD02207047C4
:104C50007047704708B5806BFFF7FBFF08BD7047D2
:104C6000704738B5044602681168536811F0020FA6
:104C70002FD003F0200363B3036C13F0100F03D1A4
:104C8000036C43F400730364936813F0405F19D11D
:104C9000237EBBB9D36A13F4700F03D0936813F467
:104CA000806F0FD1536823F020035360236C23F4EB
:104CB00080732364236C13F4805F03D1236C43F06F
:104CC000010323642046FFF7C3FF23686FF012023D
:104CD0001A60236819685A6802F0800211F0040F04
:104CE00036D0002A34D0226C12F0100F03D1226C7F
:104CF00042F4005222649A6812F4401F21D19A6B48
:104D000012F4401F03D09A6812F4806F19D15A68C8
:104D100012F4806F15D19A6812F0405F11D1227E93
:104D20007AB95A6822F080025A60236C23F48053C7
:104D30002364236C13F4807F03D1236C43F00103BD
:104D40002364204600F04EF923686FF00C021A60CD
:104D500022681168536803F0400311F0010F04D07A
:104D60001BB1136813F0010F09D122681168536851
:104D700003F0806311F0200F00D063B938BD236CBD
:104D800043F4803323642046FFF769FF23686FF004
:104D900001021A60E9E7636C43F0020363646FF099
:104DA000200515602046FFF75BFF23681D60E5E7DF
:104DB00008B5806B40230364436C43F004034364F1
:104DC000FFF74EFF08BD08B50346806B026C12F07A
:104DD000500F25D1036C43F40073036403689A6891
:104DE00012F0405F19D1027EBAB9DA6A12F4700F7C
:104DF00003D09A6812F4806F0FD15A6822F0200213
:104E00005A60036C23F480730364036C13F4805FB3
:104E100003D1036C43F001030364FFF719FF08BDDE
:104E2000026C12F0100F04D1826BD26C18469047BE
:104E3000F5E7FFF715FFF2E730B482B000230193E6
:104E400090F83C30012B00F0C080012380F83C300A
:104E50000B68092B41D90468E2689BB203EB43035A
:104E60001E3B4FF0070C0CFA03F322EA0303E36046
:104E70000468E2680B8803EB43031E3B8D6805FA68
:104E800003F31343E3604B68062B3DD80468626B61
:104E900003EB8303053B4FF01F0C0CFA03F322EAEC
:104EA000030363630468626B4B6803EB8303053B96
:104EB000B1F800C00CFA03F3134363630268444B78
:104EC0009A4251D00268424B9A425AD0002380F84D
:104ED0003C30184602B030BC7047046822699BB26F
:104EE00003EB43034FF0070C0CFA03F322EA03032E
:104EF0002361046822690B8803EB43038D6805FA7C
:104F000003F313432361BEE70C2B16D805682A6B05
:104F100003EB8303233B1F2404FA03F322EA030376
:104F20002B6305682A6B4B6803EB8303233B0C88D8
:104F300004FA03F313432B63C0E70568EA6A03EB43
:104F40008303413B1F2404FA03F322EA0303EB62C9
:104F50000568EA6A4B6803EB8303413B0C8804FA5B
:104F600003F31343EB62A9E70B68122BAAD1194B89
:104F70005A6822F400025A605A6842F480025A6069
:104F8000A0E70B68144A934201D0112B9ED1114B1C
:104F90005A6822F480025A605A6842F400025A6049
:104FA0000A680D4B9A4291D10C4B1B680C4AA2FB2C
:104FB00003239B0C03EB83035B000193019B002BFA
:104FC00084D0019B013B0193F8E7022082E700BFF8
:104FD00000200140002301401200001004000020C6
:104FE00083DE1B4370470000074AD36823F4E06365
:104FF0001B041B0C000200F4E060034343F0BF639A
:1050000043F40033D360704700ED00E000B5194B66
:10501000DB68C3F30223C3F1070CBCF1040F28BF04
:105020004FF0040C03F1040EBEF1060F18D9033B38
:105030004FF0FF3E0EFA0CFC21EA0C0199400EFAEB
:1050400003F322EA0303194300280BDB0901C9B269
:1050500000F1604000F5614080F800135DF804FB4A
:105060000023E5E700F00F000901C9B2024B195413
:10507000F4E700BF00ED00E014ED00E0002807DBDE
:1050800000F01F02400901239340024A42F82030F9
:10509000704700BF00E100E00138B0F1807F0BD223
:1050A0004FF0E0235861054AF02182F823100020D8
:1050B000986107221A6170470120704700ED00E0F7
:1050C00030B405682C6824F480242C600468636084
:1050D0008368402B05D0036899600368DA6030BCB0
:1050E000704703689A600368D960F8E710B40368F2
:1050F000D9B210390B4AA2FB014212090A4CA25C38
:10510000C2655F2908D923F47F7323F003030433B6
:105110008365806D10BC704723F47F7323F0030315
:105120008365F6E7ABAAAAAA38DD0008836A82691C
:1051300092B9012B0AD0022B02D00BB1002070478C
:10514000C36A13F0807F28D100207047C36AB3F18F
:10515000C07F24D000207047B2F5005F09D0022B39
:1051600025D9032B25D1C36A13F0807F23D10020DA
:105170007047032B03D8DFE803F01404140A00205F
:105180007047C36A13F0807F0DD100207047C36A57
:10519000B3F1C07F09D00020704701207047012083
:1051A000704701207047012070470120704701209F
:1051B00070470020704701207047000070B504461A
:1051C000FFF778FB002C5BD00546022384F83530CE
:1051D000002384F834302268136823F0010313603D
:1051E00023681A6812F0010F0AD0FFF763FB431B14
:1051F000052BF5D920236365032084F8350070BDA5
:105200001A68204810406168A2680A43E1680A43AE
:1052100021690A4361690A43A1690A43E1690A43B2
:10522000216A0A430243616A04291ED01A60266873
:10523000756925F00705636A1D43042B07D1A36A2E
:105240001D43E36A1BB12046FFF770FF90B97561FB
:105250002046FFF74BFFE26D3F2393408360002021
:105260006065012384F83530C9E7E16A206B0143AA
:105270000A43DBE740236365012084F83500BEE77D
:105280000120BCE73F8010F038B50446856D90F8EA
:10529000340001282BD0012084F8340094F8350024
:1052A000C0B2012804D0002384F83430022038BD75
:1052B000022084F83500002060652046FFF700FFDB
:1052C000E26D3F239340AB602268136843F01603FE
:1052D0001360236C23B12268136843F00803136042
:1052E0002268136843F0010313600020DFE7022007
:1052F000DDE770B50446866DFFF7DCFA94F83530CB
:10530000DBB2022B06D080236365002384F834309F
:10531000012070BD05462268136823F01603136050
:105320002268536923F080035361236CE3B1226840
:10533000136823F0080313602268136823F0010345
:10534000136023681B6813F0010F11D0FFF7B2FA46
:10535000431B052BF5D920236365032084F8350012
:10536000002384F83430D4E7A36C002BDFD1E3E7CB
:10537000E26D3F239340B360012384F83530002071
:1053800084F83400C5E790F83530DBB2022B03D047
:105390008023436501207047052380F8353002687B
:1053A000136823F00103136000207047F0B583B049
:1053B000044600230193724B1D68724BA3FB053515
:1053C000AD0A876D3E68C26D08239340334210D00A
:1053D00003681A6812F0040F0BD01A6822F0040256
:1053E0001A60C26D08239340BB60436D43F0010314
:1053F0004365E26D01239340334209D0226852692C
:1054000012F0800F04D0BB60636D43F0020363654C
:10541000E26D04239340334209D02268126812F0EF
:10542000020F04D0BB60636D43F004036365E26D5B
:1054300010239340334224D02268126812F0080FE0
:105440001FD0BB6023681A6812F4802F0DD01B6830
:1054500013F4002F04D1236C9BB12046984710E031
:10546000A36C73B1204698470BE01A6812F4807F52
:1054700003D11A6822F008021A60236C0BB120468F
:105480009847E26D20239340334255D0226812683A
:1054900012F0100F50D0BB6094F83530DBB2052B02
:1054A0000ED023681A6812F4802F33D01B6813F4CF
:1054B000002F2AD1636C002B3ED0204698473BE05A
:1054C0002268136823F0160313602268536923F0DF
:1054D00080035361236CA3B12268136823F008038F
:1054E0001360E26D3F239340BB60012384F83530A5
:1054F000002384F83430236D002B3FD0204698479A
:105500003CE0A36C002BE7D1EBE7E36BA3B12046B3
:10551000984711E01A6812F4807F09D11A6822F0C6
:1055200010021A60012384F83530002384F83430E7
:10553000E36B0BB120469847636DFBB1636D13F0CD
:10554000010F17D0052384F835302268136823F043
:1055500001031360019B01330193AB4204D823681C
:105560001B6813F0010FF5D1012384F835300023B7
:1055700084F83430E36C0BB12046984703B0F0BD9B
:1055800004000020B5814E1B00230F2B00F2D280B7
:1055900070B582B060E085685E000324B44025EAFF
:1055A0000405CC68B4402C438460456825EA0205B4
:1055B0004C68C4F300129A402A4342605AE0DC0867
:1055C000083450F8246003F0070295000F22AA4027
:1055D00026EA020E0A69AA4042EA0E0240F8242096
:1055E0005CE0042200E0002202FA0EF22A430234B8
:1055F000514D45F82420514A14686FEA0C0224EA00
:105600000C054E6816F4803F01D04CEA04054B4C63
:105610002560646802EA04054E6816F4003F01D074
:105620004CEA0405454C6560A46802EA04054E682E
:1056300016F4801F01D04CEA0405404CA560E468D4
:1056400022404D6815F4001F01D04CEA04023B4C87
:10565000E26001330F2B6BD801229A400C6804EAF8
:10566000020C32EA0404F4D14C6804F00304013C57
:10567000012C90D94A6802F00302032A09D0C468B9
:105680005D000322AA4024EA02048A68AA40224359
:10569000C2604A6802F00302022A90D004684FEA0E
:1056A000430E032202FA0EF224EA02044A6802F0D0
:1056B000030202FA0EF2224302604A6812F4403FEB
:1056C000C7D0002201921E4A546C44F480445464B2
:1056D000526C02F480420192019A9C08A51C164A61
:1056E00052F8255003F003024FEA820E0F2202FA0D
:1056F0000EF225EA0205134A90423FF474AF02F518
:10570000806290420ED002F5806290420CD002F589
:10571000806290420AD002F5806290423FF461AF0D
:10572000072261E701225FE702225DE703225BE7D0
:1057300002B070BD704700BF00380140003C01401E
:1057400000380240000002400AB18161704709043C
:1057500081617047436901EA030221EA030141EADA
:105760000241816170470000002800F0E08170B5BF
:1057700082B00446036813F0010F3BD09F4B9B6837
:1057800003F00C03042B2CD09C4B9B6803F00C0300
:10579000082B21D06368B3F5803F4FD0B3F5A02F1D
:1057A00052D0964B1A6822F480321A601A6822F49A
:1057B00080221A606368002B50D0FFF77BF8054603
:1057C0008E4B1B6813F4003F14D1FFF773F8401B96
:1057D0006428F5D90320B1E1884B5B6813F4800F8E
:1057E000D8D0864B1B6813F4003F03D06368002BAE
:1057F00000F09F81236813F0020F54D07F4B9B6809
:1058000013F00C0F3ED07D4B9B6803F00C03082B6C
:1058100033D0E368002B68D0794B01221A60FFF780
:1058200049F80546754B1B6813F0020F54D1FFF77A
:1058300041F8401B0228F5D903207FE16F4A136825
:1058400043F480331360B5E76C4B1A6842F480224E
:105850001A601A6842F480321A60ABE7FFF72AF840
:105860000546664B1B6813F4003FC3D0FFF722F8D0
:10587000401B6428F5D9032060E1604B5B6813F49A
:10588000800FC6D15D4B1B6813F0020F03D0E36895
:10589000012B40F05081594A136823F0F803216925
:1058A00043EAC1031360236813F0080F42D0636911
:1058B0006BB3534B0122C3F8802EFEF7FBFF054666
:1058C0004E4B5B6F13F0020F34D1FEF7F3FF401B1A
:1058D0000228F5D9032031E1484A136823F0F80380
:1058E000216943EAC1031360DDE7454B00221A60DA
:1058F000FEF7E0FF0546414B1B6813F0020FD2D0C4
:10590000FEF7D8FF401B0228F5D9032016E13C4BD7
:105910000022C3F8802EFEF7CDFF0546374B5B6FA4
:1059200013F0020F06D0FEF7C5FF401B0228F5D981
:10593000032003E1236813F0040F77D02F4B1B6C77
:1059400013F0805F33D1002301932C4B1A6C42F08B
:1059500080521A641B6C03F080530193019B012554
:10596000284B1B6813F4807F23D0A368012B34D00D
:10597000052B38D0214B1A6F22F001021A671A6FDB
:1059800022F004021A67A368002B3DD0FEF792FFB5
:1059900006461A4B1B6F13F0020F46D1FEF78AFF23
:1059A000801B41F288339842F3D90320C6E00025DA
:1059B000D6E7144A136843F480731360FEF77AFF46
:1059C0000646104B1B6813F4807FCED1FEF772FFA2
:1059D000801B0228F5D90320B0E0084A136F43F07A
:1059E00001031367CFE7054B1A6F42F004021A67F1
:1059F0001A6F42F001021A67C5E700BF0038024083
:105A00000000474200700040FEF754FF0646524B2C
:105A10001B6F13F0020F08D0FEF74CFF801B41F202
:105A200088339842F3D9032088E0EDB9A369002BAD
:105A300000F08380484A926802F00C02082A51D094
:105A4000022B17D0454B00221A66FEF733FF04469F
:105A5000414B1B6813F0007F42D0FEF72BFF001B69
:105A60000228F5D9032069E03B4A136C23F08053E8
:105A70001364DBE7394B00221A66FEF71BFF05466D
:105A8000354B1B6813F0007F06D0FEF713FF401B59
:105A90000228F5D9032051E0E369226A1343626AC0
:105AA00043EA8213A26A5208013A43EA0243E26AD5
:105AB00043EA0263284A5360284B01221A66FEF724
:105AC000F9FE0446244B1B6813F0007F06D1FEF755
:105AD000F1FE001B0228F5D903202FE000202DE065
:105AE00000202BE0012B2BD01B4B5B6803F48001C3
:105AF000E269914226D103F03F02216A8A4223D112
