:020000040800F2
:1000000000000220D1240008611E0008631E0008C1
:10001000651E0008671E0008691E00080000000039
:100020000000000000000000000000006B1E00083F
:100030006D1E0008000000006F1E0008711E000801
:100040002125000821250008212500082125000878
:100050002125000821250008212500082125000868
:100060002125000821250008212500082125000858
:100070002125000821250008212500082125000848
:100080002125000821250008212500080000000086
:100090000000000000000000000000002125000812
:1000A000791E0008212500082125000821250008C7
:1000B0002125000821250008212500082125000808
:1000C00021250008212500082125000821250008F8
:1000D0002125000821250008212500080000000036
:1000E0002125000821250008212500080000000026
:1000F00000000000000000000000000021250008B2
:100100000000000021250008212500082125000805
:1001100000000000000000000000000000000000DF
:100120002125000821250008212500082125000897
:100130002125000800000000000000000000000071
:100140000000000000000000000000002125000861
:100150002125000821250008212500082125000867
:1001600021250008212500080000000000000000F3
:10017000000000000000000000000000000000007F
:100180000000000021250008000000000000000021
:080190002125000821250008CB
:1001C00010B5054C237833B9044B13B10448AFF391
:1001D00000800123237010BDB8090020000000003A
:1001E000D0AA000808B5034B1BB103490348AFF37D
:1001F000008008BD00000000BC090020D0AA000853
:1002000081F0004102E000BF83F0004330B54FEAC7
:1002100041044FEA430594EA050F08BF90EA020F34
:100220001FBF54EA000C55EA020C7FEA645C7FEAC7
:10023000655C00F0E2804FEA5454D4EB5555B8BFEA
:100240006D420CDD2C4480EA020281EA030382EA5B
:10025000000083EA010180EA020281EA0303362DED
:1002600088BF30BD11F0004F4FEA01314FF4801CC0
:100270004CEA113102D0404261EB410113F0004FD2
:100280004FEA03334CEA133302D0524263EB430389
:1002900094EA050F00F0A780A4F10104D5F1200E27
:1002A0000DDB02FA0EFC22FA05F2801841F1000182
:1002B00003FA0EF2801843FA05F359410EE0A5F156
:1002C00020050EF1200E012A03FA0EFC28BF4CF087
:1002D000020C43FA05F3C01851EBE37101F000453D
:1002E00007D54FF0000EDCF1000C7EEB00006EEB4A
:1002F0000101B1F5801F1BD3B1F5001F0CD34908D4
:100300005FEA30004FEA3C0C04F101044FEA44522A
:1003100012F5800F80F09A80BCF1004F08BF5FEAB1
:10032000500C50F1000041EB045141EA050130BD91
:100330005FEA4C0C404141EB0101013C28BFB1F5A3
:10034000801FE9D291F0000F04BF01460020B1FAEE
:1003500081F308BF2033A3F10B03B3F120020CDAC1
:100360000C3208DD02F1140CC2F10C0201FA0CF09F
:1003700021FA02F10CE002F11402D8BFC2F1200C04
:1003800001FA02F120FA0CFCDCBF41EA0C019040BA
:10039000E41AA2BF01EB0451294330BD6FEA040403
:1003A0001F3C1CDA0C340EDC04F11404C4F12002EE
:1003B00020FA04F001FA02F340EA030021FA04F300
:1003C00045EA030130BDC4F10C04C4F1200220FA57
:1003D00002F001FA04F340EA0300294630BD21FA95
:1003E00004F0294630BD94F0000F83F4801306BF5B
:1003F00081F480110134013D4EE77FEA645C18BF4F
:100400007FEA655C29D094EA050F08BF90EA020FE5
:1004100005D054EA000C04BF1946104630BD91EADD
:10042000030F1EBF0021002030BD5FEA545C05D1E0
:100430004000494128BF41F0004130BD14F580041F
:100440003CBF01F5801130BD01F0004545F0FE4193
:1004500041F470014FF0000030BD7FEA645C1ABFC8
:10046000194610467FEA655C1CBF0B46024650EAFF
:10047000013406BF52EA033591EA030F41F400212B
:1004800030BD00BF90F0000F04BF0021704730B5B1
:100490004FF4806404F132044FF000054FF0000186
:1004A00050E700BF90F0000F04BF0021704730B547
:1004B0004FF4806404F1320410F0004548BF40421C
:1004C0004FF000013EE700BF42004FEAE2014FEA71
:1004D00031014FEA02701FBF12F07F4393F07F4F4C
:1004E00081F06051704732F07F4208BF704793F04F
:1004F0007F4F04BF41F40021704730B54FF4607462
:1005000001F0004521F000411CE700BF50EA010264
:1005100008BF704730B54FF000050AE050EA01020D
:1005200008BF704730B511F0004502D5404261EB7D
:1005300041014FF4806404F132045FEA915C3FF4BE
:10054000D8AE4FF003025FEADC0C18BF03325FEA5B
:10055000DC0C18BF033202EBDC02C2F1200300FA0C
:1005600003FC20FA02F001FA03FE40EA0E0021FA31
:1005700002F11444BDE600BF70B54FF0FF0C4CF41F
:10058000E06C1CEA11541DBF1CEA135594EA0C0FD1
:1005900095EA0C0F00F0DEF82C4481EA030621EA0C
:1005A0004C5123EA4C5350EA013518BF52EA033547
:1005B00041F4801143F4801338D0A0FB02CE4FF0F9
:1005C0000005E1FB02E506F00042E0FB03E54FF029
:1005D0000006E1FB03569CF0000F18BF4EF0010E21
:1005E000A4F1FF04B6F5007F64F5407404D25FEA1D
:1005F0004E0E6D4146EB060642EAC62141EA5551D0
:100600004FEAC52040EA5E504FEACE2EB4F1FD0C11
:1006100088BFBCF5E06F1ED8BEF1004F08BF5FEA8F
:10062000500E50F1000041EB045170BD06F0004641
:1006300046EA010140EA020081EA0301B4EB5C04EE
:10064000C2BFD4EB0C0541EA045170BD41F48011E6
:100650004FF0000E013C00F3AB8014F1360FDEBF0B
:10066000002001F0004170BDC4F10004203C35DAE7
:100670000C341BDC04F11404C4F1200500FA05F36A
:1006800020FA04F001FA05F240EA020001F000420B
:1006900021F0004110EBD37021FA04F642EB060181
:1006A0005EEA430E08BF20EAD37070BDC4F10C04AB
:1006B000C4F1200500FA04F320FA05F001FA04F26F
:1006C00040EA020001F0004110EBD37041F100015B
:1006D0005EEA430E08BF20EAD37070BDC4F1200566
:1006E00000FA05F24EEA020E20FA04F301FA05F2CE
:1006F00043EA020321FA04F001F0004121FA04F276
:1007000020EA020000EBD3705EEA430E08BF20EA45
:10071000D37070BD94F0000F0FD101F0004640007F
:1007200041EB010111F4801F08BF013CF7D041EA01
:10073000060195F0000F18BF704703F00046520005
:1007400043EB030313F4801F08BF013DF7D043EAD6
:100750000603704794EA0C0F0CEA135518BF95EA8C
:100760000C0F0CD050EA410618BF52EA4306D1D113
:1007700081EA030101F000414FF0000070BD50EA32
:10078000410606BF1046194652EA430619D094EABC
:100790000C0F02D150EA013613D195EA0C0F05D1A6
:1007A00052EA03361CBF104619460AD181EA0301FA
:1007B00001F0004141F0FE4141F470014FF00000B2
:1007C00070BD41F0FE4141F4780170BD70B54FF04D
:1007D000FF0C4CF4E06C1CEA11541DBF1CEA1355CD
:1007E00094EA0C0F95EA0C0F00F0A7F8A4EB0504AF
:1007F00081EA030E52EA03354FEA013100F08880A6
:100800004FEA03334FF0805545EA131343EA12636E
:100810004FEA022245EA111545EA10654FEA002623
:100820000EF000419D4208BF964244F1FD0404F5DC
:10083000407402D25B084FEA3202B61A65EB030538
:100840005B084FEA32024FF480104FF4002CB6EBF5
:10085000020E75EB030E22BFB61A754640EA0C0075
:100860005B084FEA3202B6EB020E75EB030E22BFB5
:10087000B61A754640EA5C005B084FEA3202B6EBF6
:10088000020E75EB030E22BFB61A754640EA9C00B5
:100890005B084FEA3202B6EB020E75EB030E22BF85
:1008A000B61A754640EADC0055EA060E18D04FEA43
:1008B000051545EA16754FEA06164FEAC30343EAE3
:1008C00052734FEAC2025FEA1C1CC0D111F4801FB0
:1008D0000BD141EA00014FF000004FF0004CB6E7A9
:1008E00011F4801F04BF01430020B4F1FD0C88BF48
:1008F000BCF5E06F3FF6AFAEB5EB030C04BFB6EB53
:10090000020C5FEA500C50F1000041EB045170BD45
:100910000EF0004E4EEA113114EB5C04C2BFD4EB72
:100920000C0541EA045170BD41F480114FF0000EF6
:10093000013C90E645EA060E8DE60CEA135594EA72
:100940000C0F08BF95EA0C0F3FF43BAF94EA0C0F75
:100950000AD150EA01347FF434AF95EA0C0F7FF4EA
:1009600025AF104619462CE795EA0C0F06D152EA3E
:1009700003353FF4FDAE1046194622E750EA410622
:1009800018BF52EA43067FF4C5AE50EA41047FF433
:100990000DAF52EA43057FF4EBAE12E74FF0FF3C98
:1009A00006E000BF4FF0010C02E000BF4FF0010C69
:1009B0004DF804CD4FEA410C7FEA6C5C4FEA430CE2
:1009C00018BF7FEA6C5C1BD001B050EA410C0CBF31
:1009D00052EA430C91EA030F02BF90EA020F002093
:1009E000704710F1000F91EA030F58BF994208BFFA
:1009F00090422CBFD8176FEAE37040F001007047B7
:100A00004FEA410C7FEA6C5C02D150EA013C07D10D
:100A10004FEA430C7FEA6C5CD6D152EA033CD3D058
:100A20005DF8040B704700BF8446104662468C4652
:100A30001946634600E000BF01B5FFF7B7FF002885
:100A400048BF10F1000F01BD4DF808EDFFF7F4FFAE
:100A50000CBF012000205DF808FB00BF4DF808ED39
:100A6000FFF7EAFF34BF012000205DF808FB00BF5C
:100A70004DF808EDFFF7E0FF94BF012000205DF87E
:100A800008FB00BF4DF808EDFFF7CEFF94BF012033
:100A900000205DF808FB00BF4DF808EDFFF7C4FF2C
:100AA00034BF012000205DF808FB00BF4FEA41027F
:100AB000B2F1E04324BFB3F5001CDCF1FE5C0DD9BC
:100AC00001F0004C4FEAC0024CEA5070B2F1004F06
:100AD00040EB830008BF20F00100704711F0804F09
:100AE00021D113F13872BCBF01F00040704741F4CE
:100AF00080114FEA5252C2F11802C2F1200C10FAD2
:100B00000CF320FA02F018BF40F001004FEAC123B5
:100B10004FEAD32303FA0CFC40EA0C0023FA02F359
:100B20004FEA4303CCE77FEA625307D150EA01332F
:100B30001EBF4FF0FE4040F44000704701F00040FF
:100B400040F0FE4040F40000704700BF80F00040DD
:100B500002E000BF81F0004142001FBF5FEA410395
:100B600092EA030F7FEA226C7FEA236C6AD04FEA95
:100B70001262D2EB1363C1BFD218414048404140DA
:100B8000B8BF5B42192B88BF704710F0004F40F48C
:100B9000000020F07F4018BF404211F0004F41F4A8
:100BA000000121F07F4118BF494292EA030F3FD074
:100BB000A2F1010241FA03FC10EB0C00C3F1200387
:100BC00001FA03F100F0004302D5494260EB400016
:100BD000B0F5000F13D3B0F1807F06D340084FEA81
:100BE000310102F10102FE2A51D2B1F1004F40EB76
:100BF000C25008BF20F0010040EA030070474900DE
:100C000040EB0000013A28BFB0F5000FEDD2B0FA7A
:100C100080FCACF1080CB2EB0C0200FA0CF0AABF9D
:100C200000EBC25052421843BCBFD040184370473B
:100C300092F0000F81F4000106BF80F40000013241
:100C4000013BB5E74FEA41037FEA226C18BF7FEA18
:100C5000236C21D092EA030F04D092F0000F08BF5A
:100C60000846704790EA010F1CBF0020704712F041
:100C70007F4F04D1400028BF40F00040704712F180
:100C800000723CBF00F50000704700F0004343F0E5
:100C9000FE4040F4000070477FEA226216BF08461B
:100CA0007FEA23630146420206BF5FEA412390EADE
:100CB000010F40F4800070474FF0000304E000BFD4
:100CC00010F0004348BF40425FEA000C08BF704785
:100CD00043F0964301464FF000001CE050EA010249
:100CE00008BF70474FF000030AE000BF50EA01025E
:100CF00008BF704711F0004302D5404261EB41014B
:100D00005FEA010C02BF84460146002043F0B6436F
:100D100008BFA3F18053A3F50003BCFA8CF2083A94
:100D2000A3EBC25310DB01FA02FC634400FA02FC9D
:100D3000C2F12002BCF1004F20FA02F243EB0200A4
:100D400008BF20F00100704702F1200201FA02FC06
:100D5000C2F1200250EA4C0021FA02F243EB0200F9
:100D600008BF20EADC7070474FF0FF0C1CEAD0523D
:100D70001EBF1CEAD15392EA0C0F93EA0C0F6FD0FE
:100D80001A4480EA010C400218BF5FEA41211ED0DC
:100D90004FF0006343EA501043EA5111A0FB0131C8
:100DA0000CF00040B1F5000F3EBF490041EAD3719D
:100DB0005B0040EA010062F17F02FD2A1DD8B3F119
:100DC000004F40EBC25008BF20F00100704790F088
:100DD000000F0CF0004C08BF49024CEA502040EADA
:100DE00051207F3AC2BFD2F1FF0340EAC2507047A0
:100DF00040F400004FF00003013A5DDC12F1190FDE
:100E0000DCBF00F000407047C2F10002410021FA4F
:100E100002F1C2F1200200FA02FC5FEA310040F167
:100E2000000053EA4C0308BF20EADC70704792F0E0
:100E3000000F00F0004C02BF400010F4000F013A18
:100E4000F9D040EA0C0093F0000F01F0004C02BF13
:100E5000490011F4000F013BF9D041EA0C018FE782
:100E60000CEAD15392EA0C0F18BF93EA0C0F0AD088
:100E700030F0004C18BF31F0004CD8D180EA0100AE
:100E800000F00040704790F0000F17BF90F0004F47
:100E9000084691F0000F91F0004F14D092EA0C0F29
:100EA00001D142020FD193EA0C0F03D14B0218BFBC
:100EB000084608D180EA010000F0004040F0FE4002
:100EC00040F40000704740F0FE4040F4400070479E
:100ED0004FF0FF0C1CEAD0521EBF1CEAD15392EA1D
:100EE0000C0F93EA0C0F69D0A2EB030280EA010C0D
:100EF00049024FEA402037D04FF0805343EA1111A6
:100F000043EA10130CF000408B4238BF5B0042F103
:100F10007D024FF4000C8B4224BF5B1A40EA0C00A8
:100F2000B3EB510F24BFA3EB510340EA5C00B3EBDA
:100F3000910F24BFA3EB910340EA9C00B3EBD10FC8
:100F400024BFA3EBD10340EADC001B0118BF5FEA1A
:100F50001C1CE0D1FD2A3FF650AF8B4240EBC25043
:100F600008BF20F0010070470CF0004C4CEA502004
:100F70007F32C2BFD2F1FF0340EAC250704740F453
:100F800000004FF00003013A37E792F0000F00F045
:100F9000004C02BF400010F4000F013AF9D040EAC3
:100FA0000C0093F0000F01F0004C02BF490011F457
:100FB000000F013BF9D041EA0C0195E70CEAD1534F
:100FC00092EA0C0F08D142027FF47DAF93EA0C0F36
:100FD0007FF470AF084676E793EA0C0F04D14B021A
:100FE0003FF44CAF08466EE730F0004C18BF31F0CC
:100FF000004CCAD130F000427FF45CAF31F00043C6
:101000007FF43CAF5FE700BF4FF0FF3C06E000BF5E
:101010004FF0010C02E000BF4FF0010C4DF804CD81
:101020004FEA40024FEA41037FEA226C18BF7FEA91
:10103000236C11D001B052EA530C18BF90EA010F93
:1010400058BFB2EB030088BFC81738BF6FEAE17022
:1010500018BF40F0010070477FEA226C02D15FEABE
:10106000402C05D17FEA236CE4D15FEA412CE1D02A
:101070005DF8040B704700BF844608466146FFE7F1
:101080000FB5FFF7C9FF002848BF10F1000F0FBDD3
:101090004DF808EDFFF7F4FF0CBF012000205DF8CC
:1010A00008FB00BF4DF808EDFFF7EAFF34BF012051
:1010B00000205DF808FB00BF4DF808EDFFF7E0FFEA
:1010C00094BF012000205DF808FB00BF4DF808ED3B
:1010D000FFF7D2FF94BF012000205DF808FB00BF9E
:1010E0004DF808EDFFF7C8FF34BF012000205DF880
:1010F00008FB00BF4FEA4002B2F1FE4F0FD34FF0A2
:101100009E03B3EB12620DD94FEA002343F0004374
:1011100010F0004F23FA02F018BF404270474FF022
:101120000000704712F1610F01D1420205D110F0A9
:10113000004008BF6FF0004070474FF0000070475C
:1011400053B94AB9002908BF00281CBF4FF0FF312E
:101150004FF0FF3000F074B9ADF1080C6DE904CE2A
:1011600000F006F8DDF804E0DDE9022304B0704782
:101170002DE9F047089E0D4604468846002B4DD1C8
:101180008A42944668D9B2FA82F252B101FA02F365
:10119000C2F1200120FA01F10CFA02FC41EA030835
:1011A00094404FEA1C45210CB8FBF5FE1FFA8CF762
:1011B00005FB1E8341EA03430EFB07F199420BD95D
:1011C0001CEB03030EF1FF3080F01E81994240F2C8
:1011D0001B81AEF1020E63445B1AA4B2B3FBF5F0BF
:1011E00005FB103344EA034400FB07F7A7420AD982
:1011F0001CEB040400F1FF3380F00881A74240F2A9
:10120000058164440238E41B40EA0E4000211EB10F
:10121000D4400023C6E90043BDE8F0878B4208D9DB
:10122000002E00F0EE800021C6E900050846BDE86A
:10123000F087B3FA83F100294AD1AB4202D382424C
:1012400000F2F980841A65EB030301209846002E12
:10125000E2D0C6E90048DFE702B9FFDEB2FA82F267
:10126000002A40F09180A1EB0C054FEA1C471FFAC1
:101270008CFE0121B5FBF7F307FB1350250C45EA63
:1012800000450EFB03F0A84208D91CEB050503F14D
:10129000FF3802D2A84200F2CB8043462D1AA4B2F6
:1012A000B5FBF7F007FB105544EA05440EFB00FEC2
:1012B000A64508D91CEB040400F1FF3502D2A6456F
:1012C00000F2BB802846A4EB0E0440EA03409EE7F0
:1012D000C1F120078B4022FA07FC4CEA030C20FAEC
:1012E00007F405FA01F31C43FD404FEA1C4900FADC
:1012F00001F3B5FBF9F8200C1FFA8CFE09FB185519
:1013000040EA054508FB0EF0A84202FA01F20BD9AB
:101310001CEB050508F1FF3A80F08880A84240F2F6
:101320008580A8F1020865442D1AA4B2B5FBF9F036
:1013300009FB105544EA054500FB0EFEAE4508D9F1
:101340001CEB050500F1FF346CD2AE456AD90238BA
:10135000654440EA0840A0FB0294A5EB0E05A542B7
:10136000C846A64656D353D05EB1B3EB080265EB30
:101370000E0505FA07F722FA01F3CD401F43C6E92F
:1013800000750021BDE8F087C2F1200320FA03F1C7
:101390000CFA02FC25FA03F395400D434FEA1C4773
:1013A0001FFA8CFEB3FBF7F107FB11302B0C43EA5D
:1013B000004301FB0EF0984204FA02F408D91CEB3A
:1013C000030301F1FF382FD298422DD9023963442B
:1013D0001B1AADB2B3FBF7F007FB103345EA034528
:1013E00000FB0EF3AB4208D91CEB050500F1FF38FA
:1013F00016D2AB4214D902386544ED1A40EA0141D5
:1014000038E73146304607E78646E5E61846FAE60D
:101410004B45A9D2B9EB020864EB0C0E0138A3E7E7
:101420004046EAE7204694E74146D1E7D0467BE7CD
:10143000023B654432E7084609E76444023842E764
:10144000704700BF00000000000000000000000026
:1014500001F0FF01102A2BDB10F0070F08D010F865
:10146000013B013A8B422DD010F0070F42B3F6D169
:10147000F0B441EA012141EA014122F007047FF082
:1014800000070023F0E80256083C85EA010586EAD9
:10149000010685FA47F5A3FA87F586FA47F6A5FA15
:1014A00087F68EB9EED1F0BC01F0FF0102F0070221
:1014B00032B110F8013B013A83EA010313B1F8D1CC
:1014C0000020704701387047002D06BF35460338AD
:1014D000073815F0010F07D1013015F4807F02BFE6
:1014E000013015F4C03F0130F0BC0138704700BF37
:1014F000844641EA000313F003036DD1403A41D31F
:1015000051F8043B40F8043B51F8043B40F8043BDD
:1015100051F8043B40F8043B51F8043B40F8043BCD
:1015200051F8043B40F8043B51F8043B40F8043BBD
:1015300051F8043B40F8043B51F8043B40F8043BAD
:1015400051F8043B40F8043B51F8043B40F8043B9D
:1015500051F8043B40F8043B51F8043B40F8043B8D
:1015600051F8043B40F8043B51F8043B40F8043B7D
:1015700051F8043B40F8043B51F8043B40F8043B6D
:10158000403ABDD2303211D351F8043B40F8043B0D
:1015900051F8043B40F8043B51F8043B40F8043B4D
:1015A00051F8043B40F8043B103AEDD20C3205D31D
:1015B00051F8043B40F8043B043AF9D2043208D015
:1015C000D2071CBF11F8013B00F8013B01D30B8887
:1015D00003806046704700BF082A13D38B078DD065
:1015E00010F003038AD0C3F10403D21ADB071CBF37
:1015F00011F8013B00F8013B80D331F8023B20F8A1
:10160000023B7BE7043AD9D3013A11F8013B00F8D9
:10161000013BF9D20B7803704B7843708B78837061
:10162000604670470000000000000000000000005D
:1016300000000000000000000000000000000000AA
:1016400090F800F06DE9024520F007016FF0000C02
:1016500010F0070491F820F040F049804FF00004AA
:101660006FF00700D1E9002391F840F000F1080085
:1016700082FA4CF2A4FA8CF283FA4CF3A2FA8CF3BD
:101680004BBBD1E9022382FA4CF200F10800A4FA24
:101690008CF283FA4CF3A2FA8CF3E3B9D1E9042378
:1016A00082FA4CF200F10800A4FA8CF283FA4CF3AF
:1016B000A2FA8CF37BB9D1E9062301F1200182FA69
:1016C0004CF200F10800A4FA8CF283FA4CF3A2FA6F
:1016D0008CF3002BC6D0002A04BF04301A4612BA7D
:1016E000B2FA82F2FDE8024500EBD2007047D1E980
:1016F000002304F00305C4F100004FEAC50514F00F
:10170000040F91F840F00CFA05F562EA05021CBFDF
:1017100063EA050362464FF00004A9E74FEA410C73
:101720007FEA6C5C02D150EA013C0AD14FEA430CDB
:101730007FEA6C5C02D152EA033C02D14FF0000018
:1017400070474FF0010070474FEA410212F5001256
:1017500015D211D56FF47873B3EB625212D94FEAF8
:10176000C12343F0004343EA505311F0004F23FAE2
:1017700002F018BF404270474FF00000704750EA37
:10178000013005D111F0004008BF6FF000407047F4
:101790004FF00000704700BF00B585B000230093F4
:1017A0000193029303931548154A02604FF4803267
:1017B000426083600361037680F82030C362114A7F
:1017C0008262C3600122C26180F83030426101F060
:1017D00085FB68B90423009301230193002302933E
:1017E0006946064801F0A6FB28B905B05DF804FB80
:1017F00000F06EFAEEE700F06BFAF6E7D40900208D
:10180000002001400100000F00B589B000230393C0
:101810000493059306930793026803F1804303F54D
:1018200090339A4202D009B05DF804FB0021019187
:1018300003F58C335A6C42F480725A645A6C02F489
:1018400080720192019A02911A6B42F001021A63AE
:101850001B6B03F001030293029B102303930323EA
:10186000049303A9014801F0A7FCDCE70000024053
:101870002DE9F04188B00024039404940594069463
:1018800007940094304B1A6B42F080021A631A6B73
:1018900002F080020092009A01941A6B42F0010259
:1018A0001A631A6B02F001020192019A02941A6BF8
:1018B00042F002021A631B6B03F002030293029BC5
:1018C000224D22464FF20441284601F05CFD204E95
:1018D00022464FF4C051304601F055FDC02303931A
:1018E0000494059403A9304601F066FC0323039396
:1018F0000494059403A9284601F05EFC44F20443D5
:101900000393012704970594069403A9284601F040
:1019100053FC4FF430430393049705944FF00208AF
:10192000CDF8188003A9284601F046FC4FF4C053B7
:10193000039304970594CDF8188003A9304601F06D
:101940003BFC08B0BDE8F0810038024000040240D2
:101950000000024008B50B480B4B03600B4B436083
:1019600000238360C3604FF480420261436183615E
:10197000C361036201F00EFD00B908BD00F0A8F9D3
:10198000FBE700BF1C0A002000540040A0860100B5
:1019900030B589B00023039304930593069307930E
:1019A0000268144B9A4201D009B030BD0025019560
:1019B000114C236B43F002032363236B03F00203F8
:1019C0000193019B4FF44073039312230493032369
:1019D00006930423079303A9084801F0EDFB029541
:1019E000236C43F400132364236C03F40013029369
:1019F000029BD9E700540040003802400004024036
:101A000008B5FEF74FFD06A3D3E90023FEF7DEFE7F
:101A10000022054BFEF7B0FDFFF748F808BD00BFF8
:101A200000000000004CFA4000807640864B834264
:101A300000D070472DE9F04F8DB0844B1A68506A82
:101A400000B2834B1880834B1B685E6A36B28249B2
:101A50000E8082490F687D6A2DB281490D808149CF
:101A6000D1F800C0DCF8244024B27F490C80DFF8B4
:101A7000FCB1DBF8041041180891CBF80410DFF832
:101A8000F0A1DAF8041071180991CAF80410DFF80F
:101A9000E491D9F8041069180A91C9F80410DFF824
:101AA000D881D8F8041061180B91C8F804100021EF
:101AB000516259627962CCF82410FFF701F96F493D
:101AC000FFF706FA6E49FFF74FF96E49FFF74CF939
:101AD0000746CBF80C003046FFF7F2F86749FFF7EE
:101AE000F7F96749FFF740F96649FFF73DF9CAF88A
:101AF0000C002846FFF7E4F86049FFF7E9F9604970
:101B0000FFF732F95F49FFF72FF9C9F80C002046BB
:101B1000FFF7D6F85949FFF7DBF95949FFF724F9E0
:101B20005849FFF721F9C8F80C000898FFF768FF3B
:101B3000554B18600998FFF763FF544B18600A98DB
:101B4000FFF75EFF524B18600B98FFF759FF514BA0
:101B50001860514A13780133DBB213700A2B02D09C
:101B60000DB0BDE8F08F134600221A704B4B1C6875
:101B70004B492046FFF7B4FA00285BD0474B494A4F
:101B80001A60494C6568A6682068FEF79DFC80468F
:101B900089463846FEF798FCCDE90601434B1868A4
:101BA000FEF792FCCDE904013046FEF78DFCCDE94D
:101BB00002012846FEF788FCCDE9000142464B466B
:101BC0003B4802F07FFF294BDA683A4B1968204600
:101BD00000F016FE384F264BDA68384B1968384645
:101BE00000F00EFE364E234BDA68364B196830464D
:101BF00000F006FE344D204BDA68344B1968284655
:101C000000F0FEFDE069FFF775FA00F0CBFCF86923
:101C1000FFF770FA00B200F0EFFCF069FFF76AFA24
:101C200000B200F013FDE869FFF764FA00B200F0BB
:101C300037FD95E71B492046FFF734FA0028A0D06E
:101C4000164B174A1A609CE7EC0C0020840B00200E
:101C50009C0A0020140C00209E0A00205C0C00202E
:101C6000A00A0020CC0B0020A20A0020780D002042
:101C70008C0D0020A00D0020B40D00200000824437
:101C800000007A44000070428C0A0020900A002074
:101C9000940A0020980A00207C0B0020740A00207F
:101CA00000003443000034C3EC0A0020780A00200E
:101CB000E8AA00087C0A0020100B0020800A0020FF
:101CC000340B0020840A0020580B0020880A0020D2
:101CD00072B6FEE700B595B03022002108A802F0E8
:101CE0009FFE0023039304930593069307930193A8
:101CF0001F4A116C41F080511164126C02F0805245
:101D00000192019A02931B4B1A6842F440421A60F6
:101D10001B6803F440430293029B012308934FF492
:101D20008033099302230E934FF480020F920C220A
:101D300010926022119212930423139308A801F0C9
:101D400007FC88B90F230393022304930023059310
:101D50004FF4805206920793032103A801F046FE38
:101D600020B915B05DF804FBFFF7B2FFFFF7B0FF35
:101D7000003802400070004000B583B000F0D4FF8E
:101D8000FFF7A8FFFFF774FD00F0B8F800F0EAF8DD
:101D900000F01AF900F04AF900F0D0FA00F078F9F2
:101DA00000F042FBFFF7F8FCFFF7D4FD124C204691
:101DB00000F024FF00F0B6FB104B0193104B009392
:101DC000104B114A1149124800F092FC01221149AE
:101DD000204602F0DFFD104801F090FF3C210F4843
:101DE00002F0C6FA00F0FAFE0D4B1A680D4B1A60AD
:101DF000642000F0C5FFF7E7340D0020A40A00209E
:101E0000C80A0020580B0020340B0020100B0020C3
:101E1000EC0A0020700A0020EC0C0020A40C00202A
:101E2000780A00207C0A002082B0002100910B4B30
:101E30005A6C42F480425A645A6C02F48042009216
:101E4000009A01911A6C42F080521A641B6C03F0E4
:101E500080530193019B02B0704700BF00380240DD
:101E6000FEE7FEE7FEE7FEE7FEE7704770477047D4
:101E700008B500F073FF08BD08B5034801F07FFF07
:101E8000024801F07CFF08BD840B0020EC0C002010
:101E90000120704708B502F099FD162303604FF04A
:101EA000FF3008BD08B54FF0FF31FFF7F3FFFEE745
:101EB00010B503460C4A0D490D48006840B10C4866
:101EC00000680344521A934206D8094A136010BDB1
:101ED0000748084C0460F2E702F078FD0C23036029
:101EE0004FF0FF30F3E700BF0000022000040000C5
:101EF000800B0020280E00207047000000B58DB038
:101F00002422002103A802F08BFD002301930293F9
:101F10001248134A0260436083604FF6FF72C2604A
:101F200003614361836103230393012305930993B1
:101F300003A902F087F850B900230193029301A985
:101F4000064802F0F3FA28B90DB05DF804FBFFF77C
:101F5000BFFEF1E7FFF7BCFEF6E700BF840B0020F1
:101F60000000014000B58DB02422002103A802F03A
:101F700057FD00230193029312484FF08042026004
:101F8000436083604FF6FF72C26003618361032385
:101F9000039301230593099303A902F053F850B961
:101FA00000230193029301A9064802F0BFFA28B961
:101FB0000DB05DF804FBFFF78BFEF1E7FFF788FE3D
:101FC000F6E700BFCC0B002000B58DB02422002125
:101FD00003A802F025FD0023019302931148124A41
:101FE0000260436083604FF6FF72C26003618361E9
:101FF0000323039301230593099303A902F022F815
:1020000050B900230193029301A9064802F08EFA09
:1020100028B90DB05DF804FBFFF75AFEF1E7FFF7B2
:1020200057FEF6E7140C00200004004000B58DB008
:102030002422002103A802F0F3FC00230193029361
:102040001148124A0260436083604FF6FF72C2601B
:1020500003618361012303930593099303A901F0AD
:10206000F1FF50B900230193029301A9064802F041
:102070005DFA28B90DB05DF804FBFFF729FEF1E722
:10208000FFF726FEF6E700BF5C0C002000080040CA
:1020900000B585B000230093019302930393104889
:1020A000104A026063224260836040F2E732C260FD
:1020B00003618023836101F06DFF50B94FF48053B9
:1020C00000936946064802F0C5F828B905B05DF8E6
:1020D00004FBFFF7FDFDF1E7FFF7FAFDF6E700BFB0
:1020E000EC0C00200040014070B58EB00023099335
:1020F0000A930B930C930D9303685A4A93420BD0A7
:10210000B3F1804F33D0584A934266D0574A934236
:1021100000F085800EB070BD00250095544B5A6CC0
:1021200042F001025A645A6C02F001020092009AD5
:1021300001951A6B42F001021A631B6B03F0010355
:102140000193019B4FF44073099302230A930124E6
:102150000B940D9409A9474801F02EF82A46214610
:10216000182000F0CFFF182001F004F8D2E7002477
:10217000029403F50E331A6C42F001021A641A6CD1
:1021800002F001020292029A03941A6B42F00102D9
:102190001A631A6B02F001020392039A04941A6BF9
:1021A00042F002021A631B6B03F002030493049BC8
:1021B0002023099302260A9601250D9509A92D4889
:1021C00000F0FAFF082309930A960B940C940D95DE
:1021D00009A9294800F0F0FF9CE700210591244B54
:1021E0001A6C42F002021A641A6C02F002020592A2
:1021F000059A06911A6B42F002021A631B6B03F0F8
:1022000002030693069B3023099302230A930122BB
:102210000B920D9309A9184800F0CEFF7AE7002130
:102220000791134B1A6C42F004021A641A6C02F004
:1022300004020792079A08911A6B42F002021A638D
:102240001B6B03F002030893089BC023099302232E
:102250000A9301220B920D9309A9074800F0ACFFE5
:1022600058E700BF000001400004004000080040A3
:1022700000380240000002400004024000B583B074
:102280000368154A934205D0144A93420FD003B015
:102290005DF804FB00230093114B1A6C42F0080216
:1022A0001A641B6C03F008030093009BEFE7002205
:1022B00001920B4B596C41F4803159645B6C03F40F
:1022C00080330193019B0121182000F01BFF18208F
:1022D00000F050FFDBE700BF000C00400040014071
:1022E0000038024000B587B00023019302930393A6
:1022F0000493059302680E4B9A4202D007B05DF832
:1023000004FB002300930B4B1A6B42F001021A638B
:102310001B6B03F001030093009B0F230193022327
:102320000293059301A9044800F046FFE6E700BFC9
:10233000000C0040003802400000024000B58FB0A1
:1023400000230A930B930C930D9308930993019325
:102350000293039304930593069307933048314AFD
:10236000026009224260836040F2E732C26003618A
:102370008023836101F00EFE002839D14FF4805391
:102380000A930AA9264801F065FF002833D12448A2
:1023900001F02CFE002831D100230893099308A9ED
:1023A0001F4802F0C3F860BB602301930022029231
:1023B0000392059201A91A4801F0D2FE20BB042223
:1023C0000DEB0201164801F0CBFE00BB082201A96B
:1023D000134801F0C5FEE8B90C2201A9104801F02C
:1023E000BFFED0B90E48FFF77DFF0FB05DF804FBCC
:1023F000FFF76EFCC2E7FFF76BFCC8E7FFF768FC6E
:10240000CAE7FFF765FCCFE7FFF762FCD7E7FFF706
:102410005FFCDBE7FFF75CFCDEE7FFF759FCE1E779
:10242000A40C0020000C004008B50A480A4B0360C9
:102430004FF4E133436000238360C36003610C22E7
:1024400042618361C36102F07DF900B908BDFFF705
:102450003FFCFBE7340D00200010014000B589B0BF
:10246000002303930493059306930793026803F1F3
:10247000804303F588339A4202D009B05DF804FB2B
:102480000021019103F594335A6C42F010025A6412
:102490005A6C02F010020192019A02911A6B42F0FA
:1024A00001021A631B6B03F001030293029B4FF4BA
:1024B0000443039302230493032306930723079300
:1024C00003A9024800F078FED7E700BF00000240F1
:1024D000DFF834D00D480E490E4A002302E0D458EC
:1024E000C4500433C4188C42F9D30B4A0B4C00235C
:1024F00001E013600432A242FBD3FFF7FDFC02F0BF
:102500006BFAFFF739FC7047000002200000002042
:10251000B809002034AF0008B8090020240E0020BC
:10252000FEE7000070B5194E3C21304601F098FFDF
:10253000174D3C21284601F093FF164C3C212046C4
:1025400001F08EFF3268D36843F00103D3602A683C
:10255000D36843F00103D3602268D36843F00103DA
:10256000D3600D4A00231360536013810021D160B2
:1025700013740A4A136053601381D1601374084ABC
:10258000136053601381D160137470BD840B0020FD
:10259000140C00205C0C0020780D00208C0D002015
:1025A000A00D002038B5041E10DB114D00224FF4A1
:1025B0000041284600F0E7FE01224FF48041284602
:1025C00000F0E1FE0B4B1B681C6438BD084D012276
:1025D0004FF40041284600F0D6FE00224FF480411F
:1025E000284600F0D0FE034B1B6864421C64ECE7F5
:1025F00000040240A40C002038B5041E10DB114D6D
:1026000000224FF40051284600F0BDFE01224FF495
:102610008051284600F0B7FE0B4B1B689C6338BD09
:10262000084D01224FF40051284600F0ACFE002274
:102630004FF48051284600F0A6FE034B1B6864420D
:102640009C63ECE700040240A40C002038B5041E93
:1026500010DB114D01224FF48051284600F093FE0B
:1026600000224FF40061284600F08DFE0B4B1B68E2
:10267000DC6338BD084D00224FF48051284600F03D
:1026800082FE01224FF40061284600F07CFE034BDD
:102690001B686442DC63ECE700000240A40C0020ED
:1026A00038B5041E0FDB104D01220421284600F02E
:1026B0006AFE00224FF48061284600F064FE0B4B56
:1026C0001B685C6338BD084D00220421284600F0D9
:1026D0005AFE01224FF48061284600F054FE034B5D
:1026E0001B6864425C63EDE700040240A40C002018
:1026F0002DE9F041069D079C4FF0000CC0F80CC07E
:10270000C0F814C0DFF8D080C0F81880DFF8CCE043
:10271000C0F820E0C0F810C0C0F81CC0304F0760FF
:10272000C0F804C02F4E8660C1F80CC0C1F814C0B8
:102730002D488861C1F820E0C1F810C0C1F81CC064
:102740002A480860C1F804C08E60C2F80CC0C2F804
:1027500014C0C2F81880C2F820E0C2F810C0C2F855
:102760001CC01760C2F804C09660C3F80CC0C3F860
:1027700014C0C3F81880C3F820E0C3F810C0C3F831
:102780001CC01F60C3F804C09E60C5F80CC0C5F82B
:1027900014C0174BAB61C5F820E0C5F810C0C5F8F0
:1027A0001CC0C5F800C0C5F804C0C5F808C0C4F80E
:1027B0000CC0C4F814C00F4BA3610F4B2362C4F8C4
:1027C00010C0C4F81CC00D4B2360C4F804C0C4F88A
:1027D00008C0BDE8F08100BF00409C4500401C4699
:1027E00085EB3140068135410000FA4385EB11400D
:1027F0000000484400004842000002431F858B3F10
:102800002DE9F04704460D4611462846FEF7A2F989
:10281000E060FDF759FE06460F464DA3D3E90023BD
:10282000FEF71CF948B14CA3D3E9002330463946E2
:10283000FEF732F908B10023E360E76861693846C2
:10284000FEF78AF96061D4F804804146FEF78CFAFD
:102850000646D4F818A00AF100494946FEF722FCC2
:10286000002840D041464846FEF732FB6061002117
:102870002846FEF70DFC08B1002363612168384645
:10288000FEF772FA064661694046FEF76DFA0146A8
:102890003046FEF761F90646D4F8088021693846CB
:1028A000FEF758F901464046FEF75EFA014630460B
:1028B000FEF752F9E169FEF74FF90646E0610021A3
:1028C0002846FEF703FC38B300213046FEF7EAFB4A
:1028D000A8B9D4F8208041463046FEF701FC80B10B
:1028E000C4F81C800DE051463046FEF7F9FB002885
:1028F000BDD041465046FEF7EBFA6061B7E70023D2
:10290000E361276100212846FEF7C2FB08B10023DE
:10291000E361E069BDE8F08700212846FEF7C2FBCD
:102920000028EED0D4F8208008F100484146304617
:10293000FEF7B8FB10B1C4F81C80E2E70021304676
:10294000FEF7CEFB0028DCD00023E361D9E700BF0F
:102950007B14AE47E17A843F7B14AE47E17A84BFB3
:1029600010B5044601F0F2F8054BA3FB00231B0D44
:1029700004FB03F003460138002BFBD110BD00BF60
:1029800083DE1B4330B583B005460123ADF8063026
:10299000244A00215170ADF806300CE0002280215D
:1029A000214800F0F0FC14E0BDF806309BB25B005B
:1029B0009BB2ADF80630BDF806309BB2FF2B2CD889
:1029C000BDF806301D42E9D001228021164800F0F2
:1029D000DAFC164C01220221204600F0D4FC05202E
:1029E000FFF7BEFF00220221204600F0CCFC0520AC
:1029F000FFF7B6FF01220221204600F0C4FC40216F
:102A0000094800F0B9FC0028CED0BDF806309AB2D3
:102A100004494B7813434B70C6E71020FFF7A0FF23
:102A200003B030BDC80D0020000002400004024089
:102A300010B5104C00220121204600F0A4FC10200B
:102A4000FFF78EFF0120FFF79DFF4220FFF79AFF5F
:102A50000020FFF797FF0020FFF794FF0020FFF70B
:102A600091FF01221146204600F08DFC1020FFF757
:102A700077FF10BD0004024010B5164C0022012162
:102A8000204600F080FC1020FFF76AFF0120FFF7CE
:102A900079FF4320FFF776FF0020FFF773FF012047
:102AA000FFF770FF0020FFF76DFF0020FFF76AFFC0
:102AB0000020FFF767FF0020FFF764FF0020FFF70B
:102AC00061FF01221146204600F05DFC1020FFF757
:102AD00047FF10BD0004024010B5154C0022012133
:102AE000204600F050FC0120FFF74CFF4420FFF788
:102AF00049FF0020FFF746FF0120FFF743FFEE20CC
:102B0000FFF740FF0020FFF73DFF0020FFF73AFFEF
:102B10000020FFF737FF0020FFF734FF01221146A6
:102B2000204600F030FC1020FFF71AFF10BD00BF58
:102B30000004024010B5104C00220121204600F094
:102B400022FC1020FFF70CFF0120FFF71BFF4D2098
:102B5000FFF718FF0020FFF715FF0020FFF712FF17
:102B60000120FFF70FFF01221146204600F00BFC69
:102B70001020FFF7F5FE10BD0004024010B5164C02
:102B800000220121204600F0FEFB1020FFF7E8FEA6
:102B90000120FFF7F7FE4320FFF7F4FE0020FFF7C8
:102BA000F1FE0020FFF7EEFE5A20FFF7EBFE5A2061
:102BB000FFF7E8FE5A20FFF7E5FE5A20FFF7E2FE96
:102BC0005A20FFF7DFFE01221146204600F0DBFB12
:102BD0001020FFF7C5FE10BD0004024008B5FFF746
:102BE00027FFFFF725FFFFF723FFFFF745FFFFF75D
:102BF00073FFFFF79FFFFFF7C1FF08BD08B5054B47
:102C00001860054B1868002302221946806801F0FD
:102C10006DFF08BDD40D00200C000020022801D853
:102C20000120704708B501F0D1FE092303600020A0
:102C300008BD000010B5013801280AD814464FF02D
:102C4000FF3392B20748006801F0ABFD40B920465F
:102C500010BD01F0BBFE092303604FF0FF30F7E722
:102C60000520F5E7D40D0020022801D80020704788
:102C700008B501F0ABFE092303604FF0FF3008BD3B
:102C800008B501F0A3FE092303604FF0FF3008BD33
:102C900008B548B94FF0FF3301220848006801F039
:102CA000ECFD40B9012008BD01F090FE092303604E
:102CB0004FF0FF30F7E70520F5E700BFD40D002007
:102CC00008B5022804D84FF400534B60002008BD1B
:102CD00001F07CFE09230360F8E7000010B504460C
:102CE0000E4B18784FF47A73B3FBF0F30C4A10686C
:102CF000B0FBF3F000F04CFA68B90F2C01D90120B9
:102D00000AE0002221464FF0FF3000F0FBF9054BAE
:102D10001C60002000E0012010BD00BF0400002066
:102D2000000000200800002008B50B4B1A6842F490
:102D300000721A601A6842F480621A601A6842F4DB
:102D400080721A60032000F0CBF90F20FFF7C6FF56
:102D5000FFF76AF8002008BD003C0240034A1168F2
:102D6000034B1B780B441360704700BFD80D002045
:102D700004000020014B1868704700BFD80D0020E8
:102D800038B50446FFF7F6FF0546B4F1FF3F02D021
:102D9000044B1B781C44FFF7EDFF401BA042FAD305
:102DA00038BD00BF040000204A4B5A6822F440326C
:102DB0005A605A6841680A435A600268536823F4AB
:102DC0008073536002685368016943EA01235360CA
:102DD0000268536823F04073536002685368816847
:102DE0000B4353600268936823F4006393600268A6
:102DF0009368C1680B439360826A374B9A4257D0FD
:102E00000268936823F07063936002689368816A34
:102E10000B4393600268936823F040539360026809
:102E20009368C16A0B4393600268936823F00203BE
:102E3000936002689368017E43EA4103936090F8CF
:102E40002030002B3FD00268536843F40063536086
:102E50000268536823F46043536001684B68426A18
:102E6000013A43EA42334B600268D36A23F47003A9
:102E7000D3620168CB6AC269013A43EA0253CB626A
:102E80000268936823F4007393600268936890F873
:102E9000301043EA412393600268936823F480630F
:102EA000936002689368416943EA812393607047A5
:102EB0000268936823F0706393600268936823F05C
:102EC00040539360B0E70268536823F40063536093
:102ED000CAE700BF002301400100000F38B310B55E
:102EE0000446036C43B1236C13F0100F0BD0012088
:102EF000002384F83C3010BDFEF786FC0023636499
:102F000084F83C30EFE7236C23F4885323F002036A
:102F100043F0020323642046FFF746FF002060646D
:102F2000236C23F0030343F001032364E0E7012053
:102F30007047000030B482B00023019390F83C3019
:102F4000012B00F0C080012380F83C300B68092B76
:102F500041D90468E2689BB203EB43031E3B4FF088
:102F6000070C0CFA03F322EA0303E3600468E26847
:102F70000B8803EB43031E3B8D6805FA03F31343F1
:102F8000E3604B68062B3DD80468626B03EB830358
:102F9000053B4FF01F0C0CFA03F322EA03036363B3
:102FA0000468626B4B6803EB8303053BB1F800C018
:102FB0000CFA03F3134363630268444B9A4251D003
:102FC0000268424B9A425AD0002380F83C3018469F
:102FD00002B030BC7047046822699BB203EB430324
:102FE0004FF0070C0CFA03F322EA03032361046891
:102FF00022690B8803EB43038D6805FA03F313433F
:103000002361BEE70C2B16D805682A6B03EB8303FC
:10301000233B1F2404FA03F322EA03032B6305680E
:103020002A6B4B6803EB8303233B0C8804FA03F3FE
:1030300013432B63C0E70568EA6A03EB8303413B54
:103040001F2404FA03F322EA0303EB620568EA6A29
:103050004B6803EB8303413B0C8804FA03F31343EF
:10306000EB62A9E70B68122BAAD1194B5A6822F41C
:1030700000025A605A6842F480025A60A0E70B6866
:10308000144A934201D0112B9ED1114B5A6822F45D
:1030900080025A605A6842F400025A600A680D4B76
:1030A0009A4291D10C4B1B680C4AA2FB03239B0C48
:1030B00003EB83035B000193019B002B84D0019BF6
:1030C000013B0193F8E7022082E700BF00200140A6
:1030D00000230140120000100000002083DE1B438B
:1030E000074AD36823F4E0631B041B0C000200F4BE
:1030F000E060034343F0BF6343F40033D3607047A1
:1031000000ED00E000B5194BDB68C3F30223C3F107
:10311000070CBCF1040F28BF4FF0040C03F1040EA0
:10312000BEF1060F18D9033B4FF0FF3E0EFA0CFC20
:1031300021EA0C0199400EFA03F322EA0303194332
:1031400000280BDB0901C9B200F1604000F56140C5
:1031500080F800135DF804FB0023E5E700F00F00A2
:103160000901C9B2024B1954F4E700BF00ED00E0B9
:1031700014ED00E0002807DB00F01F0240090123E6
:103180009340024A42F82030704700BF00E100E05F
:103190000138B0F1807F0BD24FF0E0235861054A2F
:1031A000F02182F823100020986107221A617047ED
:1031B0000120704700ED00E000230F2B00F2D280C9
:1031C00070B582B060E085685E000324B44025EAF3
:1031D0000405CC68B4402C438460456825EA0205A8
:1031E0004C68C4F300129A402A4342605AE0DC085B
:1031F000083450F8246003F0070295000F22AA401B
:1032000026EA020E0A69AA4042EA0E0240F8242089
:103210005CE0042200E0002202FA0EF22A430234AB
:10322000514D45F82420514A14686FEA0C0224EAF3
:103230000C054E6816F4803F01D04CEA04054B4C57
:103240002560646802EA04054E6816F4003F01D068
:103250004CEA0405454C6560A46802EA04054E6822
:1032600016F4801F01D04CEA0405404CA560E468C8
:1032700022404D6815F4001F01D04CEA04023B4C7B
:10328000E26001330F2B6BD801229A400C6804EAEC
:10329000020C32EA0404F4D14C6804F00304013C4B
:1032A000012C90D94A6802F00302032A09D0C468AD
:1032B0005D000322AA4024EA02048A68AA4022434D
:1032C000C2604A6802F00302022A90D004684FEA02
:1032D000430E032202FA0EF224EA02044A6802F0C4
:1032E000030202FA0EF2224302604A6812F4403FDF
:1032F000C7D0002201921E4A546C44F480445464A6
:10330000526C02F480420192019A9C08A51C164A54
:1033100052F8255003F003024FEA820E0F2202FA00
:103320000EF225EA0205134A90423FF474AF02F50B
:10333000806290420ED002F5806290420CD002F57D
:10334000806290420AD002F5806290423FF461AF01
:10335000072261E701225FE702225DE703225BE7C4
:1033600002B070BD704700BF00380140003C014012
:1033700000380240000002400369194201D00120D8
:103380007047002070470AB181617047090481616C
:1033900070470000002800F0CC8070B5044690F81B
:1033A0003D30002B77D0242384F83D302268136809
:1033B00023F0010313602268136843F40043136091
:1033C0002268136823F40043136000F0C5FB6268B1
:1033D0005A4B9A4264D85A4B98428CBF002301231F
:1033E000002B40F0A8805749A1FB00318B0C2568C9
:1033F0006A6822F03F0242EA91426A6021680A6AE2
:1034000022F03F0266684D4DAE424FD80133134360
:103410000B622168CA6922F44F4222F0FF026668FB
:10342000464B9E424CD8431E7600B3FBF6F3013365
:1034300040F6FC70034278D0C3F30B031343CB6117
:1034400021680B6823F0C003E269206A024313433A
:103450000B6021688B6823F4034323F0FF03226988
:10346000E068024313438B602168CB6823F0FF03BD
:103470006269A06902431343CB602268136843F07A
:103480000103136000202064202384F83D30206372
:1034900084F83E0070BD80F83C30FEF779FA82E790
:1034A000294B98428CBF0023012399E74FF496756E
:1034B00005FB03F3254DA5FB03539B090133A6E749
:1034C000A368BBB9451E06EB460CB5FBFCF5013500
:1034D000C5F30B05B5FA85F56D0945BBC3B90138D0
:1034E00006EB4603B0FBF3F30133C3F30B0343F4E2
:1034F0000043A3E7451E06EB860C0CEB8C0CB5FBDA
:10350000FCF50135C5F30B05B5FA85F56D09E4E762
:10351000013806EB860303EB8303B0FBF3F30133BF
:10352000C3F30B0343F4404388E7042386E70123F6
:1035300084E7012070470120ACE700BFA0860100AE
:103540007F841E0083DE1B43FF083D00D34D6210C5
:10355000002800F0E08170B582B00446036813F0E3
:10356000010F3BD09F4B9B6803F00C03042B2CD026
:103570009C4B9B6803F00C03082B21D06368B3F5C8
:10358000803F4FD0B3F5A02F52D0964B1A6822F44B
:1035900080321A601A6822F480221A606368002B55
:1035A00050D0FFF7E7FB05468E4B1B6813F4003F36
:1035B00014D1FFF7DFFB401B6428F5D90320B1E1EC
:1035C000884B5B6813F4800FD8D0864B1B6813F4CC
:1035D000003F03D06368002B00F09F81236813F045
:1035E000020F54D07F4B9B6813F00C0F3ED07D4BE5
:1035F0009B6803F00C03082B33D0E368002B68D0E2
:10360000794B01221A60FFF7B5FB0546754B1B6825
:1036100013F0020F54D1FFF7ADFB401B0228F5D980
:1036200003207FE16F4A136843F480331360B5E7EA
:103630006C4B1A6842F480221A601A6842F4803295
:103640001A60ABE7FFF796FB0546664B1B6813F461
:10365000003FC3D0FFF78EFB401B6428F5D9032041
:1036600060E1604B5B6813F4800FC6D15D4B1B6853
:1036700013F0020F03D0E368012B40F05081594A48
:10368000136823F0F803216943EAC1031360236838
:1036900013F0080F42D063696BB3534B0122C3F898
:1036A000802EFFF767FB05464E4B5B6F13F0020F52
:1036B00034D1FFF75FFB401B0228F5D9032031E12D
:1036C000484A136823F0F803216943EAC1031360F1
:1036D000DDE7454B00221A60FFF74CFB0546414BE6
:1036E0001B6813F0020FD2D0FFF744FB401B0228E7
:1036F000F5D9032016E13C4B0022C3F8802EFFF7DA
:1037000039FB0546374B5B6F13F0020F06D0FFF70E
:1037100031FB401B0228F5D9032003E1236813F095
:10372000040F77D02F4B1B6C13F0805F33D1002335
:1037300001932C4B1A6C42F080521A641B6C03F0FC
:1037400080530193019B0125284B1B6813F4807F54
:1037500023D0A368012B34D0052B38D0214B1A6F0E
:1037600022F001021A671A6F22F004021A67A36896
:10377000002B3DD0FFF7FEFA06461A4B1B6F13F0E5
:10378000020F46D1FFF7F6FA801B41F288339842C8
:10379000F3D90320C6E00025D6E7144A136843F4A2
:1037A00080731360FFF7E6FA0646104B1B6813F4AC
:1037B000807FCED1FFF7DEFA801B0228F5D90320E7
:1037C000B0E0084A136F43F001031367CFE7054BDE
:1037D0001A6F42F004021A671A6F42F001021A6768
:1037E000C5E700BF003802400000474200700040BB
:1037F000FFF7C0FA0646524B1B6F13F0020F08D0BA
:10380000FFF7B8FA801B41F288339842F3D90320BE
:1038100088E0EDB9A369002B00F08380484A9268E4
:1038200002F00C02082A51D0022B17D0454B00227F
:103830001A66FFF79FFA0446414B1B6813F0007F9E
:1038400042D0FFF797FA001B0228F5D9032069E060
:103850003B4A136C23F080531364DBE7394B00229F
:103860001A66FFF787FA0546354B1B6813F0007F91
:1038700006D0FFF77FFA401B0228F5D9032051E05C
:10388000E369226A1343626A43EA8213A26A520816
:10389000013A43EA0243E26A43EA0263284A536078
:1038A000284B01221A66FFF765FA0446244B1B6871
:1038B00013F0007F06D1FFF75DFA001B0228F5D94F
:1038C00003202FE000202DE000202BE0012B2BD047
:1038D0001B4B5B6803F48001E269914226D103F03F
:1038E0003F02216A8A4223D1616A47F6C0721A40B8
:1038F000B2EB811F1ED103F44031A26A5208013A93
:10390000B1EB024F18D103F07063E26AB3EB026FC0
:1039100014D1002006E001207047012002E00120C0
:1039200000E0002002B070BD0120FBE70120F9E7B4
:103930000120F7E70120F5E70120F3E70120F1E797
:10394000003802400000474208B5254B9B6803F051
:103950000C03042B3FD0082B3FD1214B5A6802F0B7
:103960003F025B6813F4800F12D01D4B5968C1F3FE
:1039700088111C480023A1FB0001FDF7E1FB184B57
:103980005B68C3F3014301335B00B0FBF3F025E058
:10399000134B5968C1F3881C4FEA4C11B1EB0C0072
:1039A0006EEB0E0E4FEA8E1343EA90638101091A03
:1039B00063EB0E03DB0043EA5173C90011EB0C0CFF
:1039C00043F10003990200234FEA8C2041EA9C5105
:1039D000FDF7B6FBD3E7034800E0034808BD00BF8E
:1039E0000038024040787D010024F400002800F0F7
:1039F0009B8070B50D4604464F4B1B6803F00703D0
:103A00008B4208D2CBB24C4A1370136803F0070301
:103A10008B4240F08B80236813F0020F17D013F015
:103A2000040F04D0454A936843F4E053936023683D
:103A300013F0080F04D0414A936843F46043936045
:103A40003E4A936823F0F003A1680B439360236818
:103A500013F0010F32D06368012B21D09A1E012A86
:103A600025D9364A126812F0020F61D033498A68AC
:103A700022F0030213438B60FFF77CF906462F4BBD
:103A80009B6803F00C036268B3EB820F16D0FFF75C
:103A900071F9801B41F288339842F0D9032042E04B
:103AA000264A126812F4003FE0D101203BE0234A8D
:103AB000126812F0007FD9D1012034E01E4B1B6840
:103AC00003F00703AB4207D9EAB21B4B1A701B681D
:103AD00003F00703AB422DD1236813F0040F06D087
:103AE000164A936823F4E053E1680B43936023681C
:103AF00013F0080F07D0114A936823F4604321693B
:103B000043EAC1039360FFF71FFF0C4B9B68C3F3AD
:103B100003130B4AD35CD8400A4B18600A4B186851
:103B2000FFF7DCF8002070BD012070470120FAE7A4
:103B30000120F8E70120F6E7003C0240003802408F
:103B400008AB00080000002008000020014B1868A6
:103B5000704700BF0000002008B5FFF7F7FF044BD7
:103B60009B68C3F38223034AD35CD84008BD00BFDF
:103B70000038024018AB000808B5FFF7E7FF044B18
:103B80009B68C3F34233034AD35CD84008BD00BFEF
:103B90000038024018AB000870B4036A23F0010338
:103BA0000362036A4668826922F073020C6844EA81
:103BB000020523F002028B6813430D4CA04209D08A
:103BC0000B4CA0420DD0466085614A684263036297
:103BD00070BC704723F00803CA68134323F0040342
:103BE000EEE726F440764A6932438E691643EAE7E7
:103BF0000000014030B4036A23F480730362036A57
:103C00004568C26922F073020C68224323F40073F2
:103C10008C6843EA04230F4CA04209D00D4CA0420B
:103C20000ED04560C2614A68C263036230BC70470F
:103C300023F40063CC6843EA042323F48063EDE7B4
:103C400025F440554C6945EA04158C6945EA04158C
:103C5000E7E700BF0000014030B4036A23F480535B
:103C60000362036A4468C26922F4E6420D6842EACC
:103C7000052223F400538D6843EA0533074DA8421B
:103C800006D04460C2614A680264036230BC704777
:103C900024F480444D6944EA8514F2E700000140B1
:103CA00010B4036A046A24F001040462846924F0F5
:103CB000F00C4CEA021223F00A030B438261036208
:103CC00010BC704710B4046A24F0100404628469C4
:103CD000036A24F4704C4CEA023223F0A00343EA56
:103CE00001138261036210BC7047836823F0700384
:103CF0000B4343F0070383607047000090F83D30AA
:103D0000DBB2012B2FD1022380F83D300268D3684B
:103D100043F00103D3600368154A934218D0B3F10E
:103D2000804F15D0A2F57C42934211D002F58062FB
:103D300093420DD002F58062934209D002F59A3287
:103D4000934205D01A6842F001021A6000207047C1
:103D50009A6802F00702062A07D01A6842F00102A8
:103D60001A6000207047012070470020704700BF94
:103D7000000001407047704770477047704710B5AA
:103D8000044603681A6912F0020F11D0DA6812F0C3
:103D9000020F0DD06FF002021A610123037703684E
:103DA0009B6913F0030F70D0FFF7E6FF0023237722
:103DB00023681A6912F0040F12D0DA6812F0040FA7
:103DC0000ED06FF004021A610223237723689B69E7
:103DD00013F4407F5FD02046FFF7CEFF0023237708
:103DE00023681A6912F0080F12D0DA6812F0080F6F
:103DF0000ED06FF008021A61042323772368DB6971
:103E000013F0030F4ED02046FFF7B6FF00232377B1
:103E100023681A6912F0100F12D0DA6812F0100F2E
:103E20000ED06FF010021A61082323772368DB6934
:103E300013F4407F3DD02046FFF79EFF00232377F9
:103E400023681A6912F0010F03D0DA6812F0010F2B
:103E500036D123681A6912F0800F03D0DA6812F0A5
:103E6000800F34D123681A6912F0400F03D0DA684A
:103E700012F0400F32D123681A6912F0200F03D0DC
:103E8000DA6812F0200F30D110BDFFF774FF204622
:103E9000FFF773FF8AE72046FFF76DFF2046FFF725
:103EA0006CFF9BE72046FFF766FF2046FFF765FFA4
:103EB000ACE72046FFF75FFF2046FFF75EFFBDE758
:103EC0006FF001021A612046FDF7B0FDC1E76FF007
:103ED00080021A61204600F068FBC3E76FF04002E1
:103EE0001A612046FFF74AFFC5E76FF020021A610A
:103EF000204600F059FBC7E70368254A90420ED0E0
:103F0000B0F1804F0BD0A2F57C42904207D002F571
:103F10008062904203D002F58062904203D123F088
:103F200070034A6813431A4A90421AD0B0F1804F86
:103F300017D0A2F57C42904213D002F580629042E5
:103F40000FD002F5806290420BD002F59A32904277
:103F500007D002F58062904203D002F58062904261
:103F600003D123F44073CA68134323F080034A69E2
:103F7000134303608B68C3620B688362044B9842EF
:103F800002D00123436170470B690363F9E700BF67
:103F90000000014040B310B5044690F83D30F3B145
:103FA000022384F83D30214651F8040BFFF7A4FFAB
:103FB000012384F8463084F83E3084F83F3084F89A
:103FC000403084F8413084F8423084F8433084F83B
:103FD000443084F8453084F83D30002010BD80F82E
:103FE0003C30FEF74BF9DBE70120704740B310B5DA
:103FF000044690F83D30F3B1022384F83D30214669
:1040000051F8040BFFF778FF012384F8463084F859
:104010003E3084F83F3084F8403084F8413084F8F2
:10402000423084F8433084F8443084F8453084F8D2
:104030003D30002010BD80F83C30FFF79BFEDBE7F1
:1040400001207047002857D070B50D46044690F8FF
:104050003D30002B4BD0022384F83D30226893681A
:1040600023F4804323F007039360214651F8040BA7
:10407000FFF742FF21688A688B690E6A286810433F
:1040800023F4407C2CF0030CAA68AB6942EA0323BA
:1040900043EA0C0323F47C4323F0FC03EA69D5F8DC
:1040A0000CC04CEA022C4CEA030C2A6A13032A695E
:1040B00043EA021343EA0C0326F0AA066A686D6914
:1040C00042EA05123243886021688B6123681A62D4
:1040D000012384F8463084F83E3084F83F3084F879
:1040E000423084F8433084F83D30002070BD80F8C1
:1040F0003C30FDF7F9FFAEE70120704730B4036AAA
:1041000023F010030362036A4468826922F4E642E2
:104110000D6842EA052223F020038D6843EA051367
:104120000E4DA84209D00D4DA8420ED044608261C8
:104130004A688263036230BC704723F08003CD6815
:1041400043EA051323F04003EDE724F440644D698E
:1041500044EA85048D6944EA8504E7E700000140EC
:1041600038B590F83C30012B66D004460D4601234B
:1041700080F83C300C2A5AD8DFE802F00759595928
:104180001B5959593059595944000068FFF704FD2B
:104190002268936943F0080393612268936923F0CE
:1041A000040393612268936929690B43936100209A
:1041B0003EE00068FFF7A2FF2268936943F40063C2
:1041C00093612268936923F4806393612268936901
:1041D000296943EA01239361002029E00068FFF781
:1041E00009FD2268D36943F00803D3612268D369CB
:1041F00023F00403D3612268D36929690B43D36197
:10420000002015E00068FFF727FD2268D36943F41A
:104210000063D3612268D36923F48063D361226889
:10422000D369296943EA0123D361002000E001201A
:10423000002384F83C3038BD0220FCE710B48468C9
:1042400024F47F4C42EA03220A4342EA0C028260D1
:1042500010BC704790F83C30012B78D010B5044664
:10426000012380F83C30022380F83D3002689368D7
:1042700023F47F4323F0770393600B68602B4CD0CB
:1042800029D8402B54D00CD9502B22D1CA68496868
:104290000068FFF705FD50212068FFF726FD00208C
:1042A00005E0202B0DD009D9302B0AD001200123A5
:1042B00084F83D30002384F83C3010BD0BB1102B46
:1042C00005D119462068FFF710FD0020EFE7012017
:1042D000EDE70120EBE7B3F5805F34D0B3F5005F85
:1042E0000CD1CB684A6889680068FFF7A7FF22688D
:1042F000936843F4804393600020D8E7702B24D167
:10430000CB684A6889680068FFF798FF226893685D
:1043100043F0770393600020C9E7CA6849680068E2
:10432000FFF7D0FC60212068FFF7DFFC0020BEE72C
:10433000CA6849680068FFF7B3FC40212068FFF7AE
:10434000D4FC0020B3E70020B1E70120AFE7022052
:10435000704701F01F01012303FA01FC036A23EAFD
:104360000C030362036A02FA01F10B430362704714
:1043700010B504460846002932D194F83E30DBB22D
:10438000013B18BF0123002B63D1002841D1022338
:1043900084F83E30012201462068FFF7DAFF2368E7
:1043A0002E4A934245D023682C4A934246D0B3F11B
:1043B000804F43D0A2F57C4293423FD002F5806209
:1043C00093423BD002F58062934237D002F59A3295
:1043D000934233D01A6842F001021A60002037E09D
:1043E000042908D008290DD094F84130DBB2013BF4
:1043F00018BF0123C7E794F83F30DBB2013B18BF79
:104400000123C0E794F84030DBB2013B18BF012321
:10441000B9E7042805D0082807D0022384F84130E2
:10442000B8E7022384F83F30B4E7022384F8403031
:10443000B0E75A6C42F400425A64B4E79A6802F05A
:104440000702062A07D01A6842F001021A6000200B
:1044500010BD0120FCE70020FAE700BF000001408A
:1044600038B5044690F83E00C0B294F83F3094F856
:104470004220D2B294F843C00D46B1B9012849D1C7
:10448000012A48D1022384F83E3084F842307DB3BB
:10449000042D39D0012200212068FFF75AFF0122A4
:1044A00004212068FFF755FF27E0DBB25FFA8CFCA0
:1044B000042912D0012833D1012B2CD1012A31D16A
:1044C000BCF1010F30D1022384F83E3084F83F3034
:1044D00084F8423084F84330D9E7012B1CD1BCF179
:1044E000010F1BD1022384F83F3084F84330CEE71C
:1044F000012200212068FFF72CFF2268136843F097
:1045000001031360002006E0012204212068FFF768
:1045100020FFF2E7012038BD0120FCE71846FAE74A
:104520000120F8E71846F6E71046F4E790F83C302B
:10453000012B34D010B4012380F83C30022380F8E2
:104540003D3003685A689C6822F0700C0A6842EAA1
:104550000C025A600368134A934212D0B3F1804FA1
:104560000FD0A2F57C4293420BD002F580629342B9
:1045700007D002F58062934203D002F59A3293424B
:1045800004D124F080044A6814439C60012380F81D
:104590003D30002380F83C30184610BC70470220A4
:1045A000704700BF000001407047704738B50446AF
:1045B0000268136923F44053C1680B431361836895
:1045C0000269134342691343C2691A430168CB6805
:1045D00023F4164323F00C031343CB6002685369A2
:1045E00023F4407381690B4353610368314A93425A
:1045F00006D002F58062934202D0FFF7ADFA01E0E7
:10460000FFF7BAFAE369B3F5004F29D00021031888
:1046100049411B1841F10001C90041EA5371DB0017
:10462000181863684FEA83024FEA937341F100015F
:10463000FCF786FD204DA5FB00325109642303FBE6
:1046400011031B013233A5FB03235B0903F0F002C6
:1046500002EB011203F00F03216813448B6038BD95
:104660000023021843EB0301121841F10001C900B5
:1046700041EA5271D200101841F1000162689218AB
:104680005B41FCF75DFD0C4DA5FB00325109642335
:1046900003FB1103DB003233A5FB03235B095A0044
:1046A00002F4F87202EB011203F0070321681344CD
:1046B0008B60D4E7001001401F85EB512DE9F843D2
:1046C00005460F4616469946DDF820802C6824687A
:1046D00037EA04030CBF4FF0010C4FF0000CB44557
:1046E0002DD1B8F1FF3FF1D0B8F1000F05D0FEF7A2
:1046F00041FBA0EB09004045E8D92A6802F10C0310
:1047000053E8003F23F4D0730C3242E80031002913
:10471000F3D12A6802F1140353E8003F23F00103A8
:10472000143242E800310029F3D1202385F83D30CE
:1047300085F83E30002385F83C30032000E000205F
:10474000BDE8F88358B310B5044690F83D300BB37C
:10475000242384F83D302268D36823F40053D360C7
:104760002046FFF723FF2268136923F49043136167
:104770002268536923F02A0353612268D36843F403
:104780000053D36000202064202384F83D3084F857
:104790003E3010BD80F83C30FDF760FED8E70120C8
:1047A00070472DE9F04182B01E4690F83D30DBB2F3
:1047B000202B54D104460D469046002953D0002AA0
:1047C00053D090F83C30012B51D0012380F83C307D
:1047D00000230364212380F83D30FEF7CBFA07461F
:1047E000A4F82480A4F82680A368B3F5805F05D0E0
:1047F0004FF00008002384F83C3012E0236913B125
:104800004FF00008F6E7A8460025F3E738F8023B2A
:104810002268C3F308035360E28C92B2013A92B269
:10482000E284E38C9BB273B100963B460022802168
:104830002046FFF743FFE0B9002DE7D015F8012B24
:1048400023685A60E8E700963B4600224021204654
:10485000FFF734FF78B9202384F83D3000E00220D0
:1048600002B0BDE8F0810120FAE70120F8E702205C
:10487000F6E70320F4E70320F2E72DE9F04182B0E8
:104880001E4690F83E30DBB2202B5CD104460D462C
:10489000904600295BD0002A5BD090F83C30012B79
:1048A00059D0012380F83C3000230364222280F891
:1048B0003E200363FEF75EFA0746A4F82C80A4F8B6
:1048C0002E80A368B3F5805F05D04FF00008002369
:1048D00084F83C3017E0236913B14FF00008F6E785
:1048E000A8460025F3E723685B68C3F3080328F8AC
:1048F000023B03E023685B682B700135E28D92B2C6
:10490000013A92B2E285E38D9BB2BBB100963B4681
:10491000002220212046FFF7D1FEF0B9002DE2D081
:10492000A368B3F5805FE5D013B92369002BE1D00C
:1049300023685B6803F07F032B70DEE7202384F895
:104940003E30002000E0022002B0BDE8F0810120EE
:10495000FAE70120F8E70220F6E70320F4E7034630
:1049600081628285C28500201864222283F83E205D
:1049700083F83C001968CA6842F48072CA601968FA
:104980004A6942F001024A611A68D36843F0200381
:10499000D360704708B590F83E30DBB2202B0DD1C4
:1049A00071B17AB190F83C30012B0DD0012380F821
:1049B0003C3000230363FFF7D2FF00E0022008BD74
:1049C0000120FCE70120FAE70220F8E7014B186814
:1049D000704700BF0C00002070B50D4E0D4D761BCA
:1049E000B61006D0002455F8043B01349847A6427F
:1049F000F9D1094E094D761B06F06AF8B61006D0BB
:104A0000002455F8043B01349847A642F9D170BD03
:104A100028AF000828AF000830AF000828AF000812
:104A2000830730B548D0541E002A3FD0CAB203468F
:104A300001E0013C3AD303F8012B9D07F9D1032C87
:104A40002DD9CDB245EA05250F2C45EA054536D9C5
:104A5000A4F1100222F00F0C03F1200EE6444FEAFD
:104A6000121C03F1100242E9045542E902551032CA
:104A70007245F8D10CF1010214F00C0F03EB021295
:104A800004F00F0C13D0ACF1040323F00303043340
:104A9000134442F8045B9342FBD10CF003042CB1A5
:104AA000CAB21C4403F8012B9C42FBD130BD6446C2
:104AB0001346002CF4D1F9E703461446BFE71A4623
:104AC000A446E0E70FB400B5074983B004AB08681B
:104AD00053F8042B8168019300F0E0F803B05DF80F
:104AE00004EB04B0704700BF0C0000202DE9F04338
:104AF000694CD4F8008083B004460E4617461D4624
:104B0000B8F1000F03D0D8F83830002B77D0022F3F
:104B100005D0012F00F2AC80002DC0F2A980636E99
:104B2000DA0752D52146404602F060FF216B41B1C1
:104B300004F14003994202D0404603F083F8002379
:104B40002363B4F90CC000231CF0800FA3616360E1
:104B500064D12CF44A6C2CF0030C022FA4F80CC086
:104B60006AD001AB6A462146404603F011FAA38998
:104B70001843A081002D2FD0002E2ED0D8F8383029
:104B8000002B38D0009B2660AB42B4F90C301CBF20
:104B900043F40063A381012F04BF43F00103A38109
:104BA0009AB213F00803C4E904652CD0D1075DD58F
:104BB0006D42A561656E002315F00105A36027D045
:104BC0000025284603B0BDE8F083A3899B05A9D43E
:104BD000A06D03F069F9A5E7009D284603F008FAE7
:104BE0000646002847D0A38943F08003A381D8F864
:104BF0003830002BC6D1404602F02CFFC2E74046B9
:104C000002F028FF83E7A360656E15F00105D7D198
:104C1000930524D5284603B0BDE8F08321694046BA
:104C200003F010F8B4F90CC02CF44A6C2CF0030C0F
:104C3000022FA4F80CC094D10025002204F14303F4
:104C4000A2600122C4E904322360636E4CF0020CBE
:104C5000D807A4F80CC0DDD41CF4007FDAD1A06D15
:104C600003F024F9284603B0BDE8F083A560CBE744
:104C70004FF0FF35CEE7DDF80090A94504D0484657
:104C800003F0B6F9064620B9B4F90CC04FF0FF3571
:104C9000D3E74D46A7E700BF0C0000202DE9F04FF9
:104CA000D5B01C46079191460546099003F0F4F8EB
:104CB0000268179210460E94FCF7C2FC16901DB1C4
:104CC000AB6B002B00F02A82079A536EDD0740F190
:104CD0003881B2F90C2091B28F0409D4079B42F4B9
:104CE00000529A8191B21A465B6E23F400535366C8
:104CF0000E0740F1CB80079B1B69002B00F0C6809C
:104D000001F01A030A2B00F0CF8000242BAB4D4694
:104D1000CDE92944CDE91944CDE91B4412942893E7
:104D20009846189400230B940024CDE914342B7872
:104D3000002B00F09D81AA4604E01AF8013F002BE9
:104D400000F0C780252BF8D1BAEB050640F0C580EE
:104D50009AF80030002B00F08B8100234FF0FF32D7
:104D60009AF801608DF883300A930AF1010A0892DB
:104D70001F462B244FF020090AF1010AA6F1200357
:104D80005A2B00F2ED80DFE813F0EB02EB00EB00B2
:104D9000E602EB00EB00EB006A00EB00EB005C02CC
:104DA0008002EB0067028A02EB0085025B005B0079
:104DB0005B005B005B005B005B005B005B00EB008B
:104DC000EB00EB00EB00EB00EB00EB007A01EB00FB
:104DD000F801D2017A017A017A01EB00EB00EB00D5
:104DE000EB00E102EB00EB002D02EB00EB00EB002F
:104DF0000202EB00A402EB00EB008307EB00EB00E8
:104E0000EB00EB00EB00EB00EB00EB007A01EB00BA
:104E1000F801D4017A017A017A01C702D401CD01E7
:104E2000EB00D402EB006C022F02B502CD01EB00C7
:104E300002027E008007EB00EB006107EB007E00C2
:104E4000A6F1300300221AF8016B02EB820203EB99
:104E50004202A6F13003092BF5D90A928EE7DDF85C
:104E600024B0584603F018F843681B931846FCF723
:104E7000E7FB1C900646584603F00EF8836819932A
:104E8000002E40F0CD869AF8006075E7079D0998DE
:104E9000294601F0ADFC002841F01C83A98901F0EE
:104EA0001A030A2B7FF431AF079AB2F90E30002BA8
:104EB000FFF62BAF536ED80702D4890541F13B8131
:104EC0000799099823464A4655B0BDE8F04F01F0CE
:104ED0004FBCBAEB050600F0CB802A9B33442A93E3
:104EE000299B0133072BC8E90056299305DC08F1FB
:104EF00008080B9B33440B932AE70799099828AAC3
:104F000003F0E2FF80B90DF1AC08F2E707990998C8
:104F100028AA03F0D9FF002800F09B800D9B1BB14D
:104F20000998194602F08EFE079A536ED90740F190
:104F3000EA8093895B0601F1D9820B9855B0BDE8F0
:104F4000F08F079BB3F90C20900591B23FF5C4AEEA
:104F50001D46986D02F0A8FFB5F90C2091B2BBE692
:104F6000002E00F0858000228DF8EC608DF8832003
:104F70000123CDE90C32069308920F9213921092FE
:104F80003BAD17F0020302D006990231069117F0EB
:104F9000840B07D10A990698A1EB0009B9F1000F1B
:104FA00000F370832A9C8AB1299A0DF183010132A2
:104FB0000134C8F80010072A4FF001012A94299201
:104FC000C8F8041000F3B68308F1080883B1299BE0
:104FD00021AA01330234C8F80020072B4FF0020247
:104FE0002A942993C8F8042000F3B28308F1080832
:104FF000BBF1800F00F06982089B0C9AA3EB020BB7
:10500000BBF1000F00F3AA82FB0500F100820C9BAC
:10501000C8F804301C44299BC8F800500133072B02
:105020002A94299300F3228308F10808780705D50C
:105030000A9B069A9D1A002D00F39683DDE90A2348
:1050400006998A42ACBF9B185B180B93002C7FF427
:105050005DAF002329930D9B1BB10D99099802F0B8
:10506000F1FD0DF1AC0855462B78002B7FF463AEB3
:105070002A9B002B41F0D3810023299354E70E9BF8
:10508000073323F00702F2E80234CDE91434DDE9F6
:10509000143424F000440E92994618462146B54B2C
:1050A0004FF0FF32FCF73AFB002840F0EF84B14BA1
:1050B000484621464FF0FF32FBF7DAFC002840F06B
:1050C000E584DDE9140100220023FBF7C7FC00287A
:1050D00040F067879DF88320A74DA84B27F08007F5
:1050E0000321472EC8BF1D4600230D9306910C9146
:1050F00008930F9313931093002A3FF442AF069B3B
:10510000013306933DE7079B9B899A053FF512AF54
:10511000079CA06D02F0CAFEA3890BE7099802F074
:1051200099FCD1E59AF8006047F0200724E647F0A3
:105130001007BA060E9B40F13B84073323F00703A8
:105140001A465B6852F8084B0E929946002BC0F243
:105150004C84089B013300F0D88254EA090327F0FD
:10516000800B40F0D382089B002B40F0D4825F4636
:10517000002308930C9354AD1DE10E9B002253F8BD
:10518000041B8DF883208DF8EC100E93F0E60E9C36
:10519000089B54F8045B4FF000098DF88390002DB4
:1051A00000F093855A1C00F051861A46494628465D
:1051B000FCF74EF90D90002801F00E810D9BCDF803
:1051C00020905B1B0C930E9423EAE3739DF88320DD
:1051D0000693CDF83490CDF83C90CDF84C90CDF8B6
:1051E000409089E747F0100717F0200900F0D283BC
:1051F0000E9B073323F00703D3F8049053F8084BB2
:105200000E9327F4806B002300228DF88320089AE8
:10521000511C00F0B88054EA09012BF0800740F0DF
:10522000B180002A40F0F685002BA1D11BF00103CC
:105230000C9300F0148430238DF84F310DF24F158C
:10524000B9E00E9B53F8042B0A92002A80F2DA830D
:105250000A9A0E9352420A929AF8006047F00407A5
:105260008AE5BD0600F1D184FC0600F1D8857806F8
:1052700000F1A586B90540F1D2850E9B0B9953F834
:10528000042B0E9311705546EEE69AF800608DF8E7
:10529000834071E59AF8006047F080076CE552465C
:1052A00012F8016B2A2E01F03F82A6F13003092B80
:1052B000924698BF002201F2BC801AF8016B02EB03
:1052C000820203EB4202A6F13003092BF5D90892C2
:1052D00054E547F0100B1BF0200900F076830E9B7D
:1052E000073323F00703D3F8049053F8084B0E93C9
:1052F000012389E70E9B53F8044B0E933023782645
:105300008DF884301E4B189347F0020B8DF88560A2
:105310004FF00009022377E79AF80060682E03BF78
:105320009AF8016047F400770AF1010A47F0400754
:1053300022E59AF800606C2E03BF9AF8016047F0EE
:1053400020070AF1010A47F0100715E59AF80060F6
:1053500047F0080710E59AF8006047F001070BE5F1
:105360009DF88330002B7FF48EAD9AF800608DF8A5
:10537000839001E5FFFFEF7F24AB000828AB000816
:1053800034AB0008BB46012B00F0C081022B54ADAA
:1053900020D1189A04F00F032409D35C05F8013DCD
:1053A00044EA09744FEA191954EA0903F2D154ABDB
:1053B0005B1B5F460C9308990C989DF883208142F3
:1053C0004FF00003B8BF01460D9306910F9313935E
:1053D000109391E604F00703E40844EA49744FEAA5
:1053E000D909303354EA09012A4605F8013DF1D1C3
:1053F0001BF0010FDBD0302BD9D03023023A05F857
:10540000013C54AB9B1A5F460C931546D3E7652EBF
:1054100040F3E680DDE9140100220023FBF714FBD2
:10542000002800F0DC81299BBF4AC8F80020013326
:1054300001340122072B2A942993C8F8042000F391
:10544000CC8408F10808229B129A934280F2D682FB
:10545000169B179A1C44C8E90023299B2A94013300
:10546000072B299300F3248408F10808129B5D1E82
:10547000002D7FF7DBAD102D299BDFF8B09240F3B4
:10548000BD8449462246B946DDF824B0079C102663
:105490000F4605E008F10808103D102D40F3AA84DE
:1054A00001331032072BC8E90076CDE92932F1DD4E
:1054B00028AA2146584603F007FD00287FF42EADA8
:1054C000DDE929320DF1AC08E6E70A9B069AA3EB69
:1054D000020BBBF1000F7FF78FADBBF1100F299AC4
:1054E000DFF848922CDD1D9621464E46079CDDF8DC
:1054F0002490102306E0ABF1100BBBF1100F08F164
:1055000008081ADD01321031072AC8E90063CDE925
:105510002921F0DD28AA214648460DF1AC0803F008
:10552000D3FC00287FF4FAACABF1100BBBF1100FE9
:10553000DDE929214FF01003E4DCB1461D9E0C4645
:1055400001325C44072ACDE92924C8F80090C8F844
:1055500004B000F3A08308F108084DE5BBF1100F7B
:10556000299ADFF8C8912DDD41462046A8464C46D1
:10557000079DDDF82490102306E0ABF1100BBBF182
:10558000100F01F1080119DD01321030072AC1E9BD
:105590000043CDE92920F0DD28AA2946484603F03A
:1055A00093FC00287FF4BAACABF1100BBBF1100FE9
:1055B000DDE929202BA94FF01003E5DC4546A14683
:1055C0008846044601325C44072ACDE92924C8F8FC
:1055D0000090C8F804B000F3D08108F1080813E582
:1055E000129B012B40F38081299EC8F800500136A0
:1055F00001340123072E2A942996C8F8043000F3B9
:105600007C8308F10808169B179A01361C44072E64
:10561000C8E90023CDE9296400F37C8308F1080878
:10562000DDE9140100220023FBF70EFA002840F008
:105630007881129B0136013B01351C44072EC8F8C6
:1056400000502996C8F804302A9400F35D8108F1CF
:1056500008081A9BC8F8043001361C44072E24ABF6
:10566000CDE92964C8F800307FF7DEAC07990998C6
:1056700028AA03F029FC00287FF450AC2A9C0DF1E5
:10568000AC08D3E4B9F1100FDDE929212BDDCDE918
:105690001D3B1F96DDF824B04E461024A946079DF9
:1056A00004E0103E102E08F1080817DD0132204BEF
:1056B0001031072AC8E90034CDE92921F1DD28AAF3
:1056C000294658460DF1AC0803F0FEFB00287FF494
:1056D00025AC103E102EDDE92921E7DCDDE91D3B7C
:1056E0004D46B1461F9EC8F80490013209EB0104F3
:1056F000072A0F49C8F80010CDE9292400F3518387
:105700009DF8832008F108084DE4BB460A2C79F186
:10571000000380F00C83303401238DF84F415F4645
:105720000C930DF24F1546E664AB000878AB000809
:1057300068AB0008079909981D9328AA03F0C4FBD9
:1057400000287FF4EBAB2A9C1D9B0DF1AC083DE4D7
:105750000799099828AA03F0B7FB00287FF4DEAB6D
:105760002A9C0DF1AC0843E4102D299B21DD099FF3
:10577000DDF81C90102604E0103D102D08F10808FB
:1057800017DD0133BB4A1034072BC8E90026CDE9E9
:105790002934F1DD28AA494638460DF1AC0803F05A
:1057A00093FB00287FF4BAAB103D102DDDE92934BE
:1057B000E7DC0133AF4AC8F804502C44072BCDE98D
:1057C0002934C8F800207FF739AC0799099828AA2E
:1057D00003F07AFB00287FF4A1AB2A9C2EE42299E7
:1057E000002940F31481DDF84090129B9945A8BF31
:1057F0009946B9F1000F0BDD299B01334C44072B6F
:10580000C8E900592A94299300F39A8508F10808F9
:10581000109EB9F1000FA8BFA6EB0906002E00F3F9
:105820004683DDF840B07905AB4400F1CE84229B7D
:10583000129A934202DBFA0740F1B883169A17993D
:105840001444C8E90012299A2A940132072A29929D
:1058500000F3838508F10808129AAE18A6EB0B0630
:10586000D51AAE42A8BF2E46002E0DDD299BC8F8E2
:1058700000B001333444072BC8F804602A942993FC
:1058800000F3F18508F10808002EA8BFAD1B002D1C
:105890007FF7CCAB102D299BDFF8DC9140F3AE8273
:1058A00049462246B946DDF824B0079C10260F462B
:1058B00005E008F10808103D102D40F39B820133EC
:1058C0001032072BC8E90076CDE92932F1DD28AA8C
:1058D0002146584603F0F8FA00287FF41FABDDE9B3
:1058E00029320DF1AC08E6E7FE073FF57DAE299EB3
:1058F000C8F80050013601340123072E2A94299656
:10590000C8F804307FF7A3AE0799099828AA03F0D6
:10591000DBFA00287FF402ABDDE929640DF1AC0865
:1059200097E6129B5D1E002D7FF793AE102DDFF8DA
:10593000489140F37F8222460897099C079F4FF0C9
:10594000100B05E008F10808103D102D40F370829F
:1059500001361032072EC8E9009BCDE92962F1DD3E
:1059600028AA3946204603F0AFFA00287FF4D6AAC9
:10597000DDE929620DF1AC08E6E70799099828AA44
:1059800003F0A2FA00287FF4C9AA2A9C0DF1AC0802
:10599000FFF73ABB17F0100372D117F0400200F086
:1059A000BD820E9A52F8044B0E929946A4B228E496
:1059B00053F8044B0E93FB0656D47D0651D544F3A1
:1059C000C0394B4624B2FFF7C1BB1BF0100340F0B7
:1059D00036811BF0400200F092820E9A52F8044B7E
:1059E0000E929946A4B201230EE42D2364428DF851
:1059F000833069EB4909BB46012308E4F8077FF5CA
:105A000015AB25E59AF800600E93FFF7B5B9299B11
:105A10001A4AC8F80020013301340122072B2A94C6
:105A20002993C8F8042000F3708408F108080029BD
:105A300040F01E82129A07F0010313433FF4F6AAC6
:105A4000169B1799E218C8E90013299B2A92013383
:105A5000072B299300F3618308F1080819E254AD7C
:105A6000A9E4B80500F1B4824FEAE4794B46FFF7A8
:105A70006DBB00BF68AB000878AB000864AB0008E2
:105A80000E9B53F8044B0E93FFF7BBBBDDE91401EB
:105A900002460B46FBF742FE002840F0A085612E2F
:105AA00000F05085412E00F09982089B013326F0CA
:105AB0002003069300F08F85472B00F07985DDE900
:105AC000141247F480730F931346002BC0F2ED8538
:105AD0000C9300231D938B460D93069B462B00F0E1
:105AE0004A84452B00F04F850899019126A904911D
:105AF00023A9039122A9029102210C9B09980091EC
